:020000040800F2
:1000000000000120D1250008D9020008DB02000809
:10001000DD020008DF020008E10200080000000025
:10002000000000000000000000000000E3020008E3
:10003000E502000800000000E7020008E9020008ED
:100040002126000821260008212600082126000874
:100050002126000821260008212600082126000864
:100060002126000821260008212600082126000854
:100070002126000821260008212600082126000844
:100080002126000821260008212600080000000083
:100090000000000000000000000000002126000811
:1000A0002126000821260008212600082126000814
:1000B00021260008F1020008212600082126000858
:1000C00021260008212600082126000821260008F4
:1000D0002126000821260008212600080000000033
:1000E0002126000821260008212600080000000023
:1000F00000000000000000000000000021260008B1
:100100000000000021260008212600082126000802
:1001100000000000000000000000000000000000DF
:100120002126000821260008212600082126000893
:100130002126000800000000000000000000000070
:100140000000000000000000000000002126000860
:100150002126000821260008212600082126000863
:1001600021260008212600080000000000000000F1
:10017000000000000000000000000000000000007F
:100180000000000021260008000000000000000020
:04019000212600081C
:1001940053B94AB9002908BF00281CBF4FF0FF31EA
:1001A4004FF0FF3000F00CB8ADF1080C6DE904CE4F
:1001B40002F05AFFDDF804E0DDE9022304B07047E1
:1001C400704700BF10B5054C237833B9044B13B105
:1001D4000448AFF300800123237010BD5C000020AD
:1001E400000000002433000808B5034B1BB1034989
:1001F4000348AFF3008008BD000000006000002049
:100204002433000872B6FEE710B594B008AC30226F
:100214000021204602F0AEFE0023039304930593CD
:1002240006930793204A516821F03F0141F01901D8
:100234005160516841F4800151600193116C41F0A7
:1002440080511164126C02F080520192019A02935F
:1002540016490A6822F4404242F400420A600A68DD
:1002640002F440420292029A012208924FF4803230
:1002740009920E934FF480030F93204600F044FB41
:1002840068B90F2303930123049301460590069054
:10029400079003A800F072FD18B914B010BDFFF761
:1002A400B1FFFFF7AFFF00BF00380240007000400D
:1002B40008B501F0B7F8FFF7A7FF01F093FD01F0CF
:1002C400EFFD01F053FE02F02DF902F099F802F06F
:1002D40065FAFCE7FEE7FEE7FEE7FEE7FEE77047A8
:1002E4007047704708B501F0B7F808BD08B5024873
:1002F40001F0E8F908BD00BF6401002082B00021CC
:1003040000910B4B5A6C42F480425A645A6C02F4CA
:1003140080420092009A01911A6C42F080521A6451
:100324001B6C03F080530193019B02B0704700BF24
:1003340000380240002800F0C38038B5044690F825
:100344004130002B52D0022284F841202168CB692D
:1003540023F47B6323F00F03CB6123681A62636980
:1003640093426BD0E368002B47D110231D46A3684A
:10037400202B01D86B001D46012000F08DFE23695F
:10038400B3F5007F3CD0B0FBF5F000EB80004300F8
:100394006269B3FBF2F305334A4AA2FB0323D9088B
:1003A4001B09090201F480719A1EFD2A40D82269B2
:1003B4000A4321681A430A622168CB6923F47B63E8
:1003C40023F00F036268A0680243E0680243A06957
:1003D4000243134343F40063CB61236A012B2FD000
:1003E40000206064012384F8413038BD80F8403037
:1003F400354B436301F070FDA5E720231D46B6E7A6
:10040400E36853B1AB00B0FBF3F000EB80004300B2
:100414006269B3FBF2F30533BEE7EB00B0FBF3F024
:1004240000EB800043006269B3FBF2F30533B3E7EA
:10043400636C43F0100363640120D6E70021B6E740
:10044400224B63632268224B9A4220D04FF0402211
:10045400D36923F47B6323F00F03D36122681C4B1D
:100464009A4216D04FF04022022313622268184B9E
:100474009A4210D04FF0402CDCF81C309BB26268DA
:10048400B2F5007F0AD0CAB94FF4807008E0114A6F
:10049400DEE7104AE8E7DFF83CC0EDE74FF4807090
:1004A400B4F808E0A189228B40EA0E0001430A4314
:1004B400134343F40063CCF81C3091E70020EFE7CA
:1004C40001207047CDCCCCCC470500083507000887
:1004D4000038004000340040704708B5426A0368A1
:1004E4001288DA60436A02334362438D013B4385D9
:1004F400438D03B108BD0268536823F0A003536021
:10050400012380F84130FFF7E7FFF3E7704708B5B0
:100514000368DA68C36A1A80C36A0233C362438E0B
:10052400013B4386438E03B108BD0268536823F040
:1005340060035360012380F84130FFF7E7FFF3E7DE
:10054400704710B584B0044603689A68039290F823
:100554004120042A05D094F84130032B2CD004B058
:1005640010BD039A12F0010F03D05B6813F0400F23
:100574001FD1039B13F0400FEDD023685A6812F08B
:10058400200FE8D05A6822F060025A6000230193D9
:100594002368DA6801929B680193019B012384F824
:1005A4004130636C43F0020363642046FFF7C8FFE5
:1005B400D1E7FFF7ACFFDCE7039B13F0020F04D095
:1005C40023685B6813F0800F1DD1039B13F0080FA1
:1005D400C5D023685A6812F0200FC0D05A6822F0A0
:1005E400A0025A600023029323689B680293029B33
:1005F400012384F84130636C43F0040363642046B0
:10060400FFF79EFFABE72046FFF767FFDDE7704784
:1006140008B5436A9A1C426202681B88D360438D02
:10062400013B4385438D33B90268536823F0A0032B
:100634005360438E03B108BD012380F84130FFF7B6
:10064400E6FFF8E708B50268134B9A4218D04FF05A
:100654004023DA68C36A991CC1621A80438E013B45
:100664004386438E5BB902680B4B9A420BD04FF022
:100674004022536823F060035360438D2BB108BDBF
:10068400A3F58063E5E7054AF3E7012380F84130E9
:10069400FFF7BDFFF3E700BF00380040003400401F
:1006A40008B5436A9A1C42621A880168114B994240
:1006B40014D04FF04023DA60438D013B4385438DD2
:1006C4005BB902680B4B9A420BD04FF0402253683F
:1006D40023F0A0035360438E2BB108BDA3F58063C0
:1006E400E9E7054AF3E7012380F84130FFF78FFF7C
:1006F400F3E700BF003800400034004008B5036849
:10070400DA68C36A991CC1621A80438E013B43862E
:10071400438E33B90268536823F060035360438DFA
:1007240003B108BD012380F84130FFF770FFF8E7FB
:1007340010B586B0044603689A680592704A9342DD
:100744006FD04FF04022916804915B680393536823
:1007540002936368B3F5007F01D0002B70D1059B31
:1007640013F0020F03D0039B13F0800F5CD1049BA2
:1007740013F0010F03D0029B13F0400F58D1049BD8
:1007840013F0400F24D0029B13F0200F20D02268D6
:100794005B4B9A4250D04FF04022536823F06003E1
:1007A40053602268536823F0A0035360002300932E
:1007B4002368DA6800929B680093009B012384F805
:1007C4004130636C43F0020363642046FFF7B8FED4
:1007D400059B13F0080F22D0039B13F0200F1ED0AB
:1007E4002268536823F0A00353602268444B9A4262
:1007F40024D04FF04022536823F060035360002359
:10080400019323689B680193019B012384F8413081
:10081400636C43F0040363642046FFF791FE06B063
:1008240010BDA2F580628EE72046FFF7F1FE9EE739
:100834002046FFF707FFA2E7324AAEE7314ADAE77C
:10084400049B13F0020F03D0029B13F0800F4AD1D4
:10085400059B13F0010F03D0039B13F0400F46D107
:10086400059B13F0400F1CD0039B13F0200F18D0EE
:100874002268536823F0600353602268204B9A4235
:1008840039D04FF04022536823F0A0035360012372
:1008940084F84130636C43F0020363642046FFF73D
:1008A4004FFE049B13F0080FB9D0029B13F0200FE6
:1008B400B5D02268124B9A421FD04FF040225368A1
:1008C40023F0A00353602268536823F0600353604D
:1008D400012384F84130636C43F0040363642046CD
:1008E400FFF72EFE9BE72046FFF7DAFEB0E720462F
:1008F400FFF704FFB4E7034AC5E7024ADFE700BF96
:100904000038004000340040002800F0DC8170B55D
:1009140082B00446036813F0010F3BD0984B9B68E8
:1009240003F00C03042B2DD0954B9B6803F00C03B0
:10093400082B22D06368B3F5803F4ED0B3F5A02FC7
:1009440051D08F4B1A6822F480321A601A6822F44C
:1009540080221A606368002B4FD000F089FD0546A1
:10096400874B1B6813F4003F14D100F081FD401B3A
:100974006428F5D97BE001207AE0814B5B6813F4AD
:10098400800FD7D07E4B1B6813F4003F02D06368FE
:10099400002BF0D0236813F0020F51D0784B9B68E2
:1009A40013F00C0F3CD0764B9B6803F00C03082B20
:1009B40031D0E368002B66D0724B01221A6000F03C
:1009C40057FD05466E4B1B6813F0020F52D100F021
:1009D4004FFD401B0228F5D949E0694A136843F4E6
:1009E40080331360B6E7664B1A6842F480221A60BB
:1009F4001A6842F480321A60ACE700F039FD05460B
:100A04005F4B1B6813F4003FC4D000F031FD401B62
:100A14006428F5D92BE05A4B5B6813F4800FC8D1D6
:100A2400574B1B6813F0020F02D0E368012BA2D1CD
:100A3400534A136823F0F803216943EAC10313609E
:100A4400236813F0080F41D063696BB34D4B012247
:100A5400C3F8802E00F00CFD0546494B5B6F13F084
:100A6400020F33D100F004FD401B0228F5D9032006
:100A740002B070BD424A136823F0F803216943EAC7
:100A8400C1031360DCE73F4B00221A6000F0F0FC66
:100A940005463B4B1B6813F0020FD1D000F0E8FC75
:100AA400401B0228F5D9E2E7364B0022C3F8802E1A
:100AB40000F0DEFC0546324B5B6F13F0020F05D0ED
:100AC40000F0D6FC401B0228F5D9D0E7236813F0C8
:100AD400040F76D02A4B1B6C13F0805F33D10023B4
:100AE4000193274B1A6C42F080521A641B6C03F07A
:100AF40080530193019B01231E46234B1B6813F46F
:100B0400807F23D0A368012B33D0052B3ED01C4B10
:100B14001A6F22F001021A671A6F22F004021A6790
:100B2400A368002B3CD000F0A3FC0546144B1B6FBC
:100B340013F0020F44D100F09BFC401B41F28833B8
:100B44009842F3D993E700231E46D6E70E4A13686A
:100B540043F48073136000F08BFC05460A4B1B685A
:100B640013F4807FCED100F083FC401B0228F5D91A
:100B74007DE7034A136F43F001031367D0E700BF17
:100B84000038024000004742007000404F4B1A6F8B
:100B940042F004021A671A6F42F001021A67BFE7B3
:100BA40000F066FC0546494B1B6F13F0020F07D09B
:100BB40000F05EFC401B41F288339842F3D956E7BB
:100BC400DEB9A369002B50D0404A926802F00C02AF
:100BD400082A4CD0022B16D03D4B00221A6600F096
:100BE40047FC0446394B1B6813F0007F3DD000F0EE
:100BF4003FFC001B0228F5D939E7344A136C23F073
:100C040080531364DDE7324B00221A6600F030FC97
:100C140005462E4B1B6813F0007F05D000F028FC1E
:100C2400401B0228F5D922E7E369226A1343626A6A
:100C340043EA8213A26A5208013A43EA0243E26A8F
:100C440043EA0263214A5360214B01221A6600F0F1
:100C54000FFC04461D4B1B6813F0007F05D100F008
:100C640007FC001B0228F5D901E7002000E7012B4F
:100C74003FF481AE154B5B6803F48001E269914255
:100C84007FF479AE03F03F02216A8A427FF473AEA7
:100C9400616A47F6C0721A40B2EB811F7FF46BAEF3
:100CA40003F44031A26A5208013AB1EB024F7FF4D7
:100CB40062AE03F07063E26AB3EB026F01D100200D
:100CC400D6E60120D4E60120704700BF0038024078
:100CD4000000474208B5264B9B6803F00C03042B25
:100CE40041D0082B41D1224B5A6802F03F025B6885
:100CF40013F4800F12D01E4B5968C1F388111D489C
:100D04000023A1FB0001FFF743FA194B5B68C3F30F
:100D1400014301335B00B0FBF3F008BD144B58688A
:100D2400C0F388104FEA401CBCEB000C6EEB0E0EB7
:100D34004FEA8E1343EA9C634FEA8C11B1EB0C012A
:100D440063EB0E03DB0043EA5173C90011EB000CA3
:100D540043F10003990200234FEA8C2041EA9C519D
:100D6400FFF716FAD1E70348D7E70348D5E700BFF2
:100D74000038024040787D010024F400002800F08F
:100D8400978070B50D4604464A4B1B6803F0070371
:100D94008B4206D2474B19701B6803F007038B4242
:100DA40049D1236813F0020F17D013F0040F04D0B5
:100DB400414A936843F4E0539360236813F0080FA7
:100DC40004D03D4A936843F4604393603A4A93687D
:100DD40023F0F003A1680B439360236813F0010F21
:100DE40031D06368012B21D09A1E012A25D9324AB9
:100DF400126812F0020F1ED02F498A6822F00302F3
:100E040013438B6000F034FB06462B4B9B6803F0C6
:100E14000C036268B3EB820F15D000F029FB801B32
:100E240041F288339842F0D9032005E0224A12683F
:100E340012F4003FE0D1012070BD1F4A126812F085
:100E4400007FD9D1F7E71B4B1B6803F00703AB42C4
:100E540006D9184B1D701B6803F00703AB42EAD197
:100E6400236813F0040F06D0134A936823F4E05365
:100E7400E1680B439360236813F0080F07D00E4A10
:100E8400936823F46043216943EAC1039360FFF745
:100E940021FF094B9B68C3F30313084AD35CD84072
:100EA400074B1860074B186800F098FA0020C3E756
:100EB40001207047003C02400038024044330008DF
:100EC4000800002004000020014B1868704700BF90
:100ED4000800002008B5FFF7F7FF044B9B68C3F335
:100EE4008223034AD35CD84008BD00BF00380240C7
:100EF4003C3300080F2303600B4B9A6802F0030293
:100F040042609A6802F0F00282609A6802F4E05249
:100F1400C2609B68DB0803F4E0530361034B1B6866
:100F240003F007030B60704700380240003C0240A6
:100F340030B583B00546036813F0010F02D113F0F6
:100F4400040F2BD0504B00229A6600F091FA04460D
:100F54004E4B1B6813F0006F07D000F089FA031B97
:100F6400022BF5D9032003B030BD6A68AB681B07B8
:100F740043EA8213454AC2F88430434B01229A66FD
:100F840000F076FA0446414B1B6813F0006F05D15C
:100F940000F06EFA031B022BF5D9E3E72B6813F07C
:100FA400020F09D12B6813F0080F03D02A7C384BA9
:100FB400C3F8E0210020D6E700230193334B1A6CD9
:100FC40042F080521A641B6C03F080530193019B1E
:100FD400304A136843F48073136000F049FA0446FE
:100FE4002C4B1B6813F4807F05D100F041FA001BE1
:100FF4000228F5D9B6E7254B1B6F13F4407314D0C0
:10100400EA6802F440729A420FD0204B1A6F22F41D
:1010140040721D490120C1F8400E0020C1F8400E65
:101024001A671B6F13F0010F12D1EB6803F44072BF
:10103400B2F5407F1CD0154A936823F4F8139360EB
:1010440012490B6FEA68C2F30B0213430B67A9E75B
:1010540000F00EFA04460D4B1B6F13F0020FE4D19F
:1010640000F006FA031B41F288329342F3D979E780
:1010740006498A6822F4F81223F0704323F440737B
:1010840013438B60DCE700BF000047420038024096
:101094000010474200700040012801D00020704732
:1010A400134B9B6813F4000FF8D1114B5B6813F4D6
:1010B400800F14D00E4B5A6802F03F020D4BB3FB65
:1010C400F2F30B4AD2F88400C0F3881003FB00F05B
:1010D400D2F88430C3F30273B0FBF3F07047044BCF
:1010E4005A6802F03F02044BB3FBF2F3E9E700BF96
:1010F4000038024040787D010024F40070B582B0CD
:101104008E46002369E085684FEA430C032101FA07
:101114000CF125EA0105DEF80C1001FA0CF1294363
:101124008160416821EA0201DEF80420C2F3001262
:101134009A400A43426064E0D908083150F82120FB
:1011440003F00705AD004FF00F0C0CFA05FC22EA82
:101154000C0CDEF81020AA4042EA0C0240F82120D0
:1011640066E0042200E0002202FA0CF22A43023173
:10117400564D45F82120564A9168E24321EA040578
:10118400DEF8046016F4801F01D044EA01055049DA
:101194008D60C96802EA0105DEF8046016F4001FD8
:1011A40001D044EA01054A49CD60496802EA0105D3
:1011B400DEF8046016F4003F01D044EA0105444916
:1011C4004D6009680A40DEF8045015F4803F01D0F0
:1011D40044EA01023E490A6001330F2B74D801220C
:1011E4009A40DEF8001001EA020432EA0101F3D168
:1011F400DEF8041001F0030C0CF1FF3CBCF1010F0C
:1012040081D9DEF8042002F00302032A0AD0C1685F
:101214005D000322AA4021EA0201DEF80820AA4068
:101224000A43C260DEF8042002F00302022A83D0DB
:1012340001684FEA430C032202FA0CF221EA02018C
:10124400DEF8042002F0030202FA0CF20A43026000
:10125400DEF8042012F4403FBED0002201921D4A61
:10126400516C41F480415164526C02F48042019209
:10127400019A99088D1C154A52F8255003F0030C65
:101284004FEA8C0C0F2202FA0CF225EA0205124AEC
:1012940090423FF468AF02F5806290420ED002F5AE
:1012A400806290420CD002F5806290420AD002F52E
:1012B400806290423FF455AF072255E7012253E77D
:1012C400022251E703224FE702B070BD003801400B
:1012D400003C014000380240000002400AB1816134
:1012E4007047090481617047002807DB090100F198
:1012F400604000F5614080F80013704700F00F0073
:101304000901014B1954704714ED00E000B500F0D9
:101314000700A0F1030CBCF1040F07D8C0F1070EBD
:101324000430062806D84FF0000C03E04FF0040EFA
:101334004FF0000C4FF0FF3303FA0EF021EA0001E6
:1013440001FA0CF103FA0CF322EA030241EA020067
:1013540000BD0000074AD36823F4E0631B041B0CA0
:10136400000200F4E060034343F0BF6343F400333E
:10137400D360704700ED00E010B50446054BD86813
:10138400C0F30220FFF7C2FF01462046FFF7ACFF7F
:1013940010BD00BF00ED00E0002807DB00F01F02D5
:1013A400400901239340024A42F82030704700BFAD
:1013B40000E100E00138B0F1807F0BD24FF0E02370
:1013C4005861054AF02182F8231000209861072211
:1013D4001A6170470120704700ED00E010B5044623
:1013E4000D4B18680D4B1A784FF47A73B3FBF2F374
:1013F400B0FBF3F0FFF7DEFF08B90F2C01D9012091
:1014040010BD024621464FF0FF30FFF7B5FF044BF5
:101414001C600020F4E700BF08000020000000204A
:101424000400002008B50B4B1A6842F400721A60DD
:101434001A6842F480621A601A6842F480721A6070
:101444000320FFF787FF0F20FFF7C8FFFEF756FFC3
:10145400002008BD003C0240034A1168034B1B787E
:101464000B441360704700BF780000200000002088
:10147400014B1868704700BF7800002038B5044657
:10148400FFF7F6FF0546B4F1FF3F02D0044B1B788B
:101494001C44FFF7EDFF401BA042FAD338BD00BF48
:1014A4000000002010B5036A23F001030362026AFE
:1014B400D0F804E0836923F073030C6844EA030C56
:1014C40022F002028B6813430E4A90420AD00D4A5E
:1014D40090420ED0C0F804E0C0F818C04A684263D5
:1014E400036210BD23F00803CA681A4322F0040300
:1014F400EDE72EF4407E4A6942EA0E028C6944EA22
:10150400020EE7E70000014010B5036A23F480737C
:101514000362036AD0F804C0C26922F073020C6843
:1015240044EA020E23F400738A6843EA02230F4A52
:1015340090420AD00D4A90420FD0C0F804C0C0F8BF
:101544001CE04A68C263036210BD23F40063CA68E6
:1015540043EA022323F48063ECE72CF4405C4A69F9
:101564004CEA021C8A694CEA021CE6E700000140CE
:1015740010B5036A23F480530362036AD0F804C0ED
:10158400C26922F4E6420C6842EA042223F40053BE
:101594008C6843EA0433DFF820E0704506D0C0F8D5
:1015A40004C0C2614A680264036210BD2CF4804C1A
:1015B4004C694CEA841CF2E700000140036AD0F84D
:1015C40020C02CF0010CC0F820C0D0F818C02CF0BA
:1015D400F00C4CEA021223F00A030B43826103620B
:1015E4007047036A23F010030362D0F818C0036A3B
:1015F4002CF4704C4CEA023223F0A00343EA0113AA
:10160400826103627047836823F070030B4343F0E5
:10161400070383607047000090F83D30012B2ED102
:10162400022380F83D300268D36843F00103D3609D
:101634000368144A934217D0B3F1804F14D0A2F533
:101644007C42934210D002F5806293420CD002F5A2
:101654008062934208D002F59A32934204D01A6809
:1016640042F001021A6008E09A6802F00702062AB2
:1016740003D01A6842F001021A600020704701206A
:10168400704700BF000001400268D36823F00103E3
:10169400D3600368196A41F21112114208D1196A20
:1016A40040F24442114203D11A6822F001021A6046
:1016B400012380F83D300020704770477047704721
:1016C4007047704710B5044603681A6912F0020F98
:1016D40011D0DA6812F0020F0DD06FF002021A6115
:1016E4000123037703689B6913F0030F70D0FFF79E
:1016F400E6FF0023237723681A6912F0040F12D03F
:10170400DA6812F0040F0ED06FF004021A6102239B
:10171400237723689B6913F4407F5FD02046FFF74B
:10172400CEFF0023237723681A6912F0080F12D022
:10173400DA6812F0080F0ED06FF008021A61042361
:1017440023772368DB6913F0030F4ED02046FFF79D
:10175400B6FF0023237723681A6912F0100F12D002
:10176400DA6812F0100F0ED06FF010021A6108231D
:1017740023772368DB6913F4407F3DD02046FFF7CD
:101784009EFF0023237723681A6912F0010F03D008
:10179400DA6812F0010F36D123681A6912F0800F4B
:1017A40003D0DA6812F0800F34D123681A6912F07A
:1017B400400F03D0DA6812F0400F32D123681A695F
:1017C40012F0200F03D0DA6812F0200F30D110BDD0
:1017D400FFF774FF2046FFF773FF8AE72046FFF701
:1017E4006DFF2046FFF76CFF9BE72046FFF766FF7F
:1017F4002046FFF765FFACE72046FFF75FFF204672
:10180400FFF75EFFBDE76FF001021A61204600F0AA
:10181400F1FFC1E76FF080021A61204600F0D7FAA9
:10182400C3E76FF040021A612046FFF74AFFC5E79D
:101834006FF020021A61204600F0C8FAC7E70000E2
:101844000368254A90420ED0B0F1804F0BD0A2F528
:101854007C42904207D002F58062904203D002F5A8
:101864008062904203D123F070034A6813431A4AFA
:1018740090421AD0B0F1804F17D0A2F57C4290422A
:1018840013D002F5806290420FD002F5806290423C
:101894000BD002F59A32904207D002F58062904252
:1018A40003D002F58062904203D123F44073CA68E6
:1018B400134323F080034A69134303608B68C362B4
:1018C4000B688362044B984202D001234361704742
:1018D4000B690363F9E700BF0000014040B310B592
:1018E400044690F83D30F3B1022384F83D3021469C
:1018F40051F8040BFFF7A4FF012384F8463084F861
:101904003E3084F83F3084F8403084F8413084F825
:10191400423084F8433084F8443084F8453084F805
:101924003D30002010BD80F83C3000F09FFDDBE727
:101934000120704740B310B5044690F83D30F3B130
:10194400022384F83D30214651F8040BFFF778FF59
:10195400012384F8463084F83E3084F83F3084F81C
:10196400403084F8413084F8423084F8433084F8BD
:10197400443084F8453084F83D30002010BD80F8B0
:101984003C30FFF79AFEDBE70120704710B5036A8D
:1019940023F010030362036AD0F804C0826922F4BE
:1019A400E6420C6842EA042223F020038C6843EAEE
:1019B4000413DFF840E070450AD0DFF838E07045E2
:1019C4000ED0C0F804C082614A688263036210BD0D
:1019D40023F08003CC6843EA041323F04003ECE7CC
:1019E4002CF4406C4C694CEA840C8C694CEA840CF1
:1019F400E7E700BF0000014038B590F83C30012B08
:101A040066D00446012380F83C300C2A5BD8DFE81A
:101A140002F0075A5A5A1C5A5A5A315A5A5A45000D
:101A24000D460068FFF73EFD2268936943F0080302
:101A340093612268936923F0040393612268936994
:101A440029690B43936100203EE00D460068FFF7CF
:101A54009DFF2268936943F400639361226893694C
:101A640023F48063936122689369296943EA01231B
:101A74009361E8E70D460068FFF746FD2268D369E5
:101A840043F00803D3612268D36923F00403D361CC
:101A94002268D36929690B43D361D4E70D460068F2
:101AA400FFF766FD2268D36943F40063D3612268BB
:101AB400D36923F48063D3612268D369296943EA33
:101AC4000123D361BFE70120002384F83C3038BDF3
:101AD4000220FCE7D0F808C02CF47F4C42EA032231
:101AE4000A4342EA0C028260704790F83C30012BB2
:101AF4006BD010B50446012380F83C30022380F8F3
:101B04003D300268936823F47F4323F077039360A6
:101B14000B68602B45D01DD8402B4CD00ED8202B01
:101B240003D007D80BB1102B06D119462068FFF754
:101B34006AFD22E0302BF8D001201FE0502BFBD1AE
:101B4400CA6849680068FFF739FD50212068FFF72B
:101B54005AFD12E0B3F5805F0FD0B3F5005F14D0E7
:101B6400702BE9D1CB684A6889680068FFF7B2FF37
:101B74002268936843F0770393600020012384F87C
:101B84003D30002384F83C3010BDCB684A68896836
:101B94000068FFF79FFF2268936843F480439360D3
:101BA400EBE7CA6849680068FFF71BFD60212068FD
:101BB400FFF729FDE1E7CA6849680068FFF7FEFC02
:101BC40040212068FFF71FFDD7E70220704701F08E
:101BD4001F014FF0010C0CFA01FC036A23EA0C0309
:101BE4000362036A8A4013430362704710B50446D4
:101BF400084681BB94F83E30013B18BF0123002BFB
:101C04005FD100283DD1022384F83E3001220146F1
:101C14002068FFF7DCFF23682B4A934241D02368F6
:101C2400294A934242D0B3F1804F3FD0A2F57C427F
:101C340093423BD002F58062934237D002F5806232
:101C4400934233D002F59A3293422FD01A6842F06D
:101C540001021A6033E0042907D008290BD094F854
:101C64004130013B18BF0123C9E794F83F30013BE1
:101C740018BF0123C3E794F84030013B18BF012388
:101C8400BDE7042805D0082807D0022384F8413092
:101C9400BCE7022384F83F30B8E7022384F84030DD
:101CA400B4E75A6C42F400425A64B8E79A6802F006
:101CB4000702062A03D01A6842F001021A600020C3
:101CC40010BD0120FCE700BF0000014038B5044608
:101CD4000D4600220068FFF77AFF23681B4A9342EF
:101CE40014D02368196A41F21112114208D1196AF9
:101CF40040F24442114203D11A6822F001021A60F0
:101D04009DB9012384F83E30002038BD196A41F2A0
:101D140011121142E5D1196A40F244421142E0D154
:101D24005A6C22F400425A64DBE7042D05D0082DD6
:101D340007D0012384F84130E6E7012384F83F30DB
:101D4400E2E7012384F84030DEE700BF00000140F1
:101D540090F83C20012A35D000B50346012280F8D2
:101D64003C20022280F83D2002685068D2F808E046
:101D740020F0700C086840EA0C0050601A681248A1
:101D8400824212D0B2F1804F0FD0A0F57C40824243
:101D94000BD000F58060824207D000F5806082425B
:101DA40003D000F59A30824205D12EF0800E4968A6
:101DB40041EA0E019160012283F83D20002083F85E
:101DC4003C0000BD0220704700000140704770478E
:101DD400034AD2F8883043F47003C2F8883070475D
:101DE40000ED00E02DE9F0418AB005AD0024059432
:101DF40006940794089409940194264B1A6B42F0B4
:101E040004021A631A6B02F004020192019A02940A
:101E14001A6B42F080021A631A6B02F0800202927B
:101E2400029A03941A6B42F001021A631A6B02F0CD
:101E340001020392039A04941A6B42F002021A6399
:101E44001B6B03F002030493049BDFF850802246CB
:101E54004FF400514046FFF741FA0F4E224610213D
:101E64003046FFF73BFA4FF40053059301270697DA
:101E74000794089429464046FFF740F91023059338
:101E840006970794089429463046FFF737F90AB0B5
:101E9400BDE8F08100380240000002400008024022
:101EA40008B50B480B4B03604FF4007343600023E9
:101EB4008360C36003614FF4FA5242618361C3617A
:101EC4000362FEF737FA00B908BDFEF79BF9FBE79A
:101ED4007C0000200038004000B58DB0002307933B
:101EE400089309930A930B93029303930493059322
:101EF400069302681A4B9A4201D00DB000BD01232B
:101F04000293C02303930223049302A8FFF710F85B
:101F140018BB00220092134B196C41F480411964E0
:101F2400196C01F48041009100990192196B41F000
:101F3400020119631B6B03F002030193019B4FF42D
:101F4400144307930223089309920A9205230B93DF
:101F540007A90548FFF7D2F8CFE7FEF753F9D8E70A
:101F640000380040003802400004024008B50D4823
:101F74000D4B03604FF48273436000238360C3609E
:101F8400036143614FF400728261C361036243627F
:101F940083620A23C36200F0D5F800B908BDFEF7D6
:101FA40031F9FBE7C40000200030014000B589B0DE
:101FB4000023039304930593069307930268144B39
:101FC4009A4201D009B000BD0021019103F5843388
:101FD4005A6C42F480525A645A6C02F48052019250
:101FE400019A02911A6B42F001021A631B6B03F00F
:101FF40001030293029BE02303930223049303232C
:1020040006930523079303A90248FFF777F8D9E756
:1020140000300140000002402DE9F04383B0044643
:102024000F4616461D46FFF723FA0A9B1B1A03EBBD
:102034000508FFF71DFA8146284B1B68C3F3CB3311
:1020440008FB03F3019323689B6837EA03030CBF7F
:1020540001230023B3423DD0B5F1FF3FF3D0FFF796
:1020640007FA4B46C01A404507D2019A02B14246CC
:10207400019B013B01939046E5E72268536823F0F6
:10208400E00353606368B3F5827F0BD0A36AB3F5B2
:10209400005F14D0012384F85130002384F85030B9
:1020A400032018E0A368B3F5004F02D0B3F5806FA6
:1020B400ECD12268136823F040031360E6E722683A
:1020C400136823F4005313602268136843F4005325
:1020D4001360DFE7002003B0BDE8F08308000020B0
:1020E40010B584B00446154B1868154BA3FB00309B
:1020F400400D4FF47A7303FB00F003906368B3F56B
:10210400827F0CD0039B3BB1039B013B0393236869
:102114009B6813F0800FF5D1002004B010BD00922D
:102124000B46002280212046FFF776FF0028F4D0DA
:10213400636D43F0200363650320EEE7080000208D
:10214400819F5E1600285AD010B50446436A33B9FD
:102154004368B3F5827F05D00023C36102E0002306
:10216400036143610023A36294F85130002B40D0F3
:10217400022384F851302268136823F0400313606B
:10218400636803F48273A26802F404421343E268AE
:1021940002F400621343226902F0020213436269EB
:1021A40002F001021343A26902F400721343E269CC
:1021B40002F038021343226A02F080021343A26A37
:1021C40002F40052216813430B60638B03F0040391
:1021D400626A02F01002216813434B602268D369DB
:1021E40023F40063D36100206065012384F8513037
:1021F40010BD84F850302046FFF7D8FEB8E7012020
:1022040070472DE9F04383B004460A9D90F85000CE
:10221400012800F0F3800F4691469846012384F884
:102224005030FFF725F9064694F851306268012BC7
:1022340007D0B2F5827F44D1A268002A41D1042B91
:102244003FD1002F00F0D8804B46002B00F0D48003
:102254004346002B00F0D08094F85130042B02D078
:10226400052384F8513000236365C4F83890A4F83A
:102274003E80A4F83C802763A4F83680A4F8348018
:102284002364636423681A6812F0400F03D11A6848
:1022940042F040021A60E368B3F5006F1BD0636834
:1022A40013B14346012B09D1226B236812781A73A8
:1022B400236B01332363E38E013BE38601231F4633
:1022C4006CE00220012384F85130002384F850305C
:1022D40003B0BDE8F083636813B14346012B09D111
:1022E400226B23681288DA60236B02332363E38E44
:1022F400013BE38601231F4618E02268936813F02C
:1023040001030BD0E18F49B1D168A26B1180A26B9C
:102314000232A263E28F013AE2871F46FFF7A8F870
:10232400801BA84202D3B5F1FF3F1AD1E38E13B943
:10233400E38F002B4CD023689A6812F0020FDCD094
:10234400E28E002AD9D0002FD7D0226B1288DA600F
:10235400236B02332363E38E013BE38600231F4692
:10236400CBE70320AEE72268936813F001030BD098
:10237400E18F49B1D168A26B1170A26B0132A263E3
:10238400E28F013AE2871F46FFF772F8831BAB42E4
:1023940002D3B5F1FF3FE4D1002DE2D0E38E0BB9B7
:1023A400E38FABB123689A6812F0020FDBD0E28EA0
:1023B400002AD8D0002FD6D0226B12781A73236B40
:1023C40001332363E38E013BE38600231F46CAE700
:1023D400324629462046FFF783FE58B9A368002BEE
:1023E4007FF470AF01932368DA6801929B680193CC
:1023F400019B67E720236365012063E7022067E709
:1024040000B587B0002302930393049305930093CC
:1024140001931448144A02604360836040F2072227
:10242400C26003618361FFF759FA88B94FF480539E
:10243400029302A90B48FFF758FB60B900230093ED
:10244400019369460748FFF783FC38B907B000BD1C
:10245400FDF7D8FEEAE7FDF7D5FEEFE7FDF7D2FE7C
:10246400F4E700BF640100200004004000B583B01D
:102474000368144A934204D0134A934215D003B01C
:1024840000BD00210091114B1A6C42F002021A6443
:102494001B6C03F002030093009B0A461D20FEF709
:1024A4006BFF1D20FEF778FFE9E700230193074B3C
:1024B4001A6C42F004021A641B6C03F004030193C7
:1024C400019BDCE7000400400008004000380240A3
:1024D40000B587B0002301930293039304930593FB
:1024E40002680D4B9A4201D007B000BD002300934F
:1024F4000A4B1A6B42F002021A631B6B03F00203CD
:102504000093009B4023019302230293059301A9A6
:102514000348FEF7F3FDE7E70008004000380240F7
:102524000004024000B58FB000230A930B930C9370
:102534000D930893099301930293039304930593D2
:10254400069307931F48204A0260436083607C22FD
:10255400C26003618361FFF7C1F920BB4FF480536C
:102564000A930AA91748FFF7C0FAF8B91548FFF704
:10257400E1F9F0B900230893099308A91148FFF77A
:10258400E7FBC8B9602301933E2302930022039220
:10259400059201A90B48FFF72FFA80B90948FFF704
:1025A40097FF0FB000BDFDF72DFED7E7FDF72AFE1C
:1025B400DCE7FDF727FEDDE7FDF724FEE2E7FDF7A4
:1025C40021FEEBE71C01002000080040DFF834D0B6
:1025D4000D480E490E4A002302E0D458C450043377
:1025E400C4188C42F9D30B4A0B4C002301E013604E
:1025F4000432A242FBD3FFF7EBFB00F0C3FCFDF770
:1026040057FE704700000120000000205C000020FD
:10261400EC3300085C000020480B0020FEE7007942
:1026240070470346EFF3108272B6012018733E21FF
:10263400D98082F310887047024A0260024A02601D
:10264400704700BF843300085C330008437B7BB9C8
:1026540010B5044603681B699847A069FFF714F88E
:1026640000216069FFF732FB01236373012010BD71
:102674000120704738B5857B0DB9284638BD04461E
:1026840000214069FFF7B2FAA069FEF7C5FF0023F5
:102694006373F2E710B50446044B0360044B036014
:1026A4001C2100F04FFC204610BD00BF84330008FD
:1026B4005C330008002906DB89B2B0F91030994276
:1026C40000DD01827047494289B2F6E7C288436956
:1026D4001B685A6301230371704701EB8101C90030
:1026E400084604D4C0F3CF303E3080B2704701F5C1
:1026F400FF407F30F6E770B504460E46FFF7DAFF79
:10270400A57B7DB131462046FFF7E7FFEFF3108349
:1027140072B6227922B1627B12B9E08022732271EF
:1027240083F31088284670BD30B587B00D46FEF798
:10273400D1FB0446694601A8FEF7DCFB049B03B108
:10274400640004EB5500B0FBF5F080B2013880B2B0
:1027540007B030BD38B54A1E0F4B9A4201D900204C
:1027640038BD04460D46FFF7DFFFA3691B68D86236
:1027740029462046FFF7D8FFA369D860A3691B68E0
:1027840000225A62A3691B686FF001021A61A560F6
:102794000120A073E4E700BF9F86010010B54BF64B
:1027A4008033124A4FF40061114800F0E2FA0CE061
:1027B4000F4C204600F0C7FA204600F0F6FA90B914
:1027C4000B4800F0CCFA05280ED0094800F0C7FAEF
:1027D4000128EDD0064800F0C2FA0228E8D00448E7
:1027E40000F0B7F910BDFEE7FEE700BF19AC010029
:1027F400AC01002008B50268034B9A4200D008BD22
:102804000248FFF763FFFAE700040040EC090020E8
:10281400024B034A1A60034A1A607047EC0900200D
:10282400843300085C33000808B5124A124B136065
:10283400124B1360002313713E21D1809360012158
:1028440011735173937313820D4951610D49916151
:102854000D490E4808600E4808600E4848600E484E
:102864008860102088810D4808608B730C4800F044
:10287400B6FA08BDEC0900205C3300088433000874
:102884001C01002064010020DC090020AC33000896
:10289400BC330008C400002000000240CC33000810
:1028A400AC01002008B5FFF7BFFF08BD08B5FFF76E
:1028B400AFFF08BD00B587B08DF80F10FF238DF86A
:1028C400173040684FF0FF33009301230DF11702D6
:1028D4000DF10F01FFF795FC9DF8170007B000BD3F
:1028E40008B5002281898068FEF7F8FC08BD10B5A0
:1028F4000446012281898068FEF7F0FCFF2120460E
:10290400FFF7D8FF10BD38B50546FFF7F0FF0024E8
:1029140004E0FF212846FFF7CDFF0134092CF8DD40
:1029240038BD38B505460024072C08DCFF212846AD
:10293400FFF7C0FF10F0800F02D00134F4E7FF204E
:1029440038BDF8B504460F4615461E46FFF7C8FFC6
:1029540047F040012046FFF7ADFF290E2046FFF760
:10296400A9FFC5F307412046FFF7A4FFC5F30721DC
:102974002046FFF79FFFE9B22046FFF79BFF314651
:102984002046FFF797FF2046FFF7CBFFF8BD000076
:10299400E2B370B505461646837B03B94902FF23AB
:1029A4000A4611212846FFF7CCFF60B90446FF20F0
:1029B400174B9C420BD8FF212846FFF77BFFFE28CC
:1029C40005D00134F4E72846FFF791FF06E0FE281E
:1029D40001D100240AE02846FFF789FF022014E011
:1029E400FF212846FFF766FF30550134B4F5007F18
:1029F400F6DBFF212846FFF75DFFFF212846FFF79E
:102A040059FF2846FFF773FF002070BD022070476E
:102A14009F860100F8B505460E461746FF2300229F
:102A24003721FFF78EFF04462846FFF760FF012C8D
:102A340001D92046F8BDFF233A4631462846FFF720
:102A440080FF0446F5E770B582B00646002585731D
:102A54000A20FEF713FD3046FFF755FFFF24092D2A
:102A640010DC9523002211463046FFF76AFF044626
:102A74003046FFF73CFF012C04D00A20FEF7FEFC91
:102A84000135ECE7012C02D0002002B070BD872391
:102A94004FF4D57208213046FFF753FF054601ACC9
:102AA40005E0FF213046FFF705FF04F8010B02ABF8
:102AB4009C42F6D13046FFF71AFF012DE4D19DF870
:102AC4000630012BE0D19DF80730AA2BDCD100247D
:102AD400B4F57A7F0FDA4FF0804229213046FFF7B0
:102AE40099FF05463046FFF702FF25B10120FEF7A6
:102AF400C5FC0134ECE7002DC6D1FF232A463A2158
:102B04003046FFF71EFF05466C4605E0FF213046C0
:102B1400FFF7D0FE04F8010B01AB9C42F6D130461E
:102B2400FFF7E5FE002DAFD19DF80030C3F380130D
:102B3400B3730120A9E70023C0F81838C0F81C3883
:102B4400C0F82038A0F82438C0F82C38C0F8283849
:102B5400704710B5044680680368DB689847A0682E
:102B640003681B69984704F10C0000F044F92046FF
:102B7400FFF7E1FF0023237010BD022303707047A9
:102B840010B5044680680368DB689847A06803684A
:102B94001B6998470323237010BD10B50446806851
:102BA4000368DB689847A06803681B699847052396
:102BB400237010BD10B5044680680368DB6898472D
:102BC400A06803681B6998470423237010BDF0B5FF
:102BD40083B004460A460F4600F10C0529466846B0
:102BE40000F03CF9BDF80460D4F82838B34200D2B0
:102BF4009EB2DEB1606803685B68009AD4F8181866
:102C04009847022818D0012818D0D4F8183801336E
:102C1400C4F81838D4F828389B1BC4F8283832462E
:102C24003946284600F071F903B0F0BD3246394602
:102C3400284600F06AF9F7E70020F5E70120F3E7FA
:102C440070B50546406803681B68984790B105F164
:102C54000C06304600F0CFF80024304600F0F4F8BB
:102C6400A0420FD921462846FFF7B1FF30B1013405
:102C7400E4B2F2E72846FFF790FF70BD2846FFF75D
:102C84008CFFFAE7A86803685B69B5F824189847CD
:102C940040B1A86803689B69984738B12846FFF794
:102CA4006CFFEAE72846FFF778FFE6E72846FFF7D8
:102CB40074FFE2E770B5064680680368DB699847ED
:102CC400D0B1D6F82C28D6F820389A4216D206F17C
:102CD4000C05284600F0D5F80446284600F0CEF846
:102CE40080B9B06803689B682146984770B1D6F8EC
:102CF4002C380133C6F82C3800240DE03046FFF799
:102D040059FF70BD3046FFF73BFFFAE73046FFF747
:102D140044FFF6E70134E4B206F10C05284600F05E
:102D240093F8A042EDD92146284600F08FF80028F8
:102D3400F0D021463046FFF74AFF0028EAD130465A
:102D4400FFF72BFFDDE708B50378012B04D0022B36
:102D540001D1FFF7AFFF08BDFFF772FFFBE7007873
:102D6400704700780138C0B201288CBF00200120D0
:102D74007047F8B504460E4615461F46FFF7F1FFA7
:102D840078B9C4F81868C4F81C68C4F82058A4F8C2
:102D940024780023C4F82C38C4F82858012323705D
:102DA400F8BD2046FFF7D5FEEBE70078032814BFF3
:102DB40000200120704710B5044680680368DB6872
:102DC4009847A06803681B69984704F10C0000F059
:102DD40012F82046FFF7AFFE0023237010BD10B594
:102DE4000446416082600C3000F028F82046FFF76A
:102DF400E2FF204610BD00B54FF0000E80F800E859
:102E0400A0F802E880F808E80CE003EB0C220021AB
:102E140020F8121001339BB2FF2BF6D90EF1010EEC
:102E24005FFA8EFEBEF1030F07D8F44600EB0E03E3
:102E3400012283F804280023EEE700BD10B5044600
:102E4400FFF7D9FF204610BD04207047032903D89B
:102E5400084490F80408704700207047032A03D9F7
:102E6400002303604360704700230360436001EB69
:102E7400422101604FF480738380704790F8080802
:102E84007047034690F80028024492F8042832BBA5
:102E940090F80018B0F8022802EB012230F9120071
:102EA400B3F802280132A3F80228B3F80228FF2A53
:102EB40014D993F800281A44012182F8041893F8CD
:102EC40000280A44514202F0030201F0030158BFF2
:102ED4004A4283F800280022A3F8022870470122FE
:102EE40080F808280020704782B002AB03E9030091
:102EF400FF2A06D907E0009B002123F812100132B3
:102F040092B2FF2AF7D902B07047032918D810B536
:102F140082B01446B2F5807F02D9002002B010BD01
:102F24004318002283F804280A4601466846FFF73E
:102F340095FF22469DE80300FFF7D6FF0120EDE749
:102F44000020704700F000B800F000B8024B0146C2
:102F5400186800F03DB800BF0C000020014800F0E4
:102F640035B800BF440B0020014800F030B800BF62
:102F7400440B002002440346934200D1704703F8F7
:102F8400011BF9E770B50D4B0D4C00261D1BB6EB6C
:102F9400A50F09D100F0C4F90A4C0B4B00261D1BE8
:102FA400B6EBA50F05D170BD54F8043B9847013624
:102FB400EDE754F8043B98470136F1E7DC330008A9
:102FC400DC330008DC330008E43300087047704742
:102FD40037B5002944D051F8043C0190002BA1F1ED
:102FE4000404B8BFE418FFF7B9FF1E4A0198136838
:102FF40033B96360146003B0BDE83040FFF7B4BF79
:10300400A34208D9256861198B4201BF19685B681E
:1030140049192160EDE71A465B680BB1A342FAD95E
:1030240011685518A5420BD1246821445418A342B1
:103034001160E0D11C685B6853600C441460DAE7EB
:1030440002D90C230360D6E7256861198B4204BFBB
:1030540019685B68636004BF491921605460CAE75A
:1030640003B030BD080A00202DE9F047089F15463B
:1030740004468E461E46002B40F0D2808A424DD92B
:10308400B2FA82FCBCF1000F02FA0CF3CCF1200E70
:1030940018BF1D4620FA0EFE01FA0CF34EEA030E89
:1030A40000FA0CF30CBF8E461C464FEA1548A8B232
:1030B400BEFBF8F1220C08FB11EE01FB00F342EA1F
:1030C4000E42934206D9AA1801F1FF3E01D293425F
:1030D4001ED87146D21AA4B2B2FBF8F308FB13222D
:1030E400584344EA0244A04206D92C1903F1FF32A2
:1030F40001D2A0420FD81346241A43EA014027B153
:1031040024FA0CF400233C607B603146BDE8F08770
:1031140002392A44DEE7023B2C44EDE7002A71D051
:10312400B2FA82F3DBB31E46C6F1200302FA06F5B7
:1031340021FA03F2B14020FA03F30B434FEA154E90
:1031440000FA06F41FFA85FCB2FBFEF00EFB102118
:103154001A0C00FB0CF842EA0142904506D9AA1861
:1031640000F1FF3101D290454ED80846A2EB080287
:103174009BB2B2FBFEF10EFB112201FB0CFC43EAF5
:1031840002439C4506D9EB1801F1FF3201D29C455C
:103194003DD81146A3EB0C0341EA004101E08B1A30
:1031A40001214FEA154E1FFA85FCB3FBFEF0220CF9
:1031B4000EFB103300FB0CF842EA0342904506D99B
:1031C400AA1800F1FF3301D2904523D81846A2EB88
:1031D4000802A4B2B2FBFEF30EFB132203FB0CFCA9
:1031E40044EA0244A44506D92C1903F1FF3201D262
:1031F400A44512D81346A4EB0C0443EA0040B44699
:103204000E467CE71F268FE702382A44AEE70239D0
:103214002B44BFE702382A44D9E7023B2C44EAE7AF
:103224008B4205D90FB1C7E90001002630466CE78F
:10323400B3FA83FCBCF1000F0FD18B4201D382425D
:1032440009D8841A61EB030301209E460FB1C7E934
:10325400004E002659E76046F8E7CCF1200E03FA49
:103264000CF322FA0EF521FA0EF41D4301FA0CF3C5
:1032740020FA0EF119434FEA154900FA0CF61FFA29
:1032840085F8B4FBF9F009FB104A0C0C00FB08F3B9
:1032940044EA0A44A34202FA0CF206D92C1900F1BA
:1032A400FF3A01D2A34235D85046E41A89B2B4FB9E
:1032B400F9F309FB134403FB08F841EA0441884588
:1032C40006D9691803F1FF3401D2884525D823466D
:1032D40043EA0040A1EB0801A0FB029841454C469B
:1032E400434602D306D14E4504D2B9EB020468EB3F
:1032F40005030138002FACD0321B61EB030101FA46
:103304000EFE22FA0CF34EEA030321FA0CF1C7E98C
:1033140000319EE702382C44C7E7023B2944D7E733
:10332400F8B500BFF8BC08BC9E467047F8B500BFAE
:08333400F8BC08BC9E4670477E
:10333C000000000001020304000000000000000077
:10334C000102030406070809000000000000000049
:10335C000000000000000000000000000000000061
:10336C000000000000000000000000000000000051
:10337C0000000000000000003D260008992600080F
:10338C00FB260008512600082726000859270008AC
:10339C007926000823260008000000000000000029
:1033AC000000000000000000000000000000000011
:1033BC000000000000000000000000000000000001
:0833CC004B2A000895290008B6
:0833D40098FCFF7F01000000DE
:0833DC00ED010008A92800081A
:0833E400C9010008B12800082E
:1033EC0001000000100000000024F4001000002078
:1033FC00000000000C0A0020740A0020DC0A0020E7
:10340C0000000000000000000000000000000000B0
:10341C0000000000000000000000000000000000A0
:10342C000000000000000000000000000000000090
:0C343C0000000000000000000000000084
:04000005080025D1F9
:00000001FF
