:020000040800F2
:1000000000000120D51A0008E1020008E302000800
:10001000E5020008E7020008E9020008000000000D
:10002000000000000000000000000000EB020008DB
:10003000ED02000800000000EF020008F1020008D5
:10004000251B0008251B0008251B0008251B000890
:10005000251B0008251B0008251B0008251B000880
:10006000251B0008251B0008251B0008251B000870
:10007000251B0008251B0008251B0008251B000860
:10008000251B0008251B0008251B00080000000098
:10009000000000000000000000000000251B000818
:1000A000251B0008251B0008251B0008251B000830
:1000B000251B0008251B0008251B0008251B000820
:1000C000251B0008251B0008251B0008251B000810
:1000D000251B0008251B0008251B00080000000048
:1000E000251B0008251B0008251B00080000000038
:1000F000000000000000000000000000251B0008B8
:1001000000000000251B0008251B0008251B000817
:1001100000000000000000000000000000000000DF
:10012000251B0008251B0008251B0008251B0008AF
:10013000251B000800000000000000000000000077
:10014000000000000000000000000000251B000867
:10015000251B0008251B0008251B0008251B00087F
:10016000251B0008251B00080000000000000000FF
:10017000000000000000000000000000000000007F
:1001800000000000251B0008000000000000000027
:04019000251B000823
:1001940053B94AB9002908BF00281CBF4FF0FF31EA
:1001A4004FF0FF3000F00CB8ADF1080C6DE904CE4F
:1001B40001F05AFEDDF804E0DDE9022304B07047E3
:1001C400704700BF10B5054C237833B9044B13B105
:1001D4000448AFF300800123237010BD0C000020FD
:1001E400000000002821000808B5034B1BB1034997
:1001F4000348AFF3008008BD000000001000002099
:100204002821000872B6FEE710B594B008AC30227D
:100214000021204601F0FBFD002303930493059382
:10022400069307931F4A516821F03F0141F01001E2
:100234005160516821F4800151600193116C41F0C7
:1002440080511164126C02F080520192019A02935F
:1002540015490A6822F4404242F400420A600A68DE
:1002640002F440420292029A0222089201220B9264
:1002740010220C920E930F93204600F053FB60B9AA
:100284000F2303930021049105910691079103A87C
:1002940000F098FD18B914B010BDFFF7B3FFFFF7D5
:1002A400B1FF00BF003802400070004000B585B0C7
:1002B40001F0A2F8FFF7A8FF01F0E8F801F030F927
:1002C40001F096F9044A01AB07CA83E8070018460F
:1002D40001F078FDFEE700BF40210008FEE7FEE7DD
:1002E400FEE7FEE7FEE770477047704708B501F088
:1002F4009DF808BD82B0002100910B4B5A6C42F46A
:1003040080425A645A6C02F480420092009A01912D
:100314001A6C42F080521A641B6C03F080530193F0
:10032400019B02B0704700BF00380240002800F073
:10033400BE8038B5044690F84130002B51D00222DB
:1003440084F841202168CB6923F47B6323F00F03F5
:10035400CB6123681A626369934269D0E368002B16
:1003640046D11025A368202B00D86D00012000F091
:100374008FFE2369B3F5007F3CD0B0FBF5F000EBB2
:10038400800043006269B3FBF2F30533494AA2FBE0
:100394000323C3F3C002C2EBD3035B0811029A1E0A
:1003A400FD2A3FD822690A4321681A430A62216858
:1003B400CB6923F47B6323F00F036268A0680243D4
:1003C400E0680243A0690243134343F40063CB6132
:1003D400236A012B2ED000206064012384F841306D
:1003E40038BD80F84030344B436301F0B5F8A6E7DC
:1003F4002025B7E7E36853B1AD00B0FBF5F000EB9F
:10040400800043006269B3FBF2F30533BEE7ED00FD
:10041400B0FBF5F000EB800043006269B3FBF2F33C
:100424000533B3E7636C43F0100363640120D7E73B
:100434000021B7E7214B63632268214B9A421FD006
:100444004FF04022D36923F47B6323F00F03D3617D
:1004540022681B4B9A4215D04FF0402202231362AC
:100464002268174B9A420FD04FF04025EB699BB29C
:100474006268B2F5007F09D0BAB94FF4807007E022
:10048400104ADFE70F4AE9E70E4DEFE74FF48070BB
:10049400B4F808C0A189228B40EA0C0001430A4346
:1004A400134343F40063EB6195E70020F0E7012078
:1004B400704700BFCDCCCCCC4305000851070008E1
:1004C4000038004000340040704708B5426A0368B1
:1004D4001288DA60436A02334362438D9BB2013B64
:1004E4009BB24385438D9BB203B108BD0268536838
:1004F40023F0A0035360012380F84130FFF7E4FFA9
:10050400F3E7704708B50368DA68C36A1A80C36AF8
:100514000233C362438E9BB2013B9BB24386438E3C
:100524009BB203B108BD0268536823F060035360B3
:10053400012380F84130FFF7E4FFF3E7704710B57B
:1005440084B0044603689A68039290F84120042A10
:1005540005D094F84130032B2CD004B010BD039A7D
:1005640012F0010F03D05B6813F0400F1FD1039BFF
:1005740013F0400FEDD023685A6812F0200FE8D032
:100584005A6822F060025A60002301932368DA68F3
:1005940001929B680193019B012384F84130636CB1
:1005A40043F0020363642046FFF7C8FFD1E7FFF777
:1005B400A9FFDCE7039B13F0020F04D023685B68F8
:1005C40013F0800F1DD1039B13F0080FC5D02368CF
:1005D4005A6812F0200FC0D05A6822F0A0025A6064
:1005E4000023029323689B680293029B012384F8EF
:1005F4004130636C43F0040363642046FFF79EFFBD
:10060400ABE72046FFF761FFDDE7704708B5436AB3
:100614009A1C426202681B88D360438D9BB2013BE3
:100624009BB24385438D9BB23BB90268536823F068
:10063400A0035360438E9BB203B108BD012380F82D
:100644004130FFF7E2FFF8E708B50268154B9A421C
:100654001CD04FF04023DA68C36A991CC1621A8027
:10066400438E9BB2013B9BB24386438E9BB263B9DC
:1006740002680C4B9A420CD04FF04022536823F08E
:1006840060035360438D9BB22BB108BDA3F5806317
:10069400E1E7054AF2E7012380F84130FFF7B5FFAF
:1006A400F3E700BF003800400034004008B5436A57
:1006B4009A1C42621A880168134B994218D04FF071
:1006C4004023DA60438D9BB2013B9BB24385438D4B
:1006D4009BB263B902680C4B9A420CD04FF0402293
:1006E400536823F0A0035360438E9BB22BB108BD23
:1006F400A3F58063E5E7054AF2E7012380F841307A
:10070400FFF783FFF3E700BF0038004000340040E8
:1007140008B50368DA68C36A991CC1621A80438EFB
:100724009BB2013B9BB24386438E9BB23BB90268AA
:10073400536823F060035360438D9BB203B108BD3B
:10074400012380F84130FFF760FFF8E710B586B069
:10075400044603689A680592704A93426FD04FF03A
:100764004022916804915B68039353680293636821
:10077400B3F5007F01D0002B70D1059B13F0020F5D
:1007840003D0039B13F0800F5CD1049B13F0010F83
:1007940003D0029B13F0400F58D1049B13F0400F79
:1007A40024D0029B13F0200F20D022685B4B9A4286
:1007B40050D04FF04022536823F060035360226806
:1007C400536823F0A0035360002300932368DA687E
:1007D40000929B680093009B012384F84130636C72
:1007E40043F0020363642046FFF7A8FE059B13F061
:1007F400080F22D0039B13F0200F1ED022685368E9
:1008040023F0A00353602268444B9A4224D04FF053
:100814004022536823F0600353600023019323684C
:100824009B680193019B012384F84130636C43F07E
:10083400040363642046FFF781FE06B010BDA2F5F1
:1008440080628EE72046FFF7E1FE9EE72046FFF731
:10085400FBFEA2E7324AAEE7314ADAE7049B13F023
:10086400020F03D0029B13F0800F4AD1059B13F0B3
:10087400010F03D0039B13F0400F46D1059B13F0E7
:10088400400F1CD0039B13F0200F18D0226853682C
:1008940023F0600353602268204B9A4239D04FF012
:1008A4004022536823F0A0035360012384F84130AD
:1008B400636C43F0020363642046FFF73FFE049B2E
:1008C40013F0080FB9D0029B13F0200FB5D02268A3
:1008D400124B9A421FD04FF04022536823F0A003DA
:1008E40053602268536823F060035360012384F843
:1008F4004130636C43F0040363642046FFF71EFE3B
:100904009BE72046FFF7D2FEB0E72046FFF700FF43
:10091400B4E7034AC5E7024ADFE700BF00380040F6
:1009240000340040002800F0E08170B582B0044635
:10093400036813F0010F3BD09F4B9B6803F00C033B
:10094400042B2CD09C4B9B6803F00C03082B21D068
:100954006368B3F5803F4FD0B3F5A02F52D0964BC8
:100964001A6822F480321A601A6822F480221A600B
:100974006368002B50D000F065FD05468E4B1B6864
:1009840013F4003F14D100F05DFD401B6428F5D939
:100994000320B1E1884B5B6813F4800FD8D0864BF9
:1009A4001B6813F4003F03D06368002B00F09F81A1
:1009B400236813F0020F54D07F4B9B6813F00C0F85
:1009C4003ED07D4B9B6803F00C03082B33D0E368C7
:1009D400002B68D0794B01221A6000F033FD0546E4
:1009E400754B1B6813F0020F54D100F02BFD401B14
:1009F4000228F5D903207FE16F4A136843F480335A
:100A04001360B5E76C4B1A6842F480221A601A68C6
:100A140042F480321A60ABE700F014FD0546664BE1
:100A24001B6813F4003FC3D000F00CFD401B642886
:100A3400F5D9032060E1604B5B6813F4800FC6D1E5
:100A44005D4B1B6813F0020F03D0E368012B40F0E9
:100A54005081594A136823F0F803216943EAC1031A
:100A64001360236813F0080F42D063696BB3534BD0
:100A74000122C3F8802E00F0E5FC05464E4B5B6F67
:100A840013F0020F34D100F0DDFC401B0228F5D92D
:100A9400032031E1484A136823F0F803216943EA4B
:100AA400C1031360DDE7454B00221A6000F0CAFC65
:100AB4000546414B1B6813F0020FD2D000F0C2FC74
:100AC400401B0228F5D9032016E13C4B0022C3F851
:100AD400802E00F0B7FC0546374B5B6F13F0020F16
:100AE40006D000F0AFFC401B0228F5D9032003E137
:100AF400236813F0040F77D02F4B1B6C13F0805F27
:100B040033D1002301932C4B1A6C42F080521A64A7
:100B14001B6C03F080530193019B0125284B1B6838
:100B240013F4807F23D0A368012B34D0052B38D055
:100B3400214B1A6F22F001021A671A6F22F0040285
:100B44001A67A368002B3DD000F07CFC06461A4BC4
:100B54001B6F13F0020F46D100F074FC801B41F2AE
:100B640088339842F3D90320C6E00025D6E7144A17
:100B7400136843F48073136000F064FC0646104B62
:100B84001B6813F4807FCED100F05CFC801B02282C
:100B9400F5D90320B0E0084A136F43F0010313674B
:100BA400CFE7054B1A6F42F004021A671A6F42F03E
:100BB40001021A67C5E700BF00380240000047423F
:100BC4000070004000F03EFC0646524B1B6F13F0D1
:100BD400020F08D000F036FC801B41F288339842A3
:100BE400F3D9032088E0EDB9A369002B00F08380DA
:100BF400484A926802F00C02082A51D0022B17D0FE
:100C0400454B00221A6600F01DFC0446414B1B684C
:100C140013F0007F42D000F015FC001B0228F5D928
:100C2400032069E03B4A136C23F080531364DBE731
:100C3400394B00221A6600F005FC0546354B1B684B
:100C440013F0007F06D000F0FDFB401B0228F5D90D
:100C5400032051E0E369226A1343626A43EA821380
:100C6400A26A5208013A43EA0243E26A43EA02638F
:100C7400284A5360284B01221A6600F0E3FB04461D
:100C8400244B1B6813F0007F06D100F0DBFB001B34
:100C94000228F5D903202FE000202DE000202BE0CE
:100CA400012B2BD01B4B5B6803F48001E26991425A
:100CB40026D103F03F02216A8A4223D1616A47F6B2
:100CC400C0721A40B2EB811F1ED103F44031A26AF4
:100CD4005208013AB1EB024F18D103F07063E26A93
:100CE400B3EB026F14D1002006E00120704701200D
:100CF40002E0012000E0002002B070BD0120FBE70B
:100D04000120F9E70120F7E70120F5E70120F3E7E7
:100D14000120F1E7003802400000474208B5264BA5
:100D24009B6803F00C03042B41D0082B41D1224BC8
:100D34005A6802F03F025B6813F4800F12D01E4B16
:100D44005968C1F388111D480023A1FB0001FFF776
:100D54001FFA194B5B68C3F3014301335B00B0FB1B
:100D6400F3F008BD144B5868C0F388104FEA401CD8
:100D7400BCEB000C6EEB0E0E4FEA8E1343EA9C6341
:100D84004FEA8C11B1EB0C0163EB0E03DB0043EA79
:100D94005173C90011EB000C43F1000399020023C5
:100DA4004FEA8C2041EA9C51FFF7F2F9D1E703485E
:100DB400D7E70348D5E700BF0038024040787D01FB
:100DC4000024F400002800F09B8070B50D46044612
:100DD4004F4B1B6803F007038B4208D2CBB24C4A3B
:100DE4001370136803F007038B4240F08B80236871
:100DF40013F0020F17D013F0040F04D0454A936880
:100E040043F4E0539360236813F0080F04D0414A7D
:100E1400936843F4604393603E4A936823F0F0037D
:100E2400A1680B439360236813F0010F32D0636809
:100E3400012B21D09A1E012A25D9364A126812F0B4
:100E4400020F61D033498A6822F0030213438B6096
:100E540000F0F8FA06462F4B9B6803F00C03626817
:100E6400B3EB820F16D000F0EDFA801B41F2883309
:100E74009842F0D9032042E0264A126812F4003F57
:100E8400E0D101203BE0234A126812F0007FD9D15F
:100E9400012034E01E4B1B6803F00703AB4207D963
:100EA400EAB21B4B1A701B6803F00703AB422DD147
:100EB400236813F0040F06D0164A936823F4E05312
:100EC400E1680B439360236813F0080F07D0114ABD
:100ED400936823F46043216943EAC1039360FFF7F5
:100EE4001DFF0C4B9B68C3F303130B4AD35CD84020
:100EF4000A4B18600A4B186800F058FA002070BDBD
:100F0400012070470120FAE70120F8E70120F6E705
:100F1400003C0240003802404C2100080800002038
:100F24000400002030B583B00446036813F0050FB5
:100F34000ED1236813F0020F36D1236813F0080F83
:100F440000F09B80227C4E4BC3F8E021002095E00A
:100F54004C4B00229A6600F075FA05464A4B1B6812
:100F640013F0006F06D000F06DFA431B022BF5D985
:100F7400032083E06268A3681B0743EA8213424AA2
:100F8400C2F884303F4B01229A6600F05BFA0546B2
:100F94003D4B1B6813F0006FCBD100F053FA401B9C
:100FA4000228F5D9032069E000230193364B1A6C1B
:100FB40042F080521A641B6C03F080530193019B2E
:100FC400324A136843F48073136000F03BFA054619
:100FD4002E4B1B6813F4807F06D100F033FA431BB9
:100FE400022BF5D9032049E0274B1B6F13F4407300
:100FF40014D0E26802F440729A420FD0224B1A6F66
:1010040022F440721F490120C1F8400E0020C1F8AB
:10101400400E1A671B6F13F0010F12D1E36803F43B
:101024004072B2F5407F1DD0174A936823F4F81339
:10103400936015490B6FE268C2F30B0213430B670D
:101044007BE700F0FFF905460F4B1B6F13F0020F0F
:10105400E4D100F0F7F9401B41F288339842F3D908
:1010640003200BE008498A6822F4F81223F0704345
:1010740023F4407313438B60DBE7002003B030BDDF
:101084000010474200004742003802400070004010
:10109400012801D000207047164B9B6813F400030D
:1010A40003D0012B23D114487047124B5B6813F40F
:1010B400800F14D00F4B5A6802F03F020F4BB3FB62
:1010C400F2F30C4AD2F88400C0F3881003FB00F05A
:1010D400D2F88430C3F30273B0FBF3F07047054BCE
:1010E4005A6802F03F02064BB3FBF2F3E9E7002033
:1010F400704700BF003802400080BB0040787D018B
:101104000024F40000230F2B00F2D78070B582B0C6
:1011140065E085684FEA430E032404FA0EF425EAD9
:101124000405CC6804FA0EF42C438460446824EA71
:1011340002044A68C2F300129A40224342605CE00F
:10114400DC08083450F8242003F00705AD004FF004
:101154000F0E0EFA05FE22EA0E0E0A69AA4042EAB2
:101164000E0240F824205CE0042200E0002202FA8F
:101174000EF22A430234514D45F82420504A946813
:101184006FEA0C0224EA0C054E6816F4801F01D0A5
:101194004CEA04054A4CA560E46802EA04054E687A
:1011A40016F4001F01D04CEA0405454CE560646860
:1011B40002EA04054E6816F4003F01D04CEA040527
:1011C4003F4C6560246822404D6815F4803F01D08F
:1011D4004CEA04023A4C226001330F2B6BD80122F3
:1011E4009A400C6804EA020C32EA0404F4D14C6814
:1011F40004F00304013C012C8BD94A6802F0030279
:10120400032A09D0C4685D000322AA4024EA020428
:101214008A68AA402243C2604A6802F00302022A92
:101224008ED004684FEA430E032202FA0EF224EA37
:1012340002044A6802F0030202FA0EF22243026038
:101244004A6812F4403FC7D0002201921D4A546CF0
:1012540044F480445464526C02F480420192019A32
:101264009C08A51C154A52F8255003F0030E4FEABA
:101274008E0E0F2202FA0EF225EA0205124A90425D
:101284003FF474AF02F5806290420ED002F58062A2
:1012940090420CD002F5806290420AD002F580623E
:1012A40090423FF461AF072261E701225FE7022227
:1012B4005DE703225BE702B070BD70470038014070
:1012C400003C014000380240000002400AB1816144
:1012D4007047090481617047002808DB0901C9B21D
:1012E40000F1604000F5614080F80013704700F0A1
:1012F4000F000901C9B2014B1954704714ED00E005
:1013040000B500F00700C0F1070CBCF1040F28BFC2
:101314004FF0040C031D062B0FD9C31E4FF0FF3EE4
:101324000EFA0CF021EA000199400EFA03FE22EABB
:101334000E0241EA02005DF804FB0023EEE7000020
:10134400074AD36823F4E0631B041B0C000200F477
:10135400E060034343F0BF6343F40033D36070475A
:1013640000ED00E010B50446054BD868C0F3022038
:10137400FFF7C6FF01462046FFF7AEFF10BD00BFD2
:1013840000ED00E00138B0F1807F0BD24FF0E02394
:101394005861054AF02182F8231000209861072241
:1013A4001A6170470120704700ED00E010B5044653
:1013B4000E4B1A784FF47A73B3FBF2F30C4A1068AD
:1013C400B0FBF3F0FFF7DEFF68B90F2C01D9012061
:1013D4000AE0002221464FF0FF30FFF7C3FF054B20
:1013E4001C60002000E0012010BD00BF00000020B0
:1013F400080000200400002008B50B4B1A6842F4D2
:1014040000721A601A6842F480621A601A6842F420
:1014140080721A600320FFF793FF0F20FFF7C6FFC7
:10142400FEF768FF002008BD003C0240034A116833
:10143400034B1B780B441360704700BF2800002047
:1014440000000020014B1868704700BF28000020EE
:1014540038B50446FFF7F6FF0546B4F1FF3F02D066
:10146400044B1B781C44FFF7EDFF401BA042FAD34A
:1014740038BD00BF00000020034AD2F8883043F48E
:101484007003C2F88830704700ED00E070B58AB090
:1014940005AD0024059406940794089409940194D6
:1014A4001D4B1A6B42F004021A631A6B02F0040219
:1014B4000192019A02941A6B42F080021A631A6B29
:1014C40002F080020292029A03941A6B42F0010223
:1014D4001A631A6B02F001020392039A04941A6BC2
:1014E40042F002021A631B6B03F002030493049B91
:1014F4000A4E22464FF400513046FFF7E7FE4FF400
:101504000053059301230693079408942946304613
:10151400FFF7F8FD0AB070BD003802400008024031
:1015240008B50B480B4B03604FF400734360002372
:101534008360C36003614FF4FA5242618361C36103
:101544000362FEF7F3FE00B908BDFEF75BFEFBE79E
:101554002C0000200038004000B58DB00023079314
:10156400089309930A930B930293039304930593AB
:10157400069302681B4B9A4202D00DB05DF804FB3F
:1015840001230293C02303930223049302A8FFF7C9
:10159400C9FC18BB00220092134B196C41F4804122
:1015A4001964196C01F48041009100990192196B3E
:1015B40041F0020119631B6B03F002030193019BC9
:1015C4004FF4144307930223089309920A920523C4
:1015D4000B9307A90548FFF795FDCEE7FEF712FE2A
:1015E400D8E700BF00380040003802400004024041
:1015F40008B50D480D4B03604FF48273436000231C
:101604008360C360036143614FF400728261C3610C
:101614000362436283620A23C36200F0D9F800B90B
:1016240008BDFEF7EFFDFBE7740000200030014029
:1016340000B589B00023039304930593069307939D
:101644000268154B9A4202D009B05DF804FB0021F0
:10165400019103F584335A6C42F480525A645A6CF3
:1016640002F480520192019A02911A6B42F0010233
:101674001A631B6B03F001030293029BF023039391
:1016840002230493032306930523079303A9034822
:10169400FFF738FDD8E700BF0030014000000240EA
:1016A4002DE9F04782B00546884617461E46FFF7E7
:1016B400C9FE0A9B1B1A03EB0609FFF7C3FE824609
:1016C400284B1B68C3F3CB3309FB03F301932B684B
:1016D4009C6838EA04040CBF01230023BB423DD0BC
:1016E400B6F1FF3FF3D0FFF7ADFEA0EB0A0048458B
:1016F40007D2019A02B14A46019B013B01939146EC
:10170400E5E72A68536823F0E00353606B68B3F598
:10171400827F0BD0AB6AB3F5005F14D0012385F848
:101724005130002385F85030032018E0AB68B3F53E
:10173400004F02D0B3F5806FECD12A68136823F010
:1017440040031360E6E72A68136823F40053136028
:101754002A68136843F400531360DFE7002002B0E3
:10176400BDE8F0870800002010B584B00446164B8D
:101774001868164BA3FB0030400D4FF47A7303FB3B
:1017840000F003906368B3F5827F0BD0039BBBB179
:10179400039B013B039323689B6813F0800FF5D1EF
:1017A40000200EE000920B46002280212046FFF725
:1017B40077FF30B1636D43F020036365032000E0DD
:1017C400002004B010BD00BF08000020819F5E16F9
:1017D40000285AD010B50446436A33B94368B3F5B8
:1017E400827F05D00023C36102E0002303614361CB
:1017F4000023A36294F85130002B40D0022384F8D4
:1018040051302268136823F040031360636803F4C3
:101814008273A26802F404421343E26802F4006291
:101824001343226902F002021343626902F00102C7
:101834001343A26902F400721343E26902F038020E
:101844001343226A02F080021343A26A02F4005294
:10185400216813430B60638B03F00403626A02F094
:101864001002216813434B602268D36923F4006398
:10187400D36100206065012384F8513010BD84F8E1
:1018840050302046FFF7D4FEB8E7012070472DE919
:10189400F04383B004460A9D90F85000012800F0FC
:1018A40014810F4690469946012384F85030FFF77F
:1018B400C9FD064694F85100C2B2636801280AD0F3
:1018C400B3F5827F40F0E780A368002B40F0ED8001
:1018D400042A40F0EC80002F00F0EB80B8F1000FF8
:1018E40000F0E980B9F1000F00F0E78094F851307E
:1018F400042B02D0052384F8513000236365C4F817
:101904003880A4F83E90A4F83C902763A4F836905D
:10191400A4F834902364636423681A6812F0400FB7
:1019240003D11A6842F040021A60E368B3F5006F0D
:1019340012D0636813B1B9F1010F0BD1226B236884
:1019440012781A73236B01332363E38E9BB2013B3A
:101954009BB2E38601276CE0636813B1B9F1010F10
:101964000BD1226B23681288DA60236B0233236362
:10197400E38E9BB2013B9BB2E38601271CE0236804
:101984009A6812F0010F0ED0E28F92B25AB1DA685F
:10199400A36B1A80A36B0233A363E38F9BB2013B57
:1019A4009BB2E3870127FFF74DFD801BA84203D3B9
:1019B400B5F1FF3F40F08380E38E9BB21BB9E38F08
:1019C4009BB2002B53D023689A6812F0020FD6D032
:1019D400E28E92B2002AD2D0002FD0D0226B12888D
:1019E400DA60236B02332363E38E9BB2013B9BB229
:1019F400E3860027C3E723689A6812F0010F0ED02C
:101A0400E28F92B25AB1DA68A36B1A70A36B0133F6
:101A1400A363E38F9BB2013B9BB2E3870127FFF7EC
:101A240011FD831BAB4202D3B5F1FF3F49D1002D19
:101A340049D0E38E9BB213B9E38F9BB2BBB1236849
:101A44009A6812F0020FD6D0E28E92B2002AD2D057
:101A5400002FD0D0226B12781A73236B01332363C7
:101A6400E38E9BB2013B9BB2E3860027C3E7324679
:101A740029462046FFF778FE48B9A36863B9019365
:101A84002368DA6801929B680193019B04E0202398
:101A94006365012000E00220012384F85130002313
:101AA40084F8503003B0BDE8F0830220F4E702204C
:101AB400F2E70120F0E70120EEE70120ECE7032044
:101AC400EAE70320E8E70320E6E70220EAE700006C
:101AD400DFF834D00D480E490E4A002302E0D458F2
:101AE400C4500433C4188C42F9D30B4A0B4C002362
:101AF40001E013600432A242FBD3FFF7BDFC00F007
:101B04008FF9FEF7D3FB704700000120000000208E
:101B14000C0000206C2100080C000020CC000020E8
:101B2400FEE701604260038100238372704700B5C1
:101B340087B08DF80F10FF238DF8173000684FF031
:101B4400FF33009301230DF117020DF10F01FFF78D
:101B54009EFE9DF8170007B05DF804FB08B500224F
:101B640001894068FFF7B2FB08BD10B504460122A5
:101B740001894068FFF7AAFBFF212046FFF7D7FF42
:101B840010BD38B50546FFF7F0FF002404E0FF213F
:101B94002846FFF7CCFF0134092CF8DD38BD38B5F1
:101BA40005460024072C08DCFF212846FFF7BFFF69
:101BB40010F0800F02D00134F4E7FF2038BDF8B5EF
:101BC40004460F4615461E46FFF7C8FF47F040017E
:101BD4002046FFF7ACFF290E2046FFF7A8FFC5F308
:101BE40007412046FFF7A3FFC5F307212046FFF76F
:101BF4009EFFE9B22046FFF79AFF31462046FFF7E1
:101C040096FF2046FFF7CBFFF8BDF8B505460E4614
:101C14001746FF2300223721FFF7D1FF0446284649
:101C2400FFF7A3FF012C01D92046F8BDFF233A4654
:101C340031462846FFF7C3FF0446F5E770B582B086
:101C44000646002585720A20FFF702FC3046FFF79E
:101C540098FFFF24092D10DC9523002211463046FD
:101C6400FFF7ADFF04463046FFF77FFF012C04D099
:101C74000A20FFF7EDFB0135ECE7012C02D0002030
:101C840002B070BD87234FF4D57208213046FFF7A8
:101C940096FF054601AC05E0FF213046FFF747FFFC
:101CA40004F8010B02AB9C42F6D13046FFF75DFF0E
:101CB400012D3BD19DF80630012B39D19DF8073019
:101CC400AA2B37D10024B4F57A7F0FDA4FF0804283
:101CD40029213046FFF799FF05463046FFF745FFB7
:101CE40025B10120FFF7B4FB0134ECE70DB100206E
:101CF400C6E7FF2300223A213046FFF760FF05467E
:101D04006C4605E0FF213046FFF711FF04F8010B94
:101D140001AB9C42F6D13046FFF727FF65B99DF829
:101D24000030C3F38013B3720120A9E70020A7E7B2
:101D34000020A5E70020A3E70020A1E7EAB370B5DF
:101D440005461646837A03B94902FF230A46112140
:101D54002846FFF734FF60B90024FF20184B9C424B
:101D64000CD8FF212846FFF7E2FEFE2806D00134F6
:101D7400F4E72846FFF7F9FE00201DE0FE2801D114
:101D840000240AE02846FFF7F0FE002014E0FF21BB
:101D94002846FFF7CCFE30550134B4F5007FF6DB5E
:101DA400FF212846FFF7C3FEFF212846FFF7BFFEA9
:101DB4002846FFF7DAFE012070BD0020704700BFFF
:101DC4009F86010008B500F001F808BDB0B100B568
:101DD400ADF5057D81AC0389426801682046FFF7B3
:101DE400A0FE2046FFF72AFF8DF803009DF803307C
:101DF4002BB99DF8033003B100BEFEE7FEE701AA4C
:101E040000212046FFF79AFF8DF80300F1E7024412
:101E14000346934200D1704703F8011BF9E7000021
:101E240070B50D4B0D4D5B1B9C100026A64209D1CD
:101E340000F078F90A4D0B4B5B1B9C100026A64260
:101E440005D170BD55F8043B98470136EEE755F8C7
:101E5400043B98470136F2E7642100086421000836
:101E640064210008682100082DE9F0478C468E465D
:101E7400089E154604461946002B40F0D080724552
:101E840047D9B2FA82F74FB1C7F120030EFA07FC23
:101E940020FA03F3BD4043EA0C0CBC404FEA154E54
:101EA400A8B2BCFBFEF8230C0EFB18CC08FB00F90F
:101EB40043EA0C43994528D9EB1808F1FF3204D2C0
:101EC400994502D9A8F102022B44A3EB0903A4B259
:101ED400B3FBFEFC0EFB1C330CFB00F044EA034492
:101EE400A04214D92C190CF1FF3304D2A04202D918
:101EF400ACF102032C44241A43EA02401EB1FC4014
:101F0400002334607360BDE8F0874246DDE7634632
:101F1400F1E7002A79D0B2FA82F3002B3FD01946B8
:101F2400C1F1200302FA01F52EFA03F20EFA01FEC2
:101F340020FA03F343EA0E034FEA154E00FA01F4C4
:101F4400B2FBFEFCAFB20EFB1C201A0C0CFB07F814
:101F540042EA004290455AD9AA180CF1FF3004D243
:101F6400904502D9ACF102002A44A2EB08029BB2CC
:101F7400B2FBFEFC0EFB1C220CFB07F743EA0243F8
:101F84009F4246D9EB180CF1FF3204D29F4202D98A
:101F9400ACF102022B44DB1B42EA004202E0AEEB4E
:101FA400020301224FEA154EAFB2B3FBFEFC200C34
:101FB4000EFB1C330CFB07F840EA034398452AD96F
:101FC400EB180CF1FF3004D2984502D9ACF10200B1
:101FD4002B44A3EB0803A4B2B3FBFEFC0EFB1C339F
:101FE4000CFB07F744EA0344A74216D92C190CF159
:101FF400FF3304D2A74202D9ACF102032C44E41B00
:1020040043EA00400F46114678E71F2188E76046FF
:10201400ABE76246BFE76046DBE76346EFE773453D
:1020240006D916B9002108466DE7C6E9000EF9E79E
:10203400B3FA83F787B9734501D3824207D8841A68
:102044006EEB030301209C461EB900215BE7384672
:10205400FAE7C6E9004CF8E7C7F1200CBB4022FAC6
:102064000CF51D4320FA0CF12EFA0CF30EFA07FEC0
:1020740041EA0E014FEA154900FA07F4B3FBF9F8F7
:102084001FFA85FE09FB18300B0C08FB0EFA43EA15
:1020940000439A4502FA07F240D9EB1808F1FF30E1
:1020A40004D29A4502D9A8F102002B44A3EB0A03F7
:1020B40089B2B3FBF9F809FB183308FB0EFE41EAB9
:1020C40003418E452CD9691808F1FF3304D28E459B
:1020D40002D9A8F10203294443EA0040A0FB029874
:1020E400A1EB0E014145CE46434602D306D14C45F1
:1020F40004D2B9EB020E68EB05030138002EA4D01C
:10210400B4EB0E0261EB030101FA0CFC22FA07F3B3
:102114004CEA0303F940C6E9003196E74046C5E7B7
:102124004346D9E7F8B500BFF8BC08BC9E467047E3
:0C213400F8B500BFF8BC08BC9E46704720
:1021400074000020000002401000000000000000A9
:0C2150000000000001020304060708095B
:08215C0010FDFF7F01000000EF
:04216400ED01000881
:04216800C9010008A1
:0C216C0001000000100000000024F4003E
:0400000508001AD500
:00000001FF
