:020000040800F2
:1000000000000120791E0008DD020008DF02000860
:10001000E1020008E3020008E50200080000000019
:10002000000000000000000000000000E7020008DF
:10003000E902000800000000EB020008ED020008E1
:10004000C91E0008C91E0008C91E0008C91E0008F4
:10005000C91E0008C91E0008C91E0008C91E0008E4
:10006000C91E0008C91E0008C91E0008C91E0008D4
:10007000C91E0008C91E0008C91E0008C91E0008C4
:10008000C91E0008C91E0008C91E000800000000A3
:10009000000000000000000000000000C91E000871
:1000A000C91E0008C91E0008C91E0008C91E000894
:1000B000C91E0008C91E0008C91E0008C91E000884
:1000C000C91E0008C91E0008C91E0008C91E000874
:1000D000C91E0008C91E0008C91E00080000000053
:1000E000C91E0008C91E0008C91E00080000000043
:1000F000000000000000000000000000C91E000811
:1001000000000000C91E0008C91E0008C91E000822
:1001100000000000000000000000000000000000DF
:10012000C91E0008C91E0008C91E0008C91E000813
:10013000C91E0008000000000000000000000000D0
:10014000000000000000000000000000C91E0008C0
:10015000C91E0008C91E0008C91E0008C91E0008E3
:10016000C91E0008C91E00080000000000000000B1
:10017000000000000000000000000000000000007F
:1001800000000000C91E0008000000000000000080
:04019000C91E00087C
:1001940053B94AB9002908BF00281CBF4FF0FF31EA
:1001A4004FF0FF3000F00CB8ADF1080C6DE904CE4F
:1001B40001F0B6FEDDF804E0DDE9022304B0704787
:1001C400704700BF10B5054C237833B9044B13B105
:1001D4000448AFF300800123237010BD0C000020FD
:1001E40000000000DC21000808B5034B1BB10349E3
:1001F4000348AFF3008008BD000000001000002099
:10020400DC21000872B6FEE710B594B008AC3022C9
:100214000021204601F057FE002303930493059325
:1002240006930793204A516821F03F0141F01901D8
:100234005160516841F4800151600193116C41F0A7
:1002440080511164126C02F080520192019A02935F
:1002540016490A6822F4404242F400420A600A68DD
:1002640002F440420292029A012208924FF4803230
:1002740009920E934FF480030F93204600F03EFB47
:1002840068B90F2303930123049301460590069054
:10029400079003A800F06CFD18B914B010BDFFF767
:1002A400B1FFFFF7AFFF00BF00380240007000400D
:1002B40008B501F06FF8FFF7A7FF01F0DFFB01F0CD
:1002C40027FC01F08BFC01F081FD0021014801F0C5
:1002D4001DFBFEE7CC000020FEE7FEE7FEE7FEE79D
:1002E400FEE770477047704708B501F06DF808BD28
:1002F40082B0002100910B4B5A6C42F480425A6444
:100304005A6C02F480420092009A01911A6C42F0F5
:1003140080521A641B6C03F080530193019B02B05A
:10032400704700BF00380240002800F0C38038B591
:10033400044690F84130002B52D0022284F8412028
:100344002168CB6923F47B6323F00F03CB6123681B
:100354001A62636993426BD0E368002B47D1102380
:100364001D46A368202B01D86B001D46012000F018
:1003740059FE2369B3F5007F3CD0B0FBF5F000EBE8
:10038400800043006269B3FBF2F305334A4AA2FBDF
:100394000323D9081B09090201F480719A1EFD2A5E
:1003A40040D822690A4321681A430A622168CB694A
:1003B40023F47B6323F00F036268A0680243E068C0
:1003C4000243A0690243134343F40063CB61236AED
:1003D400012B2FD000206064012384F8413038BD04
:1003E40080F84030354B436301F0AEFBA5E7202392
:1003F4001D46B6E7E36853B1AB00B0FBF3F000EB86
:10040400800043006269B3FBF2F30533BEE7EB00FF
:10041400B0FBF3F000EB800043006269B3FBF2F33E
:100424000533B3E7636C43F0100363640120D6E73C
:100434000021B6E7224B63632268224B9A4220D004
:100444004FF04022D36923F47B6323F00F03D3617D
:1004540022681C4B9A4216D04FF0402202231362AA
:100464002268184B9A4210D04FF0402CDCF81C3014
:100474009BB26268B2F5007F0AD0CAB94FF48070AB
:1004840008E0114ADEE7104AE8E7DFF83CC0EDE790
:100494004FF48070B4F808E0A189228B40EA0E0082
:1004A40001430A43134343F40063CCF81C3091E73F
:1004B4000020EFE701207047CDCCCCCC3B050008F1
:1004C400290700080038004000340040704708B590
:1004D400426A03681288DA60436A02334362438DD6
:1004E400013B4385438D03B108BD0268536823F083
:1004F400A0035360012380F84130FFF7E7FFF3E7DF
:10050400704708B50368DA68C36A1A80C36A02339D
:10051400C362438E013B4386438E03B108BD026828
:10052400536823F060035360012380F84130FFF7E0
:10053400E7FFF3E7704710B584B0044603689A6890
:10054400039290F84120042A05D094F84130032BFB
:100554002CD004B010BD039A12F0010F03D05B68D5
:1005640013F0400F1FD1039B13F0400FEDD023680D
:100574005A6812F0200FE8D05A6822F060025A60DC
:10058400002301932368DA6801929B680193019B1D
:10059400012384F84130636C43F002036364204612
:1005A400FFF7C8FFD1E7FFF7ACFFDCE7039B13F0CD
:1005B400020F04D023685B6813F0800F1DD1039BE6
:1005C40013F0080FC5D023685A6812F0200FC0D06A
:1005D4005A6822F0A0025A600023029323689B68A1
:1005E4000293029B012384F84130636C43F00403BB
:1005F40063642046FFF79EFFABE72046FFF767FFE3
:10060400DDE7704708B5436A9A1C426202681B889A
:10061400D360438D013B4385438D33B902685368EE
:1006240023F0A0035360438E03B108BD012380F877
:100634004130FFF7E6FFF8E708B50268134B9A422A
:1006440018D04FF04023DA68C36A991CC1621A803B
:10065400438E013B4386438E5BB902680B4B9A423F
:100664000BD04FF04022536823F060035360438D56
:100674002BB108BDA3F58063E5E7054AF3E7012341
:1006840080F84130FFF7BDFFF3E700BF00380040BA
:100694000034004008B5436A9A1C42621A88016813
:1006A400114B994214D04FF04023DA60438D013B43
:1006B4004385438D5BB902680B4B9A420BD04FF0D4
:1006C4004022536823F0A0035360438E2BB108BD2E
:1006D400A3F58063E9E7054AF3E7012380F8413095
:1006E400FFF78FFFF3E700BF0038004000340040FD
:1006F40008B50368DA68C36A991CC1621A80438E1C
:10070400013B4386438E33B90268536823F0600388
:100714005360438D03B108BD012380F84130FFF7D6
:1007240070FFF8E710B586B0044603689A6805922E
:10073400704A93426FD04FF04022916804915B68F5
:100744000393536802936368B3F5007F01D0002BD1
:1007540070D1059B13F0020F03D0039B13F0800F9D
:100764005CD1049B13F0010F03D0029B13F0400FE4
:1007740058D1049B13F0400F24D0029B13F0200F98
:1007840020D022685B4B9A4250D04FF040225368ED
:1007940023F0600353602268536823F0A00353607E
:1007A400002300932368DA6800929B680093009BFF
:1007B400012384F84130636C43F0020363642046F0
:1007C400FFF7B8FE059B13F0080F22D0039B13F02C
:1007D400200F1ED02268536823F0A00353602268C0
:1007E400444B9A4224D04FF04022536823F06003D4
:1007F40053600023019323689B680193019B0123A9
:1008040084F84130636C43F0040363642046FFF7CB
:1008140091FE06B010BDA2F580628EE72046FFF778
:10082400F1FE9EE72046FFF707FFA2E7324AAEE754
:10083400314ADAE7049B13F0020F03D0029B13F052
:10084400800F4AD1059B13F0010F03D0039B13F0D3
:10085400400F46D1059B13F0400F1CD0039B13F0AF
:10086400200F18D02268536823F060035360226875
:10087400204B9A4239D04FF04022536823F0A00312
:100884005360012384F84130636C43F002036364D2
:100894002046FFF74FFE049B13F0080FB9D0029BCC
:1008A40013F0200FB5D02268124B9A421FD04FF09C
:1008B4004022536823F0A00353602268536823F056
:1008C40060035360012384F84130636C43F00403F4
:1008D40063642046FFF72EFE9BE72046FFF7DAFE0F
:1008E400B0E72046FFF704FFB4E7034AC5E7024A2E
:1008F400DFE700BF0038004000340040002800F06B
:10090400DC8170B582B00446036813F0010F3BD05C
:10091400984B9B6803F00C03042B2DD0954B9B68DC
:1009240003F00C03082B22D06368B3F5803F4ED04C
:10093400B3F5A02F51D08F4B1A6822F480321A607D
:100944001A6822F480221A606368002B4FD000F0EA
:1009540047FD0546874B1B6813F4003F14D100F094
:100964003FFD401B6428F5D97BE001207AE0814BF0
:100974005B6813F4800FD7D07E4B1B6813F4003FE1
:1009840002D06368002BF0D0236813F0020F51D01B
:10099400784B9B6813F00C0F3CD0764B9B6803F0AC
:1009A4000C03082B31D0E368002B66D0724B012274
:1009B4001A6000F015FD05466E4B1B6813F0020F1C
:1009C40052D100F00DFD401B0228F5D949E0694AD7
:1009D400136843F480331360B6E7664B1A6842F435
:1009E40080221A601A6842F480321A60ACE700F080
:1009F400F7FC05465F4B1B6813F4003FC4D000F0BE
:100A0400EFFC401B6428F5D92BE05A4B5B6813F4C8
:100A1400800FC8D1574B1B6813F0020F02D0E36854
:100A2400012BA2D1534A136823F0F803216943EA46
:100A3400C1031360236813F0080F41D063696BB3DB
:100A44004D4B0122C3F8802E00F0CAFC0546494BE9
:100A54005B6F13F0020F33D100F0C2FC401B02287D
:100A6400F5D9032002B070BD424A136823F0F8039D
:100A7400216943EAC1031360DCE73F4B00221A609B
:100A840000F0AEFC05463B4B1B6813F0020FD1D0BF
:100A940000F0A6FC401B0228F5D9E2E7364B002201
:100AA400C3F8802E00F09CFC0546324B5B6F13F0BC
:100AB400020F05D000F094FC401B0228F5D9D0E7C2
:100AC400236813F0040F76D02A4B1B6C13F0805F5D
:100AD40033D100230193274B1A6C42F080521A64DD
:100AE4001B6C03F080530193019B01231E46234B8F
:100AF4001B6813F4807F23D0A368012B33D0052B0C
:100B04003ED01C4B1A6F22F001021A671A6F22F0B2
:100B140004021A67A368002B3CD000F061FC054670
:100B2400144B1B6F13F0020F44D100F059FC401B0F
:100B340041F288339842F3D993E700231E46D6E75F
:100B44000E4A136843F48073136000F049FC0546B1
:100B54000A4B1B6813F4807FCED100F041FC401B8C
:100B64000228F5D97DE7034A136F43F001031367A5
:100B7400D0E700BF00380240000047420070004048
:100B84004F4B1A6F42F004021A671A6F42F00102C7
:100B94001A67BFE700F024FC0546494B1B6F13F0AE
:100BA400020F07D000F01CFC401B41F2883398422E
:100BB400F3D956E7DEB9A369002B50D0404A9268B6
:100BC40002F00C02082A4CD0022B16D03D4B002216
:100BD4001A6600F005FC0446394B1B6813F0007FCD
:100BE4003DD000F0FDFB001B0228F5D939E7344A5B
:100BF400136C23F080531364DDE7324B00221A6632
:100C040000F0EEFB05462E4B1B6813F0007F05D069
:100C140000F0E6FB401B0228F5D922E7E369226ACB
:100C24001343626A43EA8213A26A5208013A43EA0E
:100C34000243E26A43EA0263214A5360214B0122E0
:100C44001A6600F0CDFB04461D4B1B6813F0007FB1
:100C540005D100F0C5FB001B0228F5D901E70020EF
:100C640000E7012B3FF481AE154B5B6803F4800170
:100C7400E26991427FF479AE03F03F02216A8A422D
:100C84007FF473AE616A47F6C0721A40B2EB811FFB
:100C94007FF46BAE03F44031A26A5208013AB1EB1F
:100CA400024F7FF462AE03F07063E26AB3EB026F4B
:100CB40001D10020D6E60120D4E60120704700BF10
:100CC400003802400000474208B5264B9B6803F0F9
:100CD4000C03042B41D0082B41D1224B5A6802F05B
:100CE4003F025B6813F4800F12D01E4B5968C1F3A6
:100CF40088111D480023A1FB0001FFF749FA194B95
:100D04005B68C3F3014301335B00B0FBF3F008BD40
:100D1400144B5868C0F388104FEA401CBCEB000C1D
:100D24006EEB0E0E4FEA8E1343EA9C634FEA8C116E
:100D3400B1EB0C0163EB0E03DB0043EA5173C90012
:100D440011EB000C43F10003990200234FEA8C20BD
:100D540041EA9C51FFF71CFAD1E70348D7E703485F
:100D6400D5E700BF0038024040787D010024F4003C
:100D7400002800F0978070B50D4604464A4B1B6866
:100D840003F007038B4206D2474B19701B6803F02C
:100D940007038B4249D1236813F0020F17D013F0D5
:100DA400040F04D0414A936843F4E05393602368EA
:100DB40013F0080F04D03D4A936843F460439360F2
:100DC4003A4A936823F0F003A1680B4393602368C5
:100DD40013F0010F31D06368012B21D09A1E012A30
:100DE40025D9324A126812F0020F1ED02F498A68A0
:100DF40022F0030213438B6000F0F2FA06462B4BF9
:100E04009B6803F00C036268B3EB820F15D000F00B
:100E1400E7FA801B41F288339842F0D9032005E0B9
:100E2400224A126812F4003FE0D1012070BD1F4A2B
:100E3400126812F0007FD9D1F7E71B4B1B6803F04F
:100E44000703AB4206D9184B1D701B6803F0070358
:100E5400AB42EAD1236813F0040F06D0134A936817
:100E640023F4E053E1680B439360236813F0080F05
:100E740007D00E4A936823F46043216943EAC1030F
:100E84009360FFF721FF094B9B68C3F30313084AE0
:100E9400D35CD840074B1860074B186800F056FA2B
:100EA4000020C3E701207047003C024000380240A4
:100EB400F4210008080000200400002030B583B0AD
:100EC4000546036813F0010F02D113F0040F2BD071
:100ED400504B00229A6600F083FA04464E4B1B687E
:100EE40013F0006F07D000F07BFA031B022BF5D937
:100EF400032003B030BD6A68AB681B0743EA821362
:100F0400454AC2F88430434B01229A6600F068FADD
:100F14000446414B1B6813F0006F05D100F060FAE2
:100F2400031B022BF5D9E3E72B6813F0020F09D159
:100F34002B6813F0080F03D02A7C384BC3F8E02148
:100F44000020D6E700230193334B1A6C42F0805201
:100F54001A641B6C03F080530193019B304A13689D
:100F640043F48073136000F03BFA04462C4B1B6877
:100F740013F4807F05D100F033FA001B0228F5D961
:100F8400B6E7254B1B6F13F4407314D0EA6802F4E0
:100F940040729A420FD0204B1A6F22F440721D49BE
:100FA4000120C1F8400E0020C1F8400E1A671B6FE3
:100FB40013F0010F12D1EB6803F44072B2F5407FD5
:100FC4001CD0154A936823F4F813936012490B6FED
:100FD400EA68C2F30B0213430B67A9E700F000FAB7
:100FE40004460D4B1B6F13F0020FE4D100F0F8F927
:100FF400031B41F288329342F3D979E706498A68A0
:1010040022F4F81223F0704323F4407313438B60EB
:10101400DCE700BF000047420038024000104742AE
:1010240000700040012801D000207047134B9B68DA
:1010340013F4000FF8D1114B5B6813F4800F14D034
:101044000E4B5A6802F03F020D4BB3FBF2F30B4A0E
:10105400D2F88400C0F3881003FB00F0D2F8843087
:10106400C3F30273B0FBF3F07047044B5A6802F009
:101074003F02044BB3FBF2F3E9E700BF0038024040
:1010840040787D010024F40070B582B08E460023C0
:1010940069E085684FEA430C032101FA0CF125EA63
:1010A4000105DEF80C1001FA0CF129438160416856
:1010B40021EA0201DEF80420C2F300129A400A4336
:1010C400426064E0D908083150F8212003F0070594
:1010D400AD004FF00F0C0CFA05FC22EA0C0CDEF804
:1010E4001020AA4042EA0C0240F8212066E00422C3
:1010F40000E0002202FA0CF22A430231564D45F870
:101104002120564A9168E24321EA0405DEF804608E
:1011140016F4801F01D044EA010550498D60C96866
:1011240002EA0105DEF8046016F4001F01D044EA67
:1011340001054A49CD60496802EA0105DEF8046008
:1011440016F4003F01D044EA010544494D600968A2
:101154000A40DEF8045015F4803F01D044EA01024D
:101164003E490A6001330F2B74D801229A40DEF8FD
:10117400001001EA020432EA0101F3D1DEF804109E
:1011840001F0030C0CF1FF3CBCF1010F81D9DEF836
:10119400042002F00302032A0AD0C1685D0003227E
:1011A400AA4021EA0201DEF80820AA400A43C260EC
:1011B400DEF8042002F00302022A83D001684FEA19
:1011C400430C032202FA0CF221EA0201DEF80420A5
:1011D40002F0030202FA0CF20A430260DEF8042071
:1011E40012F4403FBED0002201921D4A516C41F4DA
:1011F40080415164526C02F480420192019A990830
:101204008D1C154A52F8255003F0030C4FEA8C0C40
:101214000F2202FA0CF225EA0205124A90423FF428
:1012240068AF02F5806290420ED002F5806290426F
:101234000CD002F5806290420AD002F5806290429E
:101244003FF455AF072255E7012253E7022251E745
:1012540003224FE702B070BD00380140003C01405A
:1012640000380240000002400AB18161704709045D
:1012740081617047002807DB090100F1604000F537
:10128400614080F80013704700F00F000901014B22
:101294001954704714ED00E000B500F00700A0F108
:1012A400030CBCF1040F07D8C0F1070E0430062864
:1012B40006D84FF0000C03E04FF0040E4FF0000C82
:1012C4004FF0FF3303FA0EF021EA000101FA0CF1AA
:1012D40003FA0CF322EA030241EA020000BD000013
:1012E400074AD36823F4E0631B041B0C000200F4D8
:1012F400E060034343F0BF6343F40033D3607047BB
:1013040000ED00E010B50446054BD868C0F3022098
:10131400FFF7C2FF01462046FFF7ACFF10BD00BF38
:1013240000ED00E00138B0F1807F0BD24FF0E023F4
:101334005861054AF02182F82310002098610722A1
:101344001A6170470120704700ED00E010B50446B3
:101354000D4B18680D4B1A784FF47A73B3FBF2F304
:10136400B0FBF3F0FFF7DEFF08B90F2C01D9012021
:1013740010BD024621464FF0FF30FFF7C3FF044B78
:101384001C600020F4E700BF0800002000000020DB
:101394000400002008B50B4B1A6842F400721A606E
:1013A4001A6842F480621A601A6842F480721A6001
:1013B4000320FFF795FF0F20FFF7C8FFFEF798FF04
:1013C400002008BD003C0240034A1168034B1B780F
:1013D4000B441360704700BF280000200000002069
:1013E400014B1868704700BF2800002010B5036A3D
:1013F40023F001030362026AD0F804E0836923F056
:1014040073030C6844EA030C22F002028B68134352
:101414000E4A90420AD00D4A90420ED0C0F804E021
:10142400C0F818C04A684263036210BD23F0080381
:10143400CA681A4322F00403EDE72EF4407E4A6999
:1014440042EA0E028C6944EA020EE7E7000001401A
:1014540010B5036A23F480730362036AD0F804C0EE
:10146400C26922F073020C6844EA020E23F400738A
:101474008A6843EA02230F4A90420AD00D4A9042F6
:101484000FD0C0F804C0C0F81CE04A68C26303620D
:1014940010BD23F40063CA6843EA022323F4806383
:1014A400ECE72CF4405C4A694CEA021C8A694CEA79
:1014B400021CE6E70000014010B5036A23F48053E0
:1014C4000362036AD0F804C0C26922F4E6420C68DD
:1014D40042EA042223F400538C6843EA0433DFF81D
:1014E40020E0704506D0C0F804C0C2614A680264B6
:1014F400036210BD2CF4804C4C694CEA841CF2E766
:1015040000000140036AD0F820C02CF0010CC0F8A0
:1015140020C0D0F818C02CF0F00C4CEA021223F0D2
:101524000A030B43826103627047036A23F01003CA
:101534000362D0F818C0036A2CF4704C4CEA0232EF
:1015440023F0A00343EA01138261036270478368B6
:1015540023F070030B4343F0070383607047704725
:101564000368254A90420ED0B0F1804F0BD0A2F50B
:101574007C42904207D002F58062904203D002F58B
:101584008062904203D123F070034A6813431A4ADD
:1015940090421AD0B0F1804F17D0A2F57C4290420D
:1015A40013D002F5806290420FD002F5806290421F
:1015B4000BD002F59A32904207D002F58062904235
:1015C40003D002F58062904203D123F44073CA68C9
:1015D400134323F080034A69134303608B68C36297
:1015E4000B688362044B984202D001234361704725
:1015F4000B690363F9E700BF0000014040B310B575
:10160400044690F83D30F3B1022384F83D3021467E
:1016140051F8040BFFF7A4FF012384F8463084F843
:101624003E3084F83F3084F8403084F8413084F808
:10163400423084F8433084F8443084F8453084F8E8
:101644003D30002010BD80F83C3000F07DFBDBE72E
:101654000120704740B310B5044690F83D30F3B113
:10166400022384F83D30214651F8040BFFF778FF3C
:10167400012384F8463084F83E3084F83F3084F8FF
:10168400403084F8413084F8423084F8433084F8A0
:10169400443084F8453084F83D30002010BD80F893
:1016A4003C30FFF75CFFDBE70120704710B5036AAD
:1016B40023F010030362036AD0F804C0826922F4A1
:1016C400E6420C6842EA042223F020038C6843EAD1
:1016D4000413DFF840E070450AD0DFF838E07045C5
:1016E4000ED0C0F804C082614A688263036210BDF0
:1016F40023F08003CC6843EA041323F04003ECE7AF
:101704002CF4406C4C694CEA840C8C694CEA840CD3
:10171400E7E700BF0000014038B590F83C30012BEA
:1017240066D00446012380F83C300C2A5BD8DFE8FD
:1017340002F0075A5A5A1C5A5A5A315A5A5A4500F0
:101744000D460068FFF752FE2268936943F00803D0
:1017540093612268936923F0040393612268936977
:1017640029690B43936100203EE00D460068FFF7B2
:101774009DFF2268936943F400639361226893692F
:1017840023F48063936122689369296943EA0123FE
:101794009361E8E70D460068FFF75AFE2268D369B3
:1017A40043F00803D3612268D36923F00403D361AF
:1017B4002268D36929690B43D361D4E70D460068D5
:1017C400FFF77AFE2268D36943F40063D361226889
:1017D400D36923F48063D3612268D369296943EA16
:1017E4000123D361BFE70120002384F83C3038BDD6
:1017F4000220FCE7D0F808C02CF47F4C42EA032214
:101804000A4342EA0C028260704790F83C30012B94
:101814006BD010B50446012380F83C30022380F8D5
:101824003D300268936823F47F4323F07703936089
:101834000B68602B45D01DD8402B4CD00ED8202BE4
:1018440003D007D80BB1102B06D119462068FFF737
:101854007EFE22E0302BF8D001201FE0502BFBD17C
:10186400CA6849680068FFF74DFE50212068FFF7F9
:101874006EFE12E0B3F5805F0FD0B3F5005F14D0B5
:10188400702BE9D1CB684A6889680068FFF7B2FF1A
:101894002268936843F0770393600020012384F85F
:1018A4003D30002384F83C3010BDCB684A68896819
:1018B4000068FFF79FFF2268936843F480439360B6
:1018C400EBE7CA6849680068FFF72FFE60212068CB
:1018D400FFF73DFEE1E7CA6849680068FFF712FEBA
:1018E40040212068FFF733FED7E70220704701F05C
:1018F4001F014FF0010C0CFA01FC036A23EA0C03EC
:101904000362036A8A4013430362704710B50446B6
:10191400084681BB94F83E30013B18BF0123002BDD
:101924005FD100283DD1022384F83E3001220146D4
:101934002068FFF7DCFF23682B4A934241D02368D9
:10194400294A934242D0B3F1804F3FD0A2F57C4262
:1019540093423BD002F58062934237D002F5806215
:10196400934233D002F59A3293422FD01A6842F050
:1019740001021A6033E0042907D008290BD094F837
:101984004130013B18BF0123C9E794F83F30013BC4
:1019940018BF0123C3E794F84030013B18BF01236B
:1019A400BDE7042805D0082807D0022384F8413075
:1019B400BCE7022384F83F30B8E7022384F84030C0
:1019C400B4E75A6C42F400425A64B8E79A6802F0E9
:1019D4000702062A03D01A6842F001021A600020A6
:1019E40010BD0120FCE700BF0000014090F83C203E
:1019F400012A35D000B50346012280F83C2002229A
:101A040080F83D2002685068D2F808E020F0700C9D
:101A1400086840EA0C0050601A681248824212D0EA
:101A2400B2F1804F0FD0A0F57C4082420BD000F57C
:101A34008060824207D000F58060824203D000F5C6
:101A44009A30824205D12EF0800E496841EA0E0197
:101A54009160012283F83D20002083F83C0000BD02
:101A64000220704700000140034AD2F8883043F452
:101A74007003C2F88830704700ED00E070B58AB09A
:101A840005AD0024059406940794089409940194E0
:101A94001D4B1A6B42F004021A631A6B02F0040223
:101AA4000192019A02941A6B42F080021A631A6B33
:101AB40002F080020292029A03941A6B42F001022D
:101AC4001A631A6B02F001020392039A04941A6BCC
:101AD40042F002021A631B6B03F002030493049B9B
:101AE4000A4E22464FF400513046FFF7BDFB4FF437
:101AF400005305930123069307940894294630461E
:101B0400FFF7C2FA0AB070BD003802400008024074
:101B140008B50B480B4B03604FF40073436000237C
:101B24008360C36003614FF4FA5242618361C3610D
:101B34000362FEF7F9FB00B908BDFEF763FBFBE7A0
:101B44002C0000200038004000B58DB0002307931E
:101B5400089309930A930B930293039304930593B5
:101B6400069302681A4B9A4201D00DB000BD0123BE
:101B74000293C02303930223049302A8FFF79EF960
:101B840018BB00220092134B196C41F48041196474
:101B9400196C01F48041009100990192196B41F094
:101BA400020119631B6B03F002030193019B4FF4C1
:101BB400144307930223089309920A9205230B9373
:101BC40007A90548FFF760FACFE7FEF71BFBD8E744
:101BD40000380040003802400004024008B50D48B7
:101BE4000D4B03604FF48273436000238360C36032
:101BF400036143614FF400728261C3610362436213
:101C040083620A23C36200F03FF800B908BDFEF7FF
:101C1400F9FAFBE7740000200030014000B589B0F8
:101C24000023039304930593069307930268144BCC
:101C34009A4201D009B000BD0021019103F584331B
:101C44005A6C42F480525A645A6C02F480520192E3
:101C5400019A02911A6B42F001021A631B6B03F0A2
:101C640001030293029BF0230393022304930323AF
:101C740006930523079303A90248FFF705FAD9E75A
:101C8400003001400000024000285AD010B504463C
:101C9400436A33B94368B3F5827F05D00023C36137
:101CA40002E00023036143610023A36294F85130EE
:101CB400002B40D0022384F851302268136823F0AB
:101CC40040031360636803F48273A26802F404425D
:101CD4001343E26802F400621343226902F0020231
:101CE4001343626902F001021343A26902F4007211
:101CF4001343E26902F038021343226A02F08002BD
:101D04001343A26A02F40052216813430B60638BED
:101D140003F00403626A02F01002216813434B606B
:101D24002268D36923F40063D36100206065012332
:101D340084F8513010BD84F850302046FFF76EFF10
:101D4400B8E70120704700000268094B9A4200D0AE
:101D5400704782B000230193064B1A6C42F00402D0
:101D64001A641B6C03F004030193019B02B07047D7
:101D7400000800400038024000B587B000230193FA
:101D8400029303930493059302680D4B9A4201D086
:101D940007B000BD002300930A4B1A6B42F0020205
:101DA4001A631B6B03F002030093009B402301930F
:101DB40002230293059301A90348FFF765F9E7E7B6
:101DC40000080040003802400004024000B58FB013
:101DD40000230A930B930C930D9308930993019397
:101DE4000293039304930593069307931F48204A91
:101DF4000260436083607C22C26003618361FFF7F9
:101E0400FDFB20BB4FF480530A930AA91748FFF740
:101E1400FCFCF8B91548FFF71DFCF0B90023089342
:101E2400099308A91148FFF7E1FDC8B9602301939C
:101E34003E23029300220392059201A90B48FFF767
:101E44006BFC80B90948FFF797FF0FB000BDFEF7A0
:101E5400D9F9D7E7FEF7D6F9DCE7FEF7D3F9DDE7E2
:101E6400FEF7D0F9E2E7FEF7CDF9EBE7CC0000206E
:101E740000080040DFF834D00D480E490E4A002314
:101E840002E0D458C4500433C4188C42F9D30B4A2A
:101E94000B4C002301E013600432A242FBD3FFF792
:101EA400E3FD00F019F8FEF703FA70470000012083
:101EB400000000200C000020142200080C00002068
:101EC40014010020FEE702440346934200D1704708
:101ED40003F8011BF9E7000070B50D4B0D4C00260B
:101EE4001D1BB6EBA50F09D100F076F90A4C0B4B7C
:101EF40000261D1BB6EBA50F05D170BD54F8043B9D
:101F040098470136EDE754F8043B98470136F1E76A
:101F14000C2200080C2200080C22000810220008E1
:101F24002DE9F047089F154604468E461E46002BB1
:101F340040F0D2808A424DD9B2FA82FCBCF1000F43
:101F440002FA0CF3CCF1200E18BF1D4620FA0EFE47
:101F540001FA0CF34EEA030E00FA0CF30CBF8E46A2
:101F64001C464FEA1548A8B2BEFBF8F1220C08FB48
:101F740011EE01FB00F342EA0E42934206D9AA187D
:101F840001F1FF3E01D293421ED87146D21AA4B287
:101F9400B2FBF8F308FB1322584344EA0244A0427C
:101FA40006D92C1903F1FF3201D2A0420FD81346EF
:101FB400241A43EA014027B124FA0CF400233C60BC
:101FC4007B603146BDE8F08702392A44DEE7023BF4
:101FD4002C44EDE7002A71D0B2FA82F3DBB31E463B
:101FE400C6F1200302FA06F521FA03F2B14020FA01
:101FF40003F30B434FEA154E00FA06F41FFA85FC6F
:10200400B2FBFEF00EFB10211A0C00FB0CF842EAA6
:102014000142904506D9AA1800F1FF3101D290453A
:102024004ED80846A2EB08029BB2B2FBFEF10EFBAF
:10203400112201FB0CFC43EA02439C4506D9EB1830
:1020440001F1FF3201D29C453DD81146A3EB0C03AC
:1020540041EA004101E08B1A01214FEA154E1FFAB3
:1020640085FCB3FBFEF0220C0EFB103300FB0CF8D6
:1020740042EA0342904506D9AA1800F1FF3301D27F
:10208400904523D81846A2EB0802A4B2B2FBFEF393
:102094000EFB132203FB0CFC44EA0244A44506D9BC
:1020A4002C1903F1FF3201D2A44512D81346A4EB34
:1020B4000C0443EA0040B4460E467CE71F268FE733
:1020C40002382A44AEE702392B44BFE702382A44D7
:1020D400D9E7023B2C44EAE78B4205D90FB1C7E9A3
:1020E4000001002630466CE7B3FA83FCBCF1000F14
:1020F4000FD18B4201D3824209D8841A61EB0303C6
:1021040001209E460FB1C7E9004E002659E76046FC
:10211400F8E7CCF1200E03FA0CF322FA0EF521FABB
:102124000EF41D4301FA0CF320FA0EF119434FEAA1
:10213400154900FA0CF61FFA85F8B4FBF9F009FB0F
:10214400104A0C0C00FB08F344EA0A44A34202FAC6
:102154000CF206D92C1900F1FF3A01D2A34235D86A
:102164005046E41A89B2B4FBF9F309FB134403FBA8
:1021740008F841EA0441884506D9691803F1FF3497
:1021840001D2884525D8234643EA0040A1EB080143
:10219400A0FB029841454C46434602D306D14E4526
:1021A40004D2B9EB020468EB05030138002FACD06C
:1021B400321B61EB030101FA0EFE22FA0CF34EEA24
:1021C400030321FA0CF1C7E900319EE702382C44DD
:1021D400C7E7023B2944D7E7F8B500BFF8BC08BC01
:1021E4009E467047F8B500BFF8BC08BC9E467047D1
:1021F40000000000000000000102030406070809B3
:0822040020FDFF7F0100000036
:04220C00ED010008D8
:04221000C9010008F8
:0C22140001000000100000000024F40095
:0400000508001E7958
:00000001FF
