:020000040800F2
:1000000000000120213900085D1A00085F1A00086D
:10001000611A0008631A0008651A00080000000051
:10002000000000000000000000000000671A000847
:10003000691A0008000000006B1A00086D1A000819
:1000400071390008713900087139000871390008E8
:1000500071390008713900087139000871390008D8
:10006000751A0008713900087139000871390008E3
:10007000713900087139000871390008811A0008C7
:10008000713900087139000871390008000000005A
:1000900000000000000000000000000071390008AE
:1000A0007139000871390008713900087139000888
:1000B0007139000871390008713900087139000878
:1000C0007139000871390008713900087139000868
:1000D000713900087139000871390008000000000A
:1000E00071390008713900087139000800000000FA
:1000F000000000000000000000000000713900084E
:1001000000000000713900087139000871390008D9
:1001100000000000000000000000000000000000DF
:100120007139000871390008713900087139000807
:10013000713900080000000000000000000000000D
:1001400000000000000000000000000071390008FD
:1001500071390008713900087139000871390008D7
:10016000713900087139000800000000000000002B
:10017000000000000000000000000000000000007F
:1001800000000000713900080000000000000000BD
:0401900071390008B9
:1001C00002780B78012A28BF9A4240F0D8806DE966
:1001D000044540EA0104CDE902676FF0000C4FEAE4
:1001E00044721AB380EA010414F0070F6BD100F0D7
:1001F000070420F0070004F0030521F007014FEA8F
:10020000C505F0E8042314F0040FF1E804670CFAC4
:1002100005F462EA040266EA04060BD063EA04030A
:10022000624667EA0407664604E000BFF0E804237C
:10023000F1E8046782FA4CF582EA0604A4FA8CF429
:100240006CBB83FA4CF583EA0705A5FA8CF595B9E2
:1002500050E9022351E9026782FA4CF582EA06046A
:10026000A4FA8CF483FA4CF583EA0705A5FA8CF519
:100270002543DBD09CB92DBAB5FA85F424F00704E8
:1002800027FA04F1DDE9026723FA04F303F0FF0023
:1002900001F0FF01FDE80445A0EB0100704724BA1E
:1002A000B4FA84F424F0070426FA04F1DDE90267C5
:1002B00022FA04F202F0FF0001F0FF01FDE804451C
:1002C000A0EB0100704714F0030F3CD110F00304C1
:1002D00028D150F8082B51F8083B82FA4CF582EAF5
:1002E0000305A5FA8CF55DB950F8042C51F8043CCF
:1002F00082FA4CF582EA0305A5FA8CF5002DE8D0C8
:100300002DBAB5FA85F424F0070423FA04F122FA91
:1003100004F202F0FF0001F0FF01FDE80445A0EB4C
:10032000010070474FEAC40420F0030050F8082B86
:1003300021F0030151F8083B0CFA04F462EA0402CC
:1003400063EA0403C9E710F003041DD0A1EB040124
:1003500020F00300E40750F8042B06D012D28B786B
:100360005FFAA2F4E41A06D12BB1CB785FFAB2F4AB
:10037000E41A00D133B920465DF8104B7047A2EB68
:100380000300704701F1040150F8042BCC0721F061
:10039000030151F8043B48D824D222F07F4482FA6A
:1003A0004CF594EA1325A5FA8CF50AD165B951F8F4
:1003B000043B84EA0204B4EB036F0ED150F8042B23
:1003C000EBE74FEA132355E035F07F454DD1087830
:1003D000FDE80445C0F1000070474FEA126203F0E7
:1003E000FF0347E002EA1C4482FA4CF594EA134505
:1003F000A5FA8CF50AD165B951F8043B84EA0204E8
:10040000B4EB034F0CD150F8042BEBE74FEA134346
:1004100030E015EA1C4528D10B884FEA124229E04A
:100420004FEA124203EA1C4324E002F0FF0482FA7E
:100430004CF594EA1365A5FA8CF50AD165B951F823
:10044000043B84EA0204B4EB032F09D150F8042BD7
:10045000EBE74FEA13630DE015F0FF0F05D10B68D2
:100460004FEA122223F07F4304E04FF00000FDE842
:100470000445704712BA1BBA82FA4CF482EA0304AC
:10048000A4FA8CF5B5FA85F402FA04F203FA04F33F
:100490004FEA1260FDE80445A0EB1360704700BF0F
:1004A00001F0FF01102A2BDB10F0070F08D010F825
:1004B000013B013A8B422DD010F0070F42B3F6D129
:1004C000F0B441EA012141EA014122F007047FF042
:1004D00000070023F0E80256083C85EA010586EA99
:1004E000010685FA47F5A3FA87F586FA47F6A5FAD5
:1004F00087F68EB9EED1F0BC01F0FF0102F00702E1
:1005000032B110F8013B013A83EA010313B1F8D18B
:100510000020704701387047002D06BF354603386C
:10052000073815F0010F07D1013015F4807F02BFA5
:10053000013015F4C03F0130F0BC0138704700BFF6
:10054000844641EA000313F003036DD1403A41D3DE
:1005500051F8043B40F8043B51F8043B40F8043B9D
:1005600051F8043B40F8043B51F8043B40F8043B8D
:1005700051F8043B40F8043B51F8043B40F8043B7D
:1005800051F8043B40F8043B51F8043B40F8043B6D
:1005900051F8043B40F8043B51F8043B40F8043B5D
:1005A00051F8043B40F8043B51F8043B40F8043B4D
:1005B00051F8043B40F8043B51F8043B40F8043B3D
:1005C00051F8043B40F8043B51F8043B40F8043B2D
:1005D000403ABDD2303211D351F8043B40F8043BCD
:1005E00051F8043B40F8043B51F8043B40F8043B0D
:1005F00051F8043B40F8043B103AEDD20C3205D3DD
:1006000051F8043B40F8043B043AF9D2043208D0D4
:10061000D2071CBF11F8013B00F8013B01D30B8846
:1006200003806046704700BF082A13D38B078DD024
:1006300010F003038AD0C3F10403D21ADB071CBFF6
:1006400011F8013B00F8013B80D331F8023B20F860
:10065000023B7BE7043AD9D3013A11F8013B00F899
:10066000013BF9D20B7803704B7843708B78837021
:10067000604670470000000000000000000000001D
:1006800030B490F800F020F007016FF0000C10F08B
:10069000070491F820F040F048804FF000046FF01C
:1006A0000700D1E9002391F840F000F1080082FA38
:1006B0004CF2A4FA8CF283FA4CF3A2FA8CF34BBB03
:1006C000D1E9022382FA4CF200F10800A4FA8CF27C
:1006D00083FA4CF3A2FA8CF3E3B9D1E9042382FA4A
:1006E0004CF200F10800A4FA8CF283FA4CF3A2FA5F
:1006F0008CF37BB9D1E9062301F1200182FA4CF297
:1007000000F10800A4FA8CF283FA4CF3A2FA8CF3FD
:10071000002BC6D0002A04BF04301A4612BAB2FA1F
:1007200082F200EBD20030BC7047D1E9002304F024
:100730000305C4F100004FEAC50514F0040F91F859
:1007400040F00CFA05F562EA05021CBF63EA0503F6
:1007500062464FF00004AAE781F0004102E000BFCA
:1007600083F0004330B54FEA41044FEA430594EA71
:10077000050F08BF90EA020F1FBF54EA000C55EAAC
:10078000020C7FEA645C7FEA655C00F0E2804FEA7D
:100790005454D4EB5555B8BF6D420CDD2C4480EA5F
:1007A000020281EA030382EA000083EA010180EA8F
:1007B000020281EA0303362D88BF30BD11F0004FDD
:1007C0004FEA01314FF4801C4CEA113102D0404213
:1007D00061EB410113F0004F4FEA03334CEA13334E
:1007E00002D0524263EB430394EA050F00F0A78066
:1007F000A4F10104D5F1200E0DDB02FA0EFC22FA61
:1008000005F2801841F1000103FA0EF2801843FA54
:1008100005F359410EE0A5F120050EF1200E012A45
:1008200003FA0EFC28BF4CF0020C43FA05F3C01883
:1008300051EBE37101F0004507D54FF0000EDCF1FC
:10084000000C7EEB00006EEB0101B1F5801F1BD3A5
:10085000B1F5001F0CD349085FEA30004FEA3C0CA9
:1008600004F101044FEA445212F5800F80F09A809F
:10087000BCF1004F08BF5FEA500C50F1000041EBA3
:10088000045141EA050130BD5FEA4C0C404141EBA7
:100890000101013C28BFB1F5801FE9D291F0000FA2
:1008A00004BF01460020B1FA81F308BF2033A3F151
:1008B0000B03B3F120020CDA0C3208DD02F1140C48
:1008C000C2F10C0201FA0CF021FA02F10CE002F183
:1008D0001402D8BFC2F1200C01FA02F120FA0CFC7C
:1008E000DCBF41EA0C019040E41AA2BF01EB0451C5
:1008F000294330BD6FEA04041F3C1CDA0C340EDCC3
:1009000004F11404C4F1200220FA04F001FA02F305
:1009100040EA030021FA04F345EA030130BDC4F1C3
:100920000C04C4F1200220FA02F001FA04F340EAB8
:100930000300294630BD21FA04F0294630BD94F069
:10094000000F83F4801306BF81F480110134013D50
:100950004EE77FEA645C18BF7FEA655C29D094EAC1
:10096000050F08BF90EA020F05D054EA000C04BF3F
:100970001946104630BD91EA030F1EBF002100202A
:1009800030BD5FEA545C05D14000494128BF41F0C9
:10099000004130BD14F580043CBF01F5801130BD2D
:1009A00001F0004545F0FE4141F470014FF00000B8
:1009B00030BD7FEA645C1ABF194610467FEA655C69
:1009C0001CBF0B46024650EA013406BF52EA03350B
:1009D00091EA030F41F4002130BD00BF90F0000FF9
:1009E00004BF0021704730B54FF4806404F1320435
:1009F0004FF000054FF0000150E700BF90F0000FEE
:100A000004BF0021704730B54FF4806404F1320414
:100A100010F0004548BF40424FF000013EE700BFE4
:100A200042004FEAE2014FEA31014FEA02701FBF74
:100A300012F07F4393F07F4F81F06051704732F0A6
:100A40007F4208BF704793F07F4F04BF41F40021FD
:100A5000704730B54FF4607401F0004521F000415B
:100A60001CE700BF50EA010208BF704730B54FF0E5
:100A700000050AE050EA010208BF704730B511F0E6
:100A8000004502D5404261EB41014FF4806404F11E
:100A900032045FEA915C3FF4D8AE4FF003025FEAA4
:100AA000DC0C18BF03325FEADC0C18BF033202EB28
:100AB000DC02C2F1200300FA03FC20FA02F001FA82
:100AC00003FE40EA0E0021FA02F11444BDE600BF25
:100AD00070B54FF0FF0C4CF4E06C1CEA11541DBFD4
:100AE0001CEA135594EA0C0F95EA0C0F00F0DEF89F
:100AF0002C4481EA030621EA4C5123EA4C5350EA84
:100B0000013518BF52EA033541F4801143F48013D4
:100B100038D0A0FB02CE4FF00005E1FB02E506F065
:100B20000042E0FB03E54FF00006E1FB03569CF0BA
:100B3000000F18BF4EF0010EA4F1FF04B6F5007FC0
:100B400064F5407404D25FEA4E0E6D4146EB060632
:100B500042EAC62141EA55514FEAC52040EA5E50BB
:100B60004FEACE2EB4F1FD0C88BFBCF5E06F1ED865
:100B7000BEF1004F08BF5FEA500E50F1000041EB9C
:100B8000045170BD06F0004646EA010140EA020049
:100B900081EA0301B4EB5C04C2BFD4EB0C0541EA6B
:100BA000045170BD41F480114FF0000E013C00F380
:100BB000AB8014F1360FDEBF002001F0004170BDA4
:100BC000C4F10004203C35DA0C341BDC04F11404BD
:100BD000C4F1200500FA05F320FA04F001FA05F249
:100BE00040EA020001F0004221F0004110EBD37016
:100BF00021FA04F642EB06015EEA430E08BF20EA42
:100C0000D37070BDC4F10C04C4F1200500FA04F3E4
:100C100020FA05F001FA04F240EA020001F0004176
:100C200010EBD37041F100015EEA430E08BF20EAE9
:100C3000D37070BDC4F1200500FA05F24EEA020E31
:100C400020FA04F301FA05F243EA020321FA04F060
:100C500001F0004121FA04F220EA020000EBD37017
:100C60005EEA430E08BF20EAD37070BD94F0000F17
:100C70000FD101F00046400041EB010111F4801F4B
:100C800008BF013CF7D041EA060195F0000F18BFFC
:100C9000704703F00046520043EB030313F4801F38
:100CA00008BF013DF7D043EA0603704794EA0C0FF2
:100CB0000CEA135518BF95EA0C0F0CD050EA410608
:100CC00018BF52EA4306D1D181EA030101F0004185
:100CD0004FF0000070BD50EA410606BF10461946AD
:100CE00052EA430619D094EA0C0F02D150EA0136B9
:100CF00013D195EA0C0F05D152EA03361CBF1046FA
:100D000019460AD181EA030101F0004141F0FE4198
:100D100041F470014FF0000070BD41F0FE4141F41C
:100D2000780170BD70B54FF0FF0C4CF4E06C1CEA1C
:100D300011541DBF1CEA135594EA0C0F95EA0C0FD1
:100D400000F0A7F8A4EB050481EA030E52EA03358C
:100D50004FEA013100F088804FEA03334FF08055AD
:100D600045EA131343EA12634FEA022245EA1115DA
:100D700045EA10654FEA00260EF000419D4208BF8B
:100D8000964244F1FD0404F5407402D25B084FEA38
:100D90003202B61A65EB03055B084FEA32024FF4E4
:100DA00080104FF4002CB6EB020E75EB030E22BF41
:100DB000B61A754640EA0C005B084FEA3202B6EB01
:100DC000020E75EB030E22BFB61A754640EA5C00B0
:100DD0005B084FEA3202B6EB020E75EB030E22BF40
:100DE000B61A754640EA9C005B084FEA3202B6EB41
:100DF000020E75EB030E22BFB61A754640EADC0000
:100E000055EA060E18D04FEA051545EA16754FEA61
:100E100006164FEAC30343EA52734FEAC2025FEA7F
:100E20001C1CC0D111F4801F0BD141EA00014FF00E
:100E300000004FF0004CB6E711F4801F04BF0143DF
:100E40000020B4F1FD0C88BFBCF5E06F3FF6AFAEFB
:100E5000B5EB030C04BFB6EB020C5FEA500C50F18B
:100E6000000041EB045170BD0EF0004E4EEA11310E
:100E700014EB5C04C2BFD4EB0C0541EA045170BD15
:100E800041F480114FF0000E013C90E645EA060E59
:100E90008DE60CEA135594EA0C0F08BF95EA0C0F87
:100EA0003FF43BAF94EA0C0F0AD150EA01347FF4CF
:100EB00034AF95EA0C0F7FF425AF104619462CE7A6
:100EC00095EA0C0F06D152EA03353FF4FDAE104609
:100ED000194622E750EA410618BF52EA43067FF45A
:100EE000C5AE50EA41047FF40DAF52EA43057FF4EA
:100EF000EBAE12E74FF0FF3C06E000BF4FF0010CF5
:100F000002E000BF4FF0010C4DF804CD4FEA410C58
:100F10007FEA6C5C4FEA430C18BF7FEA6C5C1BD025
:100F200001B050EA410C0CBF52EA430C91EA030FA6
:100F300002BF90EA020F0020704710F1000F91EA03
:100F4000030F58BF994208BF90422CBFD8176FEAD1
:100F5000E37040F0010070474FEA410C7FEA6C5C9F
:100F600002D150EA013C07D14FEA430C7FEA6C5CA6
:100F7000D6D152EA033CD3D05DF8040B704700BFD2
:100F80008446104662468C461946634600E000BF20
:100F900001B5FFF7B7FF002848BF10F1000F01BDF2
:100FA0004DF808EDFFF7F4FF0CBF012000205DF8BD
:100FB00008FB00BF4DF808EDFFF7EAFF34BF012042
:100FC00000205DF808FB00BF4DF808EDFFF7E0FFDB
:100FD00094BF012000205DF808FB00BF4DF808ED2C
:100FE000FFF7CEFF94BF012000205DF808FB00BF93
:100FF0004DF808EDFFF7C4FF34BF012000205DF875
:1010000008FB00BF4FEA410C7FEA6C5C02D150EA5A
:10101000013C0AD14FEA430C7FEA6C5C02D152EAF0
:10102000033C02D14FF0000070474FF001007047C1
:101030004FEA410212F5001215D211D56FF4787300
:10104000B3EB625212D94FEAC12343F0004343EAA3
:10105000505311F0004F23FA02F018BF404270477E
:101060004FF00000704750EA013005D111F0004008
:1010700008BF6FF0004070474FF00000704700BF9E
:1010800053B94AB9002908BF00281CBF4FF0FF31EF
:101090004FF0FF3000F0E2B8ADF1080C6DE904CE7E
:1010A0000EF0ACF9DDF804E0DDE9022304B070478E
:1010B00000F1340191E838009C46A6464CF8045DE6
:1010C00090E8FF0FE54600BD90EC210B704700BF94
:1010D00080EC210B704700BF90EC200B704700BFE5
:1010E00080EC200B704700BFD0EC200B704700BF96
:1010F000C0EC200B704700BFF0EC0201F0EC0211D5
:10110000F0EC0221F0EC0231F0EC0241F0EC025183
:10111000F0EC0261F0EC0271F0EC0281F0EC029173
:10112000F0EC02A1F0EC02B1F0EC02C1F0EC02D163
:10113000F0EC02E1F0EC02F1704700BFE0EC0201DC
:10114000E0EC0211E0EC0221E0EC0231E0EC0241C3
:10115000E0EC0251E0EC0261E0EC0271E0EC0281B3
:10116000E0EC0291E0EC02A1E0EC02B1E0EC02C1A3
:10117000E0EC02D1E0EC02E1E0EC02F1704700BFEC
:10118000B0FC0181B0FC0191B0FC01A1B0FC01B147
:10119000704700BFA0FC0181A0FC0191A0FC01A14F
:1011A000A0FC01B1704700BFEC4600B52DE900502E
:1011B0002DE9FF1F4FF000032DE90C0001A90EF0EF
:1011C000B9FBDDF840E012B0704700BFEC4600B557
:1011D0002DE900502DE9FF1F4FF000032DE90C0011
:1011E00001A90EF0E2FBDDF840E012B0704700BF4D
:1011F000EC4600B52DE900502DE9FF1F4FF000032C
:101200002DE90C0001A90EF0F0FBDDF840E012B072
:10121000704700BFEC4600B52DE900502DE9FF1FD7
:101220004FF000032DE90C0001AB0EF0B4FBDDF82C
:1012300040E012B0704700BFEC4600B52DE9005009
:101240002DE9FF1F4FF000032DE90C0001AA0EF05D
:1012500041FCDDF840E012B0704700BF704700BFAE
:1012600010B5054C237833B9044B13B10448AFF3E0
:1012700000800123237010BDD40600200000000070
:10128000BC03010808B5034B1BB103490348AFF386
:10129000008008BD00000000D8060020BC03010843
:1012A000FEE7FEE7FEE70000114B12491960124A03
:1012B0001A6000221A71114898601148D8601148CC
:1012C0001860114B1960114818601A711048986025
:1012D0001048D86010481860104B19601049196008
:1012E0001A71104A9A60104ADA60104A1A60704700
:1012F0001C070020CC040108D8040108A51200082E
:1013000048080020E404010808070020F004010850
:10131000A1120008C80700202C050108F8060020CB
:10132000FC040108A312000800000240080501089F
:101330000123037170470123037170470123037177
:10134000704700002DE9F0438BB005AD00240594F3
:1013500006940794089409940194374B1A6B42F051
:1013600004021A631A6B02F004020192019A0294B9
:101370001A6B42F080021A631A6B02F0800202922A
:10138000029A03941A6B42F001021A631A6B02F07C
:1013900001020392039A04941A6B42F002021A6348
:1013A0001B6B03F002030493049B244E22461A2174
:1013B000304600F0F9FEDFF88880224640F2014115
:1013C000404600F0F1FE1A2305934FF00109CDF8D5
:1013D0001890079408942946304600F001FE042333
:1013E00005934FF4041306930227079729463046C6
:1013F00000F0F6FD40F201430593CDF818900794F4
:1014000008942946404600F0EBFD4FF480730593A5
:1014100006970794089409942946304600F0E0FDA9
:1014200022462146082000F0E9FB082000F0F6FBE8
:101430000BB0BDE8F08300BF00380240000002405E
:101440000004024000B583B000210191094B1A6BE2
:1014500042F400121A631B6B03F400130193019B07
:101460000A460F2000F0CAFB0F2000F0D7FB03B0A4
:101470005DF804FB0038024008B5034B18680368A8
:101480001B68984708BD00BFF0060020704772B681
:10149000FEE7000008B50A480A4B03600A4B4360A8
:1014A00000238360C3604FF4804202614361836123
:1014B000C361036200F08CFE00B908BDFFF7E7FFCF
:1014C0009008002000540040A086010008B50B4899
:1014D0000B4B03604FF400734360102383600523BC
:1014E000C36000230361074A42618361C3610362F1
:1014F00000F04CFF00B908BDFFF7C9FF4808002005
:10150000003800400077010008B50D480D4B03601E
:101510004FF48273436000238360C36003614361BF
:101520004FF400728261C3610362436283620A23E3
:10153000C36202F0DDF800B908BDFFF7A8FF00BFE5
:10154000700700200030014008B50B480B4B0360CA
:101550004FF4E133436000238360C36003610C22D6
:1015600042614FF440728261C36102F0A9F900B98F
:1015700008BDFFF78CFF00BF2C07002000100140C2
:1015800010B590B000240B940C940D940E940F940D
:101590000A9428222146684608F0DEFE3748384B78
:1015A000036044607F238360FF23C3604FF4001314
:1015B00003614FF4801343614FF48023836101F092
:1015C000B2FE002852D10A212C4802F08CF82D4B93
:1015D000984249D009238DF82C3001228DF82D2016
:1015E0003B238DF82E3000230E930F930BA9234835
:1015F00001F0ECFE00283BD106238DF828300923AA
:101600008DF8293007238DF82A3018238DF82B30D8
:1016100001220AA9194801F039FF58BB00238DF8AF
:1016200000308DF8013010228DF8022001930393D1
:101630000493154A05920693079301228DF8202002
:101640004FF48073099369460C4801F06DFF98B917
:1016500001F098F90A2000F077FA0A4A0A210748AF
:1016600002F03CF801F09CF910B010BDFFF70FFF3D
:10167000FFF70DFFFFF70BFFFFF709FFC80700207B
:1016800000280040E76ADC660080808010B594B0D6
:1016900008AC30220021204608F05EFE00230393B0
:1016A00004930593069307930193254A116C41F027
:1016B00080511164126C02F080520192019A0293DF
:1016C000204A136823F4404343F400431360136833
:1016D00003F440430293029B0B2308934FF480339F
:1016E000099301230B9310220C920D9302230E9366
:1016F0004FF480020F9219221092A8221192129395
:1017000004231393204601F059F9A0B90F23039342
:1017100002210491002305934FF48052069207930F
:1017200003A801F0E9FB40B900221146104601F080
:1017300041FB14B010BDFFF7AAFEFFF7A8FE00BFE3
:10174000003802400070004010B500F0D1F9FFF7FA
:101750009DFFFFF7F7FDFFF775FEFFF79BFEFFF715
:10176000B5FEFFF7D1FEFFF7EFFEFFF709FF054CCF
:101770000821204600F00CF80821204600F00EF861
:10178000F5E700BFF806002008B5FFF78DFD08BD9E
:1017900008B50122C06800F007FD08BD08B50022A9
:1017A000C06800F001FD08BD01230371704700000F
:1017B00082B0002100910B4B5A6C42F480425A6473
:1017C0005A6C02F480420092009A01911A6C42F025
:1017D00080521A641B6C03F080530193019B02B08A
:1017E000704700BF0038024030B589B00023039332
:1017F00004930593069307930268144B9A4201D011
:1018000009B030BD00250195114C236B43F0020354
:101810002363236B03F002030193019BC023039313
:1018200012230493032306930423079303A909486F
:1018300000F0D6FB0295236C43F400132364236C61
:1018400003F400130293029BDAE700BF0054004048
:10185000003802400004024030B58DB000230793E9
:10186000089309930A930B930293039304930593AC
:1018700006930268294B9A4201D00DB030BD044650
:1018800001230293C02303930423049302A801F0CD
:1018900009FC00283CD100250095214B1A6C42F42C
:1018A00080421A641A6C02F480420092009A0195F8
:1018B0001A6B42F002021A631B6B03F002030193DE
:1018C000019B4FF4304307930223089309950A952F
:1018D00005230B9307A9134800F082FB1248134B12
:1018E0000360456040238360C5604FF480630361FB
:1018F0004FF4006343614FF400538361C561056297
:10190000456200F019FA30B9074BA3639C63B4E752
:10191000FFF7BDFDBFE7FFF7BAFDF5E70038004070
:101920000038024000040240E807002070600240D6
:1019300000B587B0002301930293039304930593AA
:1019400002680B4B9A4202D007B05DF804FB0223F9
:1019500001934FF40073049301A801F0A3FB20B995
:10196000044B0122C3F83C2EEEE7FFF790FDF7E7AA
:10197000002800400000474200B589B000230393CF
:1019800004930593069307930268154B9A4202D07D
:1019900009B05DF804FB0021019103F584335A6C12
:1019A00042F480525A645A6C02F480520192019AB5
:1019B00002911A6B42F001021A631B6B03F00103E0
:1019C0000293029BE02303930223049303230693D1
:1019D0000523079303A9034800F002FBD8E700BFE3
:1019E000003001400000024000B589B0002303939D
:1019F0000493059306930793026803F1804303F56C
:101A000088339A4202D009B05DF804FB00210191AD
:101A100003F594335A6C42F010025A645A6C02F087
:101A200010020192019A02911A6B42F001021A63AC
:101A30001B6B03F001030293029B4FF4F0530393DB
:101A400002230493032306930723079303A9024861
:101A500000F0C6FAD7E700BF00000240FEE7FEE74D
:101A6000FEE7FEE7FEE770477047704708B500F0F5
:101A700059F808BD08B5042000F09CFB08BD000023
:101A800008B5024800F0BEF908BD00BFE807002015
:101A9000034AD2F8883043F47003C2F888307047A4
:101AA00000ED00E010B504460E4B1A784FF47A733F
:101AB000B3FBF2F30C4A1068B0FBF3F000F0BCF893
:101AC00068B90F2C01D901200AE0002221464FF00D
:101AD000FF3000F093F8054B1C60002000E001206F
:101AE00010BD00BF08000020040000200C000020F2
:101AF00008B50B4B1A6842F400721A601A6842F477
:101B000080621A601A6842F480721A60032000F042
:101B100063F80F20FFF7C6FFFFF74AFE002008BD5D
:101B2000003C0240034A1168034B1B780B441360CE
:101B3000704700BFE408002008000020014B18682F
:101B4000704700BFE408002038B50446FFF7F6FFF1
:101B50000546B4F1FF3F02D0044B1B781C44FFF74D
:101B6000EDFF401BA042FAD338BD00BF08000020A3
:101B7000002808DB0901C9B200F1604000F56140AE
:101B800080F80013704700F00F000901C9B2014B43
:101B90001954704714ED00E000B500F00700C0F1E3
:101BA000070CBCF1040F28BF4FF0040C031D062BDB
:101BB0000FD9C31E4FF0FF3E0EFA0CF021EA0001D0
:101BC00099400EFA03FE22EA0E0241EA02005DF895
:101BD00004FB0023EEE70000074AD36823F4E06328
:101BE0001B041B0C000200F4E060034343F0BF63DE
:101BF00043F40033D360704700ED00E010B50446B5
:101C0000054BD868C0F30220FFF7C6FF0146204607
:101C1000FFF7AEFF10BD00BF00ED00E0002807DBBE
:101C200000F01F02400901239340024A42F820308D
:101C3000704700BF00E100E00138B0F1807F0BD2B7
:101C40004FF0E0235861054AF02182F8231000206C
:101C5000986107221A6170470120704700ED00E08B
:101C600010B40368D9B210390A4AA2FB0142120922
:101C7000094CA25CC2655F2907D96FF309030433DD
:101C80008365806D5DF8044B70476FF309038365CE
:101C9000F7E700BFABAAAAAA48050108836A8269D0
:101CA00092B9012B0AD0022B02D00BB10020704751
:101CB000C36A13F0807F2FD100207047C36AB3F14D
:101CC000C07F2BD000207047B2F5005F09D0022BF7
:101CD0002CD9032B2CD1C36A13F0807F2AD100208A
:101CE0007047032B0AD801A252F823F0211D0008E7
:101CF000011D0008211D00080D1D0008002070476F
:101D0000C36A13F0807F0DD100207047C36AB3F11E
:101D1000C07F09D000207047012070470120704724
:101D20000120704701207047012070470120704753
:101D3000002070470120704770B50446FFF7FEFE93
:101D4000002C5BD00546022384F83530002384F84C
:101D500034302268136823F00103136023681A6883
:101D600012F0010F0AD0FFF7E9FE431B052BF5D94E
:101D700020236365032084F8350070BD1A6820496C
:101D800011406268A0680243E06802432069024390
:101D900060690243A0690243E0690243206A02438A
:101DA0000A43616A04291ED01A602668756925F005
:101DB0000705636A1D43042B07D1A36A1D43E36A29
:101DC0001BB12046FFF76AFF90B975612046FFF707
:101DD00047FFE26D3F23934083600020606501234D
:101DE00084F83530C9E7E16A206B01430A43DBE739
:101DF00040236365012084F83500BEE70120BCE77D
:101E00003F8010F0F0B583B0044600230193724B7D
:101E10001D68724BA3FB0535AD0A876D3E68C26D28
:101E200008239340334210D003681A6812F0040F5D
:101E30000BD01A6822F004021A60C26D0823934086
:101E4000BB60436D43F001034365E26D01239340A2
:101E5000334209D02268526912F0800F04D0BB606F
:101E6000636D43F002036365E26D042393403342E4
:101E700009D02268126812F0020F04D0BB60636DB3
:101E800043F004036365E26D10239340334224D092
:101E90002268126812F0080F1FD0BB6023681A680E
:101EA00012F4802F0DD01B6813F4002F04D1236C83
:101EB0009BB12046984710E0A36C73B12046984729
:101EC0000BE01A6812F4807F03D11A6822F008022E
:101ED0001A60236C0BB120469847E26D2023934093
:101EE000334254D02268126812F0100F4FD0BB60FA
:101EF00094F83530052B0ED023681A6812F4802F21
:101F000033D01B6813F4002F2AD1636C002B3ED012
:101F1000204698473BE02268136823F016031360BD
:101F20002268536923F080035361236CA3B12268B4
:101F3000136823F008031360E26D3F239340BB60F6
:101F4000012384F83530002384F83430236D002BCE
:101F50003FD0204698473CE0A36C002BE7D1EBE74D
:101F6000E36BA3B12046984711E01A6812F4807F12
:101F700009D11A6822F010021A60012384F8353062
:101F8000002384F83430E36B0BB120469847636D2F
:101F9000FBB1636D13F0010F17D0052384F83530C2
:101FA0002268136823F001031360019B013301933E
:101FB000AB4204D823681B6813F0010FF5D101234D
:101FC00084F83530002384F83430E36C0BB12046BC
:101FD000984703B0F0BD00BF04000020B5814E1B40
:101FE00000230F2B00F2D78070B582B065E08568C2
:101FF0004FEA430E032404FA0EF425EA0405CC68E4
:1020000004FA0EF42C438460446824EA02044A680B
:10201000C2F300129A40224342605CE0DC080834BC
:1020200050F8242003F00705AD004FF00F0E0EFA14
:1020300005FE22EA0E0E0A69AA4042EA0E0240F8A4
:1020400024205CE0042200E0002202FA0EF22A437F
:102050000234514D45F82420504A94686FEA0C022E
:1020600024EA0C054E6816F4801F01D04CEA0405E2
:102070004A4CA560E46802EA04054E6816F4001FA5
:1020800001D04CEA0405454CE560646802EA0405A9
:102090004E6816F4003F01D04CEA04053F4C6560E1
:1020A000246822404D6815F4803F01D04CEA0402B8
:1020B0003A4C226001330F2B6BD801229A400C68F6
:1020C00004EA020C32EA0404F4D14C6804F003047C
:1020D000013C012C8BD94A6802F00302032A09D083
:1020E000C4685D000322AA4024EA02048A68AA4068
:1020F0002243C2604A6802F00302022A8ED00468BA
:102100004FEA430E032202FA0EF224EA02044A685E
:1021100002F0030202FA0EF2224302604A6812F44D
:10212000403FC7D0002201921D4A546C44F48044C1
:102130005464526C02F480420192019A9C08A51CDE
:10214000154A52F8255003F0030E4FEA8E0E0F2267
:1021500002FA0EF225EA0205124A90423FF474AFE9
:1021600002F5806290420ED002F5806290420CD05F
:1021700002F5806290420AD002F5806290423FF4FC
:1021800061AF072261E701225FE702225DE70322D8
:102190005BE702B070BD704700380140003C014071
:1021A00000380240000002400AB181617047090412
:1021B0008161704708B5054B5B69034200D108BDDA
:1021C000024B5861FFF762F9F9E700BF003C01409C
:1021D000002800F0CC8070B5044690F83D30002B0C
:1021E00077D0242384F83D302268136823F001035C
:1021F00013602268136843F4004313602268136875
:1022000023F40043136000F02DFF62685A4B9A429A
:1022100064D85A4B98428CBF00230123002B40F016
:10222000A8805749A1FB00318B0C25686A6822F011
:102230003F0242EA91426A6021680A6A22F03F0244
:1022400066684D4DAE424FD8013313430B6221688F
:10225000CA6922F44F4222F0FF026568464B9D4254
:102260004CD8431E6D00B3FBF5F3013340F6FC7010
:10227000034278D0C3F30B031A43CA6121680B6889
:1022800023F0C003E269206A024313430B60216814
:102290008B6823F4034323F0FF032269E0680243C1
:1022A00013438B602168CB6823F0FF036269A06948
:1022B00002431343CB602268136843F001031360A9
:1022C00000202064202384F83D30206384F83E0001
:1022D00070BD80F83C30FFF787FA82E7294B9842BF
:1022E0008CBF0023012399E74FF4967505FB03F398
:1022F000254DA5FB03539B090133A6E7A668BEB98C
:10230000431E05EB450CB3FBFCF30133C3F30B0396
:10231000B3FA83F35B0943BBC6B9431E05EB45051E
:10232000B3FBF5F30133C3F30B0343F40043A3E71B
:10233000431E05EB850C0CEB8C0CB3FBFCF301335B
:10234000C3F30B03B3FA83F35B09E4E7431E05EB26
:10235000850505EB8505B3FBF5F30133C3F30B03EB
:1023600043F4404388E7042386E7012384E7012000
:1023700070470120ACE700BFA08601007F841E00EB
:1023800083DE1B43FF083D00D34D6210002800F0A0
:10239000BE8038B5044690F84130002B51D002225F
:1023A00084F841202168CB6923F47B6323F00F0379
:1023B000CB6123681A626369934269D0E368002B9A
:1023C00046D11025A368202B00D86D00012000F015
:1023D0001FFF2369B3F5007F3CD0B0FBF5F000EBA5
:1023E000800043006269B3FBF2F30533494AA2FB64
:1023F0000323C3F3C002C2EBD3035B0811029A1E8E
:10240000FD2A3FD822690A4321681A430A622168DB
:10241000CB6923F47B6323F00F036268A068024357
:10242000E0680243A0690243134343F40063CB61B5
:10243000236A012B2ED000206064012384F84130F0
:1024400038BD80F84030344B4363FFF705FAA6E708
:102450002025B7E7E36853B1AD00B0FBF5F000EB22
:10246000800043006269B3FBF2F30533BEE7ED0081
:10247000B0FBF5F000EB800043006269B3FBF2F3C0
:102480000533B3E7636C43F0100363640120D7E7BF
:102490000021B7E7214B63632268214B9A421FD08A
:1024A0004FF04022D36923F47B6323F00F03D36101
:1024B00022681B4B9A4215D04FF040220223136230
:1024C0002268174B9A420FD04FF04025EB699BB220
:1024D0006268B2F5007F09D0BAB94FF4807007E0A6
:1024E000104ADFE70F4AE9E70E4DEFE74FF480703F
:1024F000B4F808C0A189228B40EA0C0001430A43CA
:10250000134343F40063EB6195E70020F0E70120FB
:10251000704700BFCDCCCCCC9D250008AD2700086E
:10252000003800400034004008B5426A0368128851
:10253000DA60436A02334362438D9BB2013B9BB234
:102540004385438D9BB203B108BD0268536823F0F5
:10255000A0035360012380F84130FEF78DFFF3E7BD
:10256000704708B50368DA68C36A1A80C36A023321
:10257000C362438E9BB2013B9BB24386438E9BB2A8
:1025800003B108BD0268536823F060035360012360
:1025900080F84130FFF7E4FFF3E7704710B584B0EF
:1025A000044603689A68039290F84120042A05D0F3
:1025B00094F84130032B2CD004B010BD039A12F0D4
:1025C000010F03D05B6813F0400F1FD1039B13F082
:1025D000400FEDD023685A6812F0200FE8D05A68F7
:1025E00022F060025A60002301932368DA680192A6
:1025F0009B680193019B012384F84130636C43F095
:10260000020363642046FFF7C8FFD1E7FFF7A9FF85
:10261000DCE7039B13F0020F04D023685B6813F020
:10262000800F1DD1039B13F0080FC5D023685A6893
:1026300012F0200FC0D05A6822F0A0025A60002386
:10264000029323689B680293029B012384F8413024
:10265000636C43F0040363642046FFF79EFFABE71F
:102660002046FFF761FFDDE7704708B5436A9A1C13
:10267000426202681B88D360438D9BB2013B9BB2D0
:102680004385438D9BB23BB90268536823F0A00396
:102690005360438E9BB203B108BD012380F84130E3
:1026A000FFF7E2FFF8E7000008B50268154B9A4211
:1026B0001CD04FF04023DA68C36A991CC1621A80AB
:1026C000438E9BB2013B9BB24386438E9BB263B960
:1026D00002680C4B9A420CD04FF04022536823F012
:1026E00060035360438D9BB22BB108BDA3F580639B
:1026F000E1E7054AF2E7012380F84130FFF7B4FF34
:10270000F3E700BF003800400034004008B5436ADA
:102710009A1C42621A880168134B994218D04FF0F4
:102720004023DA60438D9BB2013B9BB24385438DCE
:102730009BB263B902680C4B9A420CD04FF0402216
:10274000536823F0A0035360438E9BB22BB108BDA6
:10275000A3F58063E5E7054AF2E7012380F84130FD
:10276000FFF782FFF3E700BF00380040003400406D
:1027700008B50368DA68C36A991CC1621A80438E7F
:102780009BB2013B9BB24386438E9BB23BB902682E
:10279000536823F060035360438D9BB203B108BDBF
:1027A000012380F84130FFF75FFFF8E710B586B0EE
:1027B000044603689A680592704A93426FD04FF0BE
:1027C0004022916804915B680393536802936368A5
:1027D000B3F5007F01D0002B70D1059B13F0020FE1
:1027E00003D0039B13F0800F5CD1049B13F0010F07
:1027F00003D0029B13F0400F58D1049B13F0400FFD
:1028000024D0029B13F0200F20D022685B4B9A4209
:1028100050D04FF04022536823F060035360226889
:10282000536823F0A0035360002300932368DA6801
:1028300000929B680093009B012384F84130636CF5
:1028400043F0020363642046FFF7A7FE059B13F0E5
:10285000080F22D0039B13F0200F1ED0226853686C
:1028600023F0A00353602268444B9A4224D04FF0D7
:102870004022536823F060035360002301932368D0
:102880009B680193019B012384F84130636C43F002
:10289000040363642046FFF780FE06B010BDA2F576
:1028A00080628EE72046FFF7E0FE9EE72046FFF7B6
:1028B000FBFEA2E7324AAEE7314ADAE7049B13F0A7
:1028C000020F03D0029B13F0800F4AD1059B13F037
:1028D000010F03D0039B13F0400F46D1059B13F06B
:1028E000400F1CD0039B13F0200F18D022685368B0
:1028F00023F0600353602268204B9A4239D04FF096
:102900004022536823F0A0035360012384F8413030
:10291000636C43F0020363642046FFF73EFE049BB2
:1029200013F0080FB9D0029B13F0200FB5D0226826
:10293000124B9A421FD04FF04022536823F0A0035D
:1029400053602268536823F060035360012384F8C6
:102950004130636C43F0040363642046FFF71DFEBF
:102960009BE72046FFF7D2FEB0E72046FFF700FFC7
:10297000B4E7034AC5E7024ADFE700BF003800407A
:102980000034004082B0044B01221A62034B1B68E2
:102990000193019B02B0704700000E42007000409E
:1029A00082B0044B00221A62034B1B680193019B07
:1029B00002B0704700000E4200700040002800F096
:1029C000E08170B582B00446036813F0010F3BD07C
:1029D0009F4B9B6803F00C03042B2CD09C4B9B68F3
:1029E00003F00C03082B21D06368B3F5803F4FD070
:1029F000B3F5A02F52D0964B1A6822F480321A6099
:102A00001A6822F480221A606368002B50D0FFF706
:102A100095F805468E4B1B6813F4003F14D1FFF761
:102A20008DF8401B6428F5D90320B1E1884B5B6821
:102A300013F4800FD8D0864B1B6813F4003F03D0EB
:102A40006368002B00F09F81236813F0020F54D0BD
:102A50007F4B9B6813F00C0F3ED07D4B9B6803F0BF
:102A60000C03082B33D0E368002B68D0794B01228C
:102A70001A60FFF763F80546754B1B6813F0020FE9
:102A800054D1FFF75BF8401B0228F5D903207FE102
:102A90006F4A136843F480331360B5E76C4B1A68D0
:102AA00042F480221A601A6842F480321A60ABE75E
:102AB000FFF744F80546664B1B6813F4003FC3D08C
:102AC000FFF73CF8401B6428F5D9032060E1604B18
:102AD0005B6813F4800FC6D15D4B1B6813F0020FC7
:102AE00003D0E368012B40F05081594A136823F06A
:102AF000F803216943EAC1031360236813F0080F48
:102B000042D063696BB3534B0122C3F8802EFFF7A9
:102B100015F805464E4B5B6F13F0020F34D1FFF7EB
:102B20000DF8401B0228F5D9032031E1484A13680B
:102B300023F0F803216943EAC1031360DDE7454B45
:102B400000221A60FEF7FAFF0546414B1B6813F09E
:102B5000020FD2D0FEF7F2FF401B0228F5D9032066
:102B600016E13C4B0022C3F8802EFEF7E7FF054636
:102B7000374B5B6F13F0020F06D0FEF7DFFF401BF1
:102B80000228F5D9032003E1236813F0040F77D05E
:102B90002F4B1B6C13F0805F33D1002301932C4B20
:102BA0001A6C42F080521A641B6C03F0805301933C
:102BB000019B0125284B1B6813F4807F23D0A36859
:102BC000012B34D0052B38D0214B1A6F22F0010293
:102BD0001A671A6F22F004021A67A368002B3DD00F
:102BE000FEF7ACFF06461A4B1B6F13F0020F46D1DF
:102BF000FEF7A4FF801B41F288339842F3D90320EB
:102C0000C6E00025D6E7144A136843F480731360C6
:102C1000FEF794FF0646104B1B6813F4807FCED15D
:102C2000FEF78CFF801B0228F5D90320B0E0084A8C
:102C3000136F43F001031367CFE7054B1A6F42F0A0
:102C400004021A671A6F42F001021A67C5E700BF53
:102C5000003802400000474200700040FEF76EFF5F
:102C60000646524B1B6F13F0020F08D0FEF766FFAB
:102C7000801B41F288339842F3D9032088E0EDB9F4
:102C8000A369002B00F08380484A926802F00C028E
:102C9000082A51D0022B17D0454B00221A66FEF7A6
:102CA0004DFF0446414B1B6813F0007F42D0FEF7F6
:102CB00045FF001B0228F5D9032069E03B4A136C4D
:102CC00023F080531364DBE7394B00221A66FEF7CA
:102CD00035FF0546354B1B6813F0007F06D0FEF725
:102CE0002DFF401B0228F5D9032051E0E369226A39
:102CF0001343626A43EA8213A26A5208013A43EA22
:102D00000243E26A43EA0263284A5360284B0122E5
:102D10001A66FEF713FF0446244B1B6813F0007F6E
:102D200006D1FEF70BFF001B0228F5D903202FE088
:102D300000202DE000202BE0012B2BD01B4B5B68EB
:102D400003F48001E269914226D103F03F02216A37
:102D50008A4223D1616A47F6C0721A40B2EB811FE2
:102D60001ED103F44031A26A5208013AB1EB024F7E
:102D700018D103F07063E26AB3EB026F14D1002044
:102D800006E001207047012002E0012000E0002061
:102D900002B070BD0120FBE70120F9E70120F7E751
:102DA0000120F5E70120F3E70120F1E700380240B8
:102DB0000000474270B588B00C46154600BB0023A2
:102DC0000193204E326B42F001023263326B02F00B
:102DD00001020192019A4FF480720392022204923E
:102DE000032206920593079303A91748FFF7F8F803
:102DF000B36823F0EC6325431D43B56008B070BD94
:102E0000002302930F4E326B42F004023263326BA6
:102E100002F004020292029A4FF40072039202221C
:102E20000492032206920593079303A90748FFF72C
:102E3000D7F8B36823F0784344EAC5041C43B46070
:102E4000DCE700BF003802400000024000080240FA
:102E500008B5264B9B6803F00C03042B41D0082BCC
:102E600041D1224B5A6802F03F025B6813F4800F95
:102E700012D01E4B5968C1F388111D480023A1FBD5
:102E80000001FEF7FDF8194B5B68C3F30143013302
:102E90005B00B0FBF3F008BD144B5868C0F388101A
:102EA0004FEA401CBCEB000C6EEB0E0E4FEA8E138B
:102EB00043EA9C634FEA8C11B1EB0C0163EB0E0308
:102EC000DB0043EA5173C90011EB000C43F100032E
:102ED000990200234FEA8C2041EA9C51FEF7D0F87A
:102EE000D1E70348D7E70348D5E700BF00380240E1
:102EF00040787D010024F400002800F09B8070B52C
:102F00000D4604464F4B1B6803F007038B4208D263
:102F1000CBB24C4A1370136803F007038B4240F0A6
:102F20008B80236813F0020F17D013F0040F04D026
:102F3000454A936843F4E0539360236813F0080F05
:102F400004D0414A936843F4604393603E4A9368D7
:102F500023F0F003A1680B439360236813F0010F83
:102F600032D06368012B21D09A1E012A25D9364A16
:102F7000126812F0020F61D033498A6822F003020E
:102F800013438B60FEF7DAFD06462F4B9B6803F078
:102F90000C036268B3EB820F16D0FEF7CFFD801BE7
:102FA00041F288339842F0D9032042E0264A126861
:102FB00012F4003FE0D101203BE0234A126812F0F6
:102FC000007FD9D1012034E01E4B1B6803F00703BA
:102FD000AB4207D9EAB21B4B1A701B6803F0070318
:102FE000AB422DD1236813F0040F06D0164A936824
:102FF00023F4E053E1680B439360236813F0080F58
:1030000007D0114A936823F46043216943EAC1035E
:103010009360FFF71DFF0C4B9B68C3F303130B4A30
:10302000D35CD8400A4B18600A4B1868FEF73AFD8B
:10303000002070BD012070470120FAE70120F8E769
:103040000120F6E7003C0240003802403805010844
:10305000040000200C000020014B1868704700BFDE
:103060000400002008B5FFF7F7FF044B9B68C3F38B
:103070008223034AD35CD84008BD00BF0038024019
:103080003005010808B5FFF7E7FF044B9B68C3F361
:103090004233034AD35CD84008BD00BF0038024029
:1030A0003005010830B583B00446036813F0050FFE
:1030B0000ED1236813F0020F36D1236813F0080FE6
:1030C00000F09B80227C4E4BC3F8E021002095E06D
:1030D0004C4B00229A66FEF731FD05464A4B1B68B1
:1030E00013F0006F06D0FEF729FD431B022BF5D924
:1030F000032083E06268A3681B0743EA8213424A05
:10310000C2F884303F4B01229A66FEF717FD054650
:103110003D4B1B6813F0006FCBD1FEF70FFD401B3A
:103120000228F5D9032069E000230193364B1A6C7D
:1031300042F080521A641B6C03F080530193019B90
:10314000324A136843F480731360FEF7F7FC0546B8
:103150002E4B1B6813F4807F06D1FEF7EFFC431B58
:10316000022BF5D9032049E0274B1B6F13F4407362
:1031700014D0E26802F440729A420FD0224B1A6FC8
:1031800022F440721F490120C1F8400E0020C1F80E
:10319000400E1A671B6F13F0010F12D1E36803F49E
:1031A0004072B2F5407F1DD0174A936823F4F8139C
:1031B000936015490B6FE268C2F30B0213430B6770
:1031C0007BE7FEF7BBFC05460F4B1B6F13F0020FAE
:1031D000E4D1FEF7B3FC401B41F288339842F3D9A7
:1031E00003200BE008498A6822F4F81223F07043A8
:1031F00023F4407313438B60DBE7002003B030BD42
:103200000010474200004742003802400070004072
:10321000012801D000207047164B9B6813F400036F
:1032200003D0012B23D114487047124B5B6813F471
:10323000800F14D00F4B5A6802F03F020F4BB3FBC4
:10324000F2F30C4AD2F88400C0F3881003FB00F0BC
:10325000D2F88430C3F30273B0FBF3F07047054B30
:103260005A6802F03F02064BB3FBF2F3E9E7002095
:10327000704700BF003802400080BB0040787D01ED
:103280000024F40038B504460268D36823F0A00394
:10329000D360FEF753FC05462368DB6813F0200F6C
:1032A00007D1FEF74BFC401BB0F57A7FF4D9032021
:1032B00000E0002038BD70B50368DA6812F0400FF6
:1032C00002D00025284670BD0446DA6842F080022C
:1032D000DA60FEF733FC064600252368DB6813F04E
:1032E000400FEFD1002DEDD1FEF728FC831BB3F585
:1032F0007A7FF2D9042363770125EEE70268D36869
:1033000023F08003D36003689B6813F0200F01D083
:103310000020704710B50446FFF7B4FF10B1042336
:103320006377012010BD002842D010B50446437FCA
:103330007BB1022363772368CA225A62236853222F
:103340005A622046FFF7B7FF38B12368FF225A625E
:1033500010BD0377FEF7ECFAEBE72268936823F4DD
:10336000E00323F04003936021688A686368206962
:1033700003436069034313438B602368E2681A6167
:1033800022681369A16843EA014313612046FFF7ED
:10339000B5FF0028D9D12268136C23F4802313646D
:1033A0002268136CA1690B43136401236377CCE794
:1033B00001207047002303E00133DBB20A38C0B2BA
:1033C0000928F9D81B01DBB218437047037F012B92
:1033D0005AD070B504460E46012303770223437783
:1033E00032BB03689B6813F0400F01D10023CB7000
:1033F0003078FFF7DFFF05047078FFF7DBFF45EA61
:103400000025B078FFF7D6FF0543F37845EA8355EA
:103410002368CA225A62236853225A622046FFF761
:103420004AFFB8B12368FF225A620023237770BD98
:1034300003689B6813F0400F01D10023CB703378F1
:1034400075782D0245EA0345B3781D43F37845EAC4
:103450008355DDE7236805F07F3525F0FE451D60C7
:103460002268936823F48023936021688B68F26854
:103470003069024313438B602046FFF73FFF00286B
:10348000D0D101236377CDE702207047037F012B62
:1034900048D070B504460E460123037702234377D4
:1034A000CAB1CB784D782D0245EA03458B781D4390
:1034B0000B7845EA43352368CA225A6223685322AF
:1034C0005A622046FFF7F7FEF0B12368FF225A62E6
:1034D0000023237770BD4B7813F0100F03D003F057
:1034E000EF030A334B70F078FFF764FF0504707840
:1034F000FFF760FF45EA0025B078FFF75BFF054363
:10350000337845EA4335D6E7236825F07F4525F033
:10351000C0055D602046FFF7F1FE0028D5D10123EC
:103520006377D2E70220704770B582B00D46684BD2
:103530001B686849A1FB0313DB0A4FF47A7101FB96
:1035400003F30193037F012B00F0C08004460123A5
:10355000037702234377002A6CD103689B6813F03A
:10356000400F01D10023EB702878FFF723FF0604FA
:103570006878FFF71FFF46EA0026A878FFF71AFFD2
:103580000643EB7846EA835695F82000FFF712FFD2
:1035900046EA0062EB691A436B691A436868AB69D3
:1035A00018432368CA2159622368532159626B6A00
:1035B000B3F5807F58D021688B6823F400738B604B
:1035C0002168CB68DBB263F42073CB60404B1B688F
:1035D0004049A1FB0313DB0A4FF47A7101FB03F3AB
:1035E0000193019B591E0191002B67D02368D96874
:1035F00011F0020FF5D01A6223689864226893686C
:1036000043F4007393602268936843F4005393601B
:10361000314B1A6842F400321A609A6842F4003260
:103620009A602368FF225A62012363770020207783
:1036300002B070BD03689B6813F0400F01D10023F6
:10364000EB702B786A78120242EA0342AB781A4395
:10365000EB7842EA835295F8203042EA0362EB6944
:103660001A436B691A4399E721688B6823F48073C6
:103670008B602168CB68DBB263F4C073CB60019BC5
:10368000591E019193B12368D96811F0010FF6D04A
:10369000DA61236858642268936843F48073936006
:1036A0002268936843F480539360B1E72368FF2254
:1036B0005A620320607700232377B9E72368FF224B
:1036C0005A620320607700232377B1E70220AFE737
:1036D00004000020D34D6210003C014003685033C9
:1036E00043F8212070470368503353F82100704796
:1036F00000285AD010B50446436A33B94368B3F57D
:10370000827F05D00023C36102E00023036143618F
:103710000023A36294F85130002B40D0022384F898
:1037200051302268136823F040031360636803F488
:103730008273A26802F404421343E26802F4006256
:103740001343226902F002021343626902F001028C
:103750001343A26902F400721343E26902F03802D3
:103760001343226A02F080021343A26A02F4005259
:10377000216813430B60638B03F00403626A02F059
:103780001002216813434B602268D36923F400635D
:10379000D36100206065012384F8513010BD84F8A6
:1037A00050302046FEF7E8F8B8E7012070470000E7
:1037B00010B504460268136923F44053C1680B43F3
:1037C0001361836802691A4343691A43C3691A4340
:1037D0000168CB6823F4164323F00C031343CB603A
:1037E0000268536923F4407381690B435361036892
:1037F000314A934206D002F58062934202D0FFF72D
:1038000031FC01E0FFF73EFCE369B3F5004F29D03E
:103810000021031849411B1841F10001C90041EA88
:103820005371DB00181863684FEA83024FEA937301
:1038300041F10001FDF724FC204AA2FB00314909B7
:10384000642303FB11031B013233A2FB03235B0937
:1038500003F0F00202EB011203F00F03216813449E
:103860008B6010BD0023021843EB0301121841F1D5
:103870000001C90041EA5271D200101841F1000163
:10388000626892185B41FDF7FBFB0C4AA2FB00311A
:103890004909642303FB1103DB003233A2FB03233A
:1038A0005B095A0002F4F87202EB011203F00703FD
:1038B000216813448B60D4E7001001401F85EB5151
:1038C00058B310B5044690F83D300BB3242384F868
:1038D0003D302268D36823F40053D3602046FFF7BD
:1038E00067FF2268136923F49043136122685369C8
:1038F00023F02A0353612268D36843F40053D36052
:1039000000202064202384F83D3084F83E3010BD30
:1039100080F83C30FEF768F8D8E7012070470000D7
:10392000DFF834D00D480E490E4A002302E0D45887
:10393000C4500433C4188C42F9D30B4A0B4C0023F7
:1039400001E013600432A242FBD3FEF7A1F806F0B7
:10395000E1FEFDF7F9FE70470000012000000020A5
:10396000D406002074290108D40600203C0C002055
:10397000FEE70B460146184605F0EEBF7FB5002472
:103980001023CDE90234036815469E6912686B4620
:10399000CDE90044B0479DF8043003F00603062B40
:1039A00003BF009B2B600120204604B070BD00982F
:1039B00090420CBF062001207047000010B5034B59
:1039C0000360044600F0D1F8204610BD88050108C8
:1039D00010B50446FFF7F2FF2046082100F042F838
:1039E000204610BD2DE9F0411F46DDE90834DDF821
:1039F000188098450646154607D1079900F0B8F893
:103A000018B165710020BDE8F0813946304600F0FC
:103A1000AFF80028F6D00123C4F800802571A37107
:103A2000F0E738B515461C4600F0A2F820B108238F
:103A3000E36006232560237138BD2DE9F04105467A
:103A40000C4616461F4600F093F848B9032F07D8D6
:103A500023683246294620465B69BDE8F041184795
:103A6000BDE8F08100F09AB810B5034B036004463E
:103A7000FFF7A4FF204610BDE805010810B5044675
:103A8000FFF7F2FF20460C21FFF7ECFF204610BDA8
:103A90002DE9F041DDF81880904506460F461546A1
:103AA0001C460BD0B0680368CDF818801E6A2A4601
:103AB00023463946B446BDE8F0416047194600F058
:103AC00057F80028EED00620BDE8F0812DE9F14F2F
:103AD0000D461946DDE90A4BDDE90CA6814617467D
:103AE000984600F045F890B1002D3460377109DB3D
:103AF0002C44A24514BF01240624B471002001B057
:103B0000BDE8F08F0235F9D10123B371F6E75445D2
:103B100006D15946484600F02BF808B17771EDE719
:103B2000D9F808000368CDE90CA6CDE90A4BDC6999
:103B30003A4643462946A44601B0BDE8F04F6047E7
:103B40002DE9F04107460C4615461E46FFF769FF72
:103B500048B9B86803689F692A4633462146BC467F
:103B6000BDE8F0416047BDE8F08170470020704734
:103B7000814208B50ED0406803782A2B0CD04968E2
:103B80000B782A2B08BF0131FCF71AFBB0FA80F042
:103B9000400908BD0120FCE70020FAE705F0C0B9A4
:103BA000194A536870B5A0F1080423B150F8081CF5
:103BB0006518AB4203D940F8043C546070BD20D175
:103BC000D3E900350B4440E90235F6E71A1D3346C8
:103BD0005E6836B1B542F9D801BF2E686D685D6088
:103BE000891913681D685E19B4421FBF5B6840F8ED
:103BF000043C136840F8081C06BF6D181D605C602B
:103C0000DCE70432E4E700BFE808002008300828B9
:103C100070B5104A38BF0820073020F0070352F86B
:103C2000040F90B110680468A3420FD8E61A072E5B
:103C300088BFC118456883BF4D60C65010680460D6
:103C400094BF294603601160083070BD021D4068B2
:103C5000E7E700BFE808002010B500F18004204627
:103C600005F056F9034630B92046FFF7CFFF03466B
:103C700008B900F06BFB80220021184606F06CFBAF
:103C8000803010BD064BD3E902238038134498429C
:103C900003D2824201D2FFF783BF05F041B900BFD2
:103CA000E808002070B50D4619460368049E9D4241
:103CB00004D90A490A482A4600F0B2FC5C1B944227
:103CC00028BF1446A642324628BF224622B1406889
:103CD000284406F093FA00B9A01B70BD2406010821
:103CE0003E0601082DE9F043374E38488DB00025D7
:103CF000C6E90155F56005F0BDF8354B059308237D
:103D00000693344BCDE9073509230993324B0A93C7
:103D10004FF00F0804230446CDF810800B93B4B97C
:103D20000B9B089D402BA8BF4023002D08BF0625F4
:103D30003E355D43AD00F56035B1284605F0E8F845
:103D4000B06000283CD1F4600DB0BDE8F08323786A
:103D5000CDF800803A2B08BF013423460F22002102
:103D600004A8FFF79FFF28BBE37B2E2B22D1103442
:103D70004FF0030906AFB9F101091BD03D6800956A
:103D80002A46234600213846FFF78CFF024610B929
:103D9000635D3D2B01D00C37EDE70135601903A9B8
:103DA00005F0CCFD039C23783A2B00D013B90028F2
:103DB00000DBB86020463A2106F020FB0446AEE75F
:103DC000C0E900547060BFE7E80800206F060108F2
:103DD000800601089006010899060108704770479F
:103DE00000487047A306010810B504210446FFF7F8
:103DF00039FE204610BD30B500231A4610F8015B8D
:103E000005F07F04944023432C0602F10702F5D409
:103E10000B6030BD30B500231A4610F8014B04F09A
:103E20007F0595402B43250602F10702F5D41F2A92
:103E300006D8640642BF4FF0FF3404FA02F213437F
:103E40000B6030BD50282DE9F341064688461546E3
:103E50001F4608D1D01C20F0030050F8044B3C60F2
:103E600002B0BDE8F08100F00F030C2B42D801A294
:103E700052F823F0E53E0008A93E0008D53E0008B0
:103E8000E53E0008ED3E0008F53E0008F53E00085E
:103E9000F53E0008F53E0008CB3E0008DD3E000878
:103EA000E53E0008ED3E000801A92846FFF7A3FF04
:103EB000019C002CD3D006F07003102B08BFA8463D
:103EC0004444330648BF2468C9E701A92846FFF7E0
:103ED000A1FFEDE7284630F8024BEAE7284630F923
:103EE000024BE6E7284650F8044BE2E7284650F834
:103EF000084BDEE704F0B0FF08B50346FF2B084689
:103F00000DD003F07003302B0FD004D8202B08D035
:103F100005D904F0A1FF402B0BD0502BF9D1002084
:103F200008BDBDE808400CF0F5B9BDE808400CF04C
:103F3000EEB9BDE808400CF0DCB970B50C4601469E
:103F4000204615461E46FFF7D7FF334601462A4650
:103F50002046BDE87040FFF775BF73B50C461546A7
:103F6000064608B10CF0C5F92246286012F8011B7C
:103F7000FF291CD02B1D3046FFF7DFFF02461046FD
:103F800010F8013BFF2B14D010232B7501A9FFF76C
:103F900032FF019B0344EB6010F8013B6B7501A9F4
:103FA000FFF729FF019B03442B6102B070BD6860DD
:103FB000E5E72B750023EEE71FB503AB0093002365
:103FC0000A4619460BF026FD039805B05DF804FB80
:103FD0002DE9F04F00F0030395B04FF00008012BDE
:103FE0000C461546CDF8248011D0022B04D0002BAE
:103FF0007BD110F0080A7AD0294620460CF064F9EB
:1040000018B1092015B0BDE8F08F0820FAE710F0CC
:10401000080A61D002234AEA030A0EAE0023009682
:104020000C22194628460E940BF024FDBAF1060F17
:104030005FD1276B002F00F06C81D4E90A634FF049
:1040400003090393002E1DDA0EAA03998DF84C8004
:104050002846CDF844B0FFF780FFDDF844809DF896
:104060004C002946FFF748FFF34308EB8303002287
:1040700053F82210002940F04F81C4E90A2004229D
:10408000C4E90C2300230DF134081A461946CDF873
:10409000008028460D940BF0EDFC00231946012208
:1040A000CDF8008028460D960BF0E4FC0F21284641
:1040B000FFF782FF00F00100384300230D90CDF898
:1040C00000800F22194628460BF0D4FCB9F1020FEC
:1040D00000F02481072095E70F6A10460D21FFF7B5
:1040E0006BFF874296D1062395E704F0B5FE0123C6
:1040F00091E728460CF002F9039000283FF47CAFCA
:10410000324603998DF84C804FF0000B2846CDF8CD
:1041100044B0FFF722FF9DF84C80DDF844B02946FB
:1041200081464046FFF7E8FE0F2105901090284693
:10413000FFF742FF20F001077B1E0493129E4E45BD
:1041400019D8002637464FF001091AF0010F00F088
:10415000CC80B9F1020F3FF44FAF0D212846DDF8B6
:104160002480FFF729FF039BA662C4E90808C4E97D
:104170000B37062046E79DF84D704A460AAB394694
:104180000020FFF7DAFE0BAB024639460020FFF7AE
:10419000D4FE0CAB024639460020FFF7CEFE0DA937
:1041A000FFF729FE0A9A0E9B1344049A9342814614
:1041B00051D80B9A1344049A9342BFD90C9F0FB164
:1041C0000F9B1F440D9800283ED001383044002F2B
:1041D0003FF412AF1AF0080306933ED04723237032
:1041E0004E2363705523A3704323E370462323714A
:1041F0004F2363715223A3710023E37100230493BF
:104200000BA9FFF707FE0CA90790FFF703FE0B9E13
:10421000002E67D0BAF1020F59D0002E40DDB8F160
:10422000FF0F39D008F00703042B3FF65EAF01A261
:1042300052F823F06D420008EB4000089D42000850
:104240006D42000895420008002F3FF4D5AE0026CD
:104250004FF0020979E7B14670E7E379012B0CBF13
:1042600054F8203C04F158030993C7E70422059948
:104270000DAB02FB16B24046FFF7E4FD0D9931B1DC
:104280002CB309AB0022204604F09EF9F8B14FF0A0
:1042900003095AE70822EAE70022E8E70222E6E7F4
:1042A0006FEA06090BEB8909BCB1069BABB9099B08
:1042B0000D93A9F1040959F8041F0029E7D00DABAB
:1042C00000224944204604F07FF90028F3D00C98DE
:1042D00040B3079B0344184692E7D9F80030002BFF
:1042E000F5D1D4E701230493F1E71AF0080F0CD0BD
:1042F000B9F1010F01D100F029F8002EBFF6C2AECE
:1043000000F036F804F09DFAF5E7B9F1010F7FF4FB
:1043100099AE204604F0FDF90132A9E6204604F0EA
:10432000A5F9D7E6049B002B91D165E608B5804737
:1043300004F092FD04F085FA04F08EFD024B18683B
:10434000BFF35B8F704700BF1400002008B5FFF774
:10435000F5FFFFF7EBFF08B58047FFF7F7FF000019
:10436000024B1868BFF35B8F704700BF100000203E
:1043700008B5FFF7F5FFFFF7EEFF012810B503D9E9
:1043800051F8140CFFF7D2FFA1F12803BFF35B8FA4
:1043900053E8002F013A43E800200028F8D1BFF38A
:1043A0005B8F5AB951F81C3C01F158040BB12046FF
:1043B00098472046BDE81040FFF764BC10BD0000E0
:1043C00038B5002540E91E1240F8805C0446FFF72E
:1043D000C7FF44F8700CFFF7B1FF472304F8583CBF
:1043E0004E2304F8573C552304F8563C432304F865
:1043F000553C04F8543C2B2304F8533C04F8523C3D
:1044000004F8515C034B44F86C0C44F8503CA4F1A4
:10441000800038BD7B43000870B504460D46164643
:1044200004F060FA4368013343603246294620466F
:10443000FFF7C6FF0446012344F8283B2046FCF75B
:10444000B3FE204604F0FDF9FFF780FF10B504F03D
:1044500049FAD0E90042013242604CB394F820207E
:10446000472A27D194F821204E2A23D194F82220DC
:10447000552A1FD194F82320432A1BD194F82420D5
:10448000432A17D194F825202B2A13D194F82620FB
:104490002B2A0FD194F82720012A0BD862695242A7
:1044A000626120342046FCF7A3FE204604F0C9F9DF
:1044B000FFF74CFF00220260F3E70000314B1A784F
:1044C00073B5314C32B123683048D96805F08AFBA6
:1044D00004F0C2FC01221A7004F008FA002836D059
:1044E00045682B782A2B08BF013500224FF0FF3397
:1044F00011460193284601AB03F0EEFF2368064600
:10450000D968234805F06EFB2368D968019BE3B99D
:10451000304605F067FB23681E48D96805F062FB4A
:10452000019B13B9304604F0FBFCFFF78FFF012914
:104530001ED104F086F903689B68984723680546F6
:10454000D968154805F04EFB05E02846E1E72368E9
:104550001248D968BAE723682846D96805F042FBB3
:1045600023680A20D96805F0CBFA04F093F9AFE785
:1045700004F067F904F08EF9AAE704F08BF903F070
:10458000FFFF00BFF80800203C040020B606010829
:10459000D4060108050701083607010808070108C5
:1045A00008B50420FFF758FB024B034A0349036098
:1045B000FFF732FF30100108A14700081C10010866
:1045C00038B505460820FFF747FB2946044604F0A6
:1045D00019FA054A05492046FFF71EFF2046FFF756
:1045E00051FB03F0CDFF00BF0D8900088C180108B6
:1045F00038B505460820FFF72FFB2946044604F08E
:1046000015FA054A05492046FFF706FF2046FFF741
:1046100039FB03F0B5FF00BF45890008AC1801085D
:104620000FB4F0B583B000AF07F1200454F8046B69
:104630003046FCF725F800F2072323F00703ADEB23
:10464000030D00F500712346324668467C6000F099
:1046500063F80820FFF700FB6946044604F0F0F910
:10466000044A05492046FFF7D7FE2046FFF70AFB1C
:1046700003F086FF6D890008CC180108F0B59DB0E5
:10468000064600AF0C46A41B0D496922381DFBF7F6
:1046900057FF04F1700323F00703ADEB030D68220D
:1046A000391D6846FBF74CFF224631461AA86C4478
:1046B000FBF746FF002384F868306846FFF780FF69
:1046C000420701082DE9F04100AF84B003ACDFF8E8
:1046D00044806D4623464FF00A0CB2FBFCF60CFBFF
:1046E000162E18F80EE003F801ED9646BEF1090FFC
:1046F0003246F2D8E41A8C4209D8C4F10C012246A1
:104700002944FBF71DFF2046BD46BDE8F0814FF070
:10471000FF34F8E7AB07010801392DE9F0410746FE
:10472000164600EB0108044632788AB3444515D298
:10473000252A07D17178732908D07A2917D025291D
:1047400000D1013604F8012B0136EDE753F8042BB4
:10475000013A12F8011F41B1444503D121463846C0
:10476000FFF78CFF04F8011BF3E70236DCE7B178B2
:104770007529E7D11D46A8EB040155F8042B204606
:10478000FFF7A0FF0028E9DD044403362B46CBE702
:104790002270E01BBDE8F08100487047B6070108B1
:1047A00010B5034B03600446FFF718FB204610BD0D
:1047B0003010010810B50446FFF7F2FF204604212F
:1047C000FFF750F9204610BD4F2809D005D81C38F6
:1047D00005288CBF00200120704752380128F8E7D7
:1047E00001207047D0E905139942B8BF036902461A
:1047F000BFBF142000FB013000230131BABFC0E964
:104800000133516100207047502970B50C4616469F
:104810001D464ED8342909D8292917D80A292FD856
:1048200004293DD9002E3ED1354640E0A1F13503A3
:10483000DBB201229A40314B1340002BF2D1304BB6
:1048400013406BBB4F292ED0002530E0A1F12A0385
:10485000082BF9D801A252F823F000BFA74800089E
:10486000A5480008A148000849480008A1480008D8
:10487000A7480008A748000825480008A5480008E0
:10488000A1F10B02D2B2012393401E4A1A40002A22
:10489000C8D11D4A134206D11C4A1A40002AD3D05F
:1048A000002EC1D01DB1FFF79DFF18BB054628465D
:1048B00070BDA1F152030C2BB4D801A252F823F021
:1048C000A7480008A748000825480008A548000890
:1048D000A5480008A1480008254800082548000808
:1048E000A748000825480008254800082548000872
:1048F000A1480008C0E903650470D7E70711C701A4
:10490000F82E000AFE1F005F00C07F00010080003B
:1049100038B50C461546FFF765FF40B100233CB1A2
:104920009D4207DDC0E90133C0E90345037038BD8E
:104930002046FCE71846FAE710B50C4619B1FFF718
:1049400051FF10B90446204610BD28230370C460EF
:10495000F8E770B5C1680B786E2B02BF4B1CC360C3
:104960004B7802460CBF0125002500206FF0004661
:104970000A24303BD9B2092902D905B1404270BDA1
:10498000F11AB1FBF4F1814206DB04FB0030D3687D
:10499000591CD1605B78ECE74FF0FF30EFE738B59A
:1049A0000546FFF71FFF044628B14423037028463D
:1049B000FFF7CFFFE060204638BD10B5044639B997
:1049C000C3681A780AB9002010BD5A1CC260197851
:1049D00068290AD12046FFF7BCFFE3681A785F2AEE
:1049E000F1D10133E3600120EEE77629EBD12046D7
:1049F000FFF7AFFFE3681A785F2AE4D10133E36081
:104A0000E8E710B4C4682378522B0A4605D04F2B30
:104A10000ED1C36A2021033302E0C36A1F2102338F
:104A20000134C362C46000235DF8044BFFF7ECBEA1
:104A300008465DF8044B704710B5C3681B785F2BC0
:104A400004460FD06E2B02D14FF0FF3010BDFFF7A0
:104A500080FF0130F8D4E3681A785F2AF4D101337B
:104A6000E360F3E70020F6E738B5C3681A78542A04
:104A7000044601D0002038BD0133C360FFF7DCFFDE
:104A8000431C0546F6D02046FFF7ACFE0028F2D0C6
:104A900005230370C560EEE738B5C3681A785F2A4E
:104AA000044616D15A1CC2605A785F2A03BF0233EB
:104AB000C36002250125FFF74CFF00280BDB022D08
:104AC00007D1092805DDE3681A785F2A03D101338D
:104AD000E360012038BD0020FCE70346084659B1D9
:104AE000D3E908218A4206DAD96941F82200013265
:104AF0001A620120704700207047000038B5054653
:104B00000C468CB1A368012B0EDCD5F81C11B1F555
:104B1000806F09DC0133A3602378422B40D8232B1C
:104B200003D8082B26D873B938BDA3F12400C0B22E
:104B3000012282402C48104008BB920749D1342BF7
:104B4000F2D12469DDE7013B072BEDD801A252F831
:104B500023F000BF7F4B00087F4B00087F4B00080D
:104B6000C74B0008294B0008294B0008434B00089D
:104B7000434B0008172B02D9193B0A2BD4D801311B
:104B8000C5F81C112846E168FFF7B8FF21692846DF
:104B9000FFF7B4FFD5F81C31013BC5F81C31C3E762
:104BA000453BDBB2192BBFD8012202FA03F30F4AAF
:104BB0001A40002AE3D10E4A134202D113F0180F13
:104BC000B2D0E4689DE7D5F844310133C5F84431EB
:104BD000D5E7E3681B78052B02BFD5F838310133E0
:104BE000C5F83831CBE700BFEC7DFE7FC16F000216
:104BF00006100400D0F8001138B5002545540446CD
:104C0000D0E942329847D4F82831C4F80051013332
:104C1000C4F8283138BD38B5D0F80031FF2B044630
:104C20000D4601D1FFF7E6FFD4F800315A1CC4F855
:104C30000021E55484F8045138BD70B506460C4691
:104C40008D18AC4200D170BD14F8011B3046FFF73F
:104C5000E2FFF6E70346002023B11A78302A01D19B
:104C6000DA6802B970471B690130F5E738B50546C7
:104C700008460C46FBF704FD214602462846BDE8DF
:104C80003840FFF7DABF000010B588B00A46044686
:104C9000044901A805F090F901A92046FFF7E6FFB5
:104CA00008B010BDC507010838B5A1F15A03022BA1
:104CB000154695BF084A094952F8231001230446B6
:104CC00088BFC0F81831FFF7D1FF29462046BDE85C
:104CD0003840FFF7D9BF00BF3C10010807070108A3
:104CE00070B50446FFF735FE051E30DDE6686368E3
:104CF0009B1B9D4229DCA26873195207E36004D50F
:104D0000725D242A04BF0133E360092D1ADD1149C5
:104D10000822304605F072FAA0B9337A2E2B03D060
:104D20005F2B01D0242B0DD1737A4E2B0AD1E36A6D
:104D3000094916335B1BE36215222046FFF7E8FDA5
:104D4000A06270BD2A463146F7E70020F8E7002050
:104D5000F7E700BFC8070108D107010870B5866AE8
:104D600004460D46E3681A78422A02D0A662284615
:104D700070BD0133E3602046FFF7B2FF2A460346C9
:104D80004E212046FFF740FD0546EBE7F8B5044607
:104D90000D46E3681A78572A01D0012017E05A1C03
:104DA000E2605A782F68502A04BF0233E36020463D
:104DB0000CBF56265526FFF793FF314603463A4669
:104DC0002046FFF721FD0146286008B90020F8BD04
:104DD0002046FFF782FE0028DBD1F7E7002906DA3C
:104DE00070470378302B07D121B1006901390028C1
:104DF000F7D17047C0687047002070470346D0F86D
:104E0000100120B14368C9681869FFF7E7BF0122A4
:104E1000C3F818217047000038B505460C4674B138
:104E20002378082B0DD9342B30D021D8183BDBB296
:104E30001B2B26D81B4A42FA03F3DB0721D40020A0
:104E40002FE0082B1DD801A252F823F03F4E000896
:104E5000834E0008834E0008834E0008834E0008EE
:104E6000914E00083F4E00088D4E00088D4E000800
:104E7000433BDBB21C2B04D80B4A22FA03F3DA07BC
:104E8000DDD4E1682846FFF7C7FF50B92469C6E7BB
:104E900021462846FFF7B2FF0028D0D00378302BF8
:104EA000CDD138BDFEFFFEF7E30C00102DE9F04137
:104EB00014465268A5684B1C1344AB4280460F460B
:104EC0001AD9E26892B9002D08BF0225AB420FD86B
:104ED0002068294604F0EAFA064658B9206804F02A
:104EE0001FF8C4E900660123A660E360BDE8F08115
:104EF0006D00EBE72060A560E568002DF6D1D4E9F0
:104F000000033A4618444146FBF71AFBD4E9003245
:104F10003B449D5463683B446360E7E7037803F0D8
:104F2000FD03392B0FD1C368DB681B681A78642A2C
:104F300009D15878692808D000F0DF00A0F15803A3
:104F4000584258417047002070470120704703685D
:104F50005A78632A0AD11878A0F17203012B07D975
:104F6000633801288CBF0020012070470020704763
:104F7000012070472DE9F04F044697B015463AB12D
:104F80005268012A04DCD0F81C31B3F5806F05DDCE
:104F90000123C4F8183117B0BDE8F08F0133013296
:104FA000D0F818716A6002A9C0F81C31D0F82C3111
:104FB00002950393C0F82C11002F40F0CD8095F896
:104FC0000090B9F15F0F00F2798601A353F829F040
:104FD00051510008015200080152000841520008D6
:104FE00049530008A7530008A35F00084354000872
:104FF000695400088D5400089F540008B1540008FB
:10500000D5540008E7540008F95400080B5500086F
:105010001D5500082F55000841550008535500083C
:10502000655500087755000889550008AD550008FA
:10503000E3550008ED550008ED550008ED55000852
:105040003D5700083D5700083D5700083D570008F0
:105050003D5700083D5700083D5700083D570008E0
:105060005D5600085D5600083D5700083D57000892
:1050700095570008CB570008D55700081D58000861
:10508000CD580008BD5C0008CD5800080359000841
:1050900003590008315400085B590008855900087D
:1050A000BD590008BD5C0008D1590008095A000824
:1050B000155A0008595B0008BD5C0008C75C000871
:1050C000BD5C0008BD5C0008835D0008835D0008CE
:1050D000A35E0008D35E0008E75E0008FD5E0008DE
:1050E000C95E0008355F0008CB5F0008DF5F00087D
:1050F000F35F0008BD5C0008B7600008BF550008FA
:10510000D1550008515F0008715100083D57000853
:10511000D3600008F96000083D5700083D570008BB
:1051200095510008D5510008D5510008B951000823
:105130007B5400080D6100083F610008CB57000850
:10514000496100086561000879610008A1570008FD
:10515000D5E90312FFF771FD039BC4F82C316B688E
:10516000013B6B60D4F81C31013BC4F81C3112E7E1
:10517000EA681121FFF7FEFE2046B449FFF776FDED
:1051800020462A691121FFF7F5FE5D212046FFF731
:1051900042FDE1E75B21FFF73EFD2E46F26811215B
:1051A0002046FFF7E7FE3669002E00F01786A84973
:1051B0002046FFF75BFDF1E7EA681121FFF7DAFE11
:1051C00020464021FFF727FD2A6911212046FFF7DD
:1051D000D1FEC1E7EA6812B11121FFF7CBFE2B78AF
:1051E000562B0BD0EB681BB12E212046FFF713FD89
:1051F0002A6911212046FFF7BDFEADE73A21F4E709
:10520000EA681121FFF7B6FE92492046FFF72EFD0E
:105210002E693378492B0DD18F492046FFF726FDA3
:10522000316920460131FFF72FFD8C492046FFF7F9
:105230001DFDF668324611212046FFF79BFE8BE7E5
:10524000D0F81431EE68019300270DF11808C0F86A
:105250001471434639460EB1042F03D10123C4F81B
:10526000183179E7C3E90161D4F81421D4F810A109
:105270001A60C4F81431C3F80CA032781046FFF756
:10528000A3FA01371033002846D1022A0FD136691C
:105290003378492B08BFF66808EB07194FF0000B6D
:1052A000002EDBD03078FFF78FFA002836D1337824
:1052B000042B0ED104ABC4F810313369CDF810A023
:1052C00005961A785E2A04D1DA6832612A69DA60B2
:1052D0002B612A6911212046FFF74CFE3378042BFD
:1052E00004BF049BC4F8103108EB071858F8083CB9
:1052F000013F4BB920212046FFF78DFC58F80C2CBC
:105300001121204600F068FFA8F11008002FEDD110
:10531000019BC4F814311FE7F6689CE7042F09F1DC
:10532000100C9BD0A9F1100E9EE80F0089E80F0029
:105330004CF810EC49E9036BC4F8149149F804AC3B
:10534000F6680137E146ABE70023D0F84861D0F8B2
:105350001471EA68C0F81431C0F848511121FFF700
:1053600009FE94F804313C2B03D120212046FFF79D
:1053700052FC3C212046FFF74EFC2A6911212046B1
:10538000FFF7F8FD94F804313E2B03D1202120468D
:10539000FFF741FC3E212046FFF73DFCC4F81471A5
:1053A000C4F84861D8E6EA68D0F82031511C8B4235
:1053B00017DDD0F810315B68DB6811462BB141B9BD
:1053C00019785D2908D1DB6833B90123C4F8183195
:1053D000C2E61B690139F1E719782046FFF764FC42
:1053E000BAE64BB11E490522FFF727FCE9682046C3
:1053F0000131FFF749FCAFE62946FFF7FFFC024603
:105400000028E2D00378302B06D1D4F82411FFF71E
:10541000E5FC02460028D8D0D4F810613368C4F8FF
:10542000103111212046FFF7A5FDC4F8106193E665
:105430000C49FFF71BFCEA6811212046FFF79AFD93
:105440008AE62A691121FFF795FD85E6E70701083D
:10545000ED070108FF070108F0070108FE07010832
:1054600002080108080801087E21FFF7D4FB2A6919
:1054700011212046FFF77EFD6EE6B249FFF7F6FBED
:10548000EA6811212046FFF775FD65E6AE49FFF792
:10549000EDFBEA6811212046FFF76CFD5CE6AB49A5
:1054A000FFF7E4FBEA6811212046FFF763FD53E6AE
:1054B000A749FFF7DBFBEA6820461121FFF75AFDF9
:1054C0002046A449FFF7D2FB2A6911212046FFF7A5
:1054D00051FD41E6A049FFF7C9FBEA6811212046CA
:1054E000FFF748FD38E69D49FFF7C0FBEA68112148
:1054F0002046FFF73FFD2FE69949FFF7B7FBEA6823
:1055000011212046FFF736FD26E69649FFF7AEFB50
:10551000EA6811212046FFF72DFD1DE69249FFF7AD
:10552000A5FBEA6811212046FFF724FD14E68F4908
:10553000FFF79CFBEA6811212046FFF71BFD0BE6F5
:105540008B49FFF793FBEA6811212046FFF712FD14
:1055500002E68849FFF78AFBEA6811212046FFF737
:1055600009FDF9E58449FFF781FBEA68112120462E
:10557000FFF700FDF0E58149FFF778FBEA681121AC
:105580002046FFF7F7FCE7E57D49FFF76FFB2A6947
:1055900020461121FFF7EEFC20467A49FFF766FB13
:1055A000EA6811212046FFF7E5FCD5E57649FFF7CB
:1055B0005DFBEA6811212046FFF7DCFCCCE573496E
:1055C000FFF754FBEA6811212046FFF7D3FCC3E53F
:1055D0006F49FFF74BFBEA6811212046FFF7CAFC31
:1055E000BAE5D5E90312FFF728FBB5E5D0F8142199
:1055F00012BB2E46D4F81431069306ABC4F814310E
:1056000000230893D4F810310796099302B9F26881
:1056100011212046FFF7AEFC089B23B93246112129
:10562000204600F0D9FD069BC4F81431002F3FF44A
:1056300093ADC4F810818FE593686BB95168097810
:10564000A1F11900022878D8894505D1EA6811210D
:105650002046FFF78FFC7FE51268C9E7D0F82031BC
:10566000EE68002B60D13278052A5CD1D0F8342165
:10567000934207DBD4F838319A420DDB0123C4F89A
:10568000183169E5D4F8300100EBC30750F8330056
:10569000864236D00133EBE7D4F83011501C01EBD1
:1056A000C203C4F8340141F83260D4F81021043345
:1056B000B2B91A60002731462046FFF79FFB064625
:1056C00040B10378302B2FD1D4F82411FFF786FB9B
:1056D000064648BB002F3FF478AEC4F8108174E64C
:1056E000D4E950718F42C9DAD4F83C01516800EB1B
:1056F000C7000137C4F84071416018601268034662
:10570000D6E70B461A689642D4D0954201D18B4217
:10571000D0D15B68002BF5D17B68D4F81081C4F838
:1057200010310127C7E71F463378242B07D099454E
:1057300005D0252B02D1F2685BE71F462E460022DA
:1057400058E700BF27080108550801083F0801086D
:105750004808010861080108660801087408010882
:1057600087080108980801089C080108AE0801088C
:10577000C9080108D9080108ED0801080409010851
:105780001E09010842080108340901084A090108F4
:1057900046090108EB68D3E90012FFF74EFADBE493
:1057A000EB68D3E90012FFF748FAB5F9101020466C
:1057B000FFF76AFAAB7C002B3FF4CEAC012205F177
:1057C00012012046FFF739FAC6E4EA681121FFF713
:1057D000D1FBC1E4EA68CAB1D0F81431069306AB34
:1057E000C0F81431002308931121D0F81031099327
:1057F0000795FFF7BFFB069BC4F81431089B002BED
:105800007FF4AAAC20212046FFF705FAD4F8143122
:105810002A461121204600F0D5FD9DE4D0F81491D0
:10582000CDF8189000230DF1180808930127D0F83F
:105830001031C0F8148107950993CC46BE46BCF1DF
:10584000000F05D0DCF804301B78193B022B14D96B
:105850002A6911212046FFF78DFB089BC4F814919B
:10586000002B7FF479AC012F27D8D4F814312A46C5
:105870001121204600F07AFE6EE4DCF80830CBB946
:10588000032F03D90123C4F8183165E416AB03EBE9
:10589000071A9CE80F00AAF1400686E80F00D4F82A
:1058A00014314AF8403C08EB0713C4F814310137AF
:1058B000CCF808E0DCF800C0C1E7013F08EB0713B3
:1058C00011215A68204600F087FCCCE7D0F814314B
:1058D000069306ABC0F81431002308932A69D0F868
:1058E0001031099311210795FFF744FB089B23B959
:1058F0002A461121204600F06FFC069BC4F81431A3
:105900002AE4EA6812B11121FFF734FB2B69002B5E
:105910003FF422ACD4F80031FD2B02D92046FFF72A
:1059200069F9A2492046FFF7A1F92A69D4F828713C
:10593000D4F8006111212046FFF71CFBD4F8283170
:105940009F427FF409ACD4F800319E427FF404AC4E
:10595000023EC4F80061FFF7FFBBD5E9032612B190
:105960001121FFF707FB20467B21FFF754F9204662
:1059700032461121FFF7FEFA7D212046FFF74BF951
:10598000FFF7EABBEF688A49BE68FFF76FF97B68EB
:105990001B78613B192B03D820212046FFF73BF9E8
:1059A00079688B19204613F8013C202B08BF06F1BB
:1059B000FF363246FFF741F9FFF7CEBB7D49FFF7CF
:1059C00055F92A6911212046FFF7D4FAFFF7C4BB25
:1059D0007849FFF74BF9D4F84831EA6833B1D4F885
:1059E0001011069106A9C4F8101107931121204641
:1059F000FFF7C0FAD4F84831002B3FF4ADAB069B5B
:105A0000C4F81031FFF7A8BBEA68112100F0ECFDE3
:105A1000FFF7A2BBD5E9039699F80030332B54D198
:105A2000D9F80C306449D3F800804046FAF7C8FB37
:105A30003378D8B9032B19D1F3681A78012A04D125
:105A4000326912782A2A08BF1E465C494046FAF796
:105A5000B7FBC8B931462046FFF7DEF9FFF7FAF881
:105A600001462046FFF710F9FFF776BB3A2BECD141
:105A7000F2682046112100F0C2FD4A46112120465D
:105A800000F0B2FDFFF768BB4D494046FAF798FBBE
:105A90000746F0B916B13378302B05D03946204689
:105AA000FFF7F2F8FFF758BBF368002BF6D01A782F
:105AB0004D2A08D1D9682046FFF7AEF9FFF7CAF89A
:105AC00007443669E6E70137FBE7352B10D04FF086
:105AD00000084A461121204600F086FDB8F1000F6B
:105AE00014D132461121204600F089FDFFF734BB66
:105AF0002821FFF790F82046D9F80C201121FFF754
