:020000040800F2
:1000000000000120352E0008490F00084B0F0008A2
:100010004D0F00084F0F0008510F000800000000AE
:10002000000000000000000000000000530F000866
:10003000550F000800000000570F0008590F000876
:10004000852E0008852E0008852E0008852E0008C4
:10005000852E0008852E0008852E0008852E0008B4
:10006000852E0008852E0008852E0008852E0008A4
:10007000852E0008852E0008852E0008610F0008D7
:10008000852E0008852E0008852E0008000000003F
:10009000000000000000000000000000852E0008A5
:1000A000852E0008852E0008852E0008852E000864
:1000B000852E0008852E0008852E0008852E000854
:1000C000852E0008852E0008852E0008852E000844
:1000D000852E0008852E0008852E000800000000EF
:1000E000852E0008710F0008852E00080000000012
:1000F000000000000000000000000000852E000845
:1001000000000000852E0008852E0008852E0008BE
:1001100000000000000000000000000000000000DF
:10012000852E0008852E0008852E0008852E0008E3
:10013000852E000800000000000000000000000004
:10014000000000000000000000000000852E0008F4
:10015000852E0008852E0008852E0008852E0008B3
:10016000852E0008852E0008000000000000000019
:10017000000000000000000000000000000000007F
:1001800000000000852E00080000000000000000B4
:04019000852E0008B0
:1001A00002780B78012A28BF9A4240F0D8806DE986
:1001B000044540EA0104CDE902676FF0000C4FEA04
:1001C00044721AB380EA010414F0070F6BD100F0F7
:1001D000070420F0070004F0030521F007014FEAAF
:1001E000C505F0E8042314F0040FF1E804670CFAE5
:1001F00005F462EA040266EA04060BD063EA04032B
:10020000624667EA0407664604E000BFF0E804239C
:10021000F1E8046782FA4CF582EA0604A4FA8CF449
:100220006CBB83FA4CF583EA0705A5FA8CF595B902
:1002300050E9022351E9026782FA4CF582EA06048A
:10024000A4FA8CF483FA4CF583EA0705A5FA8CF539
:100250002543DBD09CB92DBAB5FA85F424F0070408
:1002600027FA04F1DDE9026723FA04F303F0FF0043
:1002700001F0FF01FDE80445A0EB0100704724BA3E
:10028000B4FA84F424F0070426FA04F1DDE90267E5
:1002900022FA04F202F0FF0001F0FF01FDE804453C
:1002A000A0EB0100704714F0030F3CD110F00304E1
:1002B00028D150F8082B51F8083B82FA4CF582EA15
:1002C0000305A5FA8CF55DB950F8042C51F8043CEF
:1002D00082FA4CF582EA0305A5FA8CF5002DE8D0E8
:1002E0002DBAB5FA85F424F0070423FA04F122FAB2
:1002F00004F202F0FF0001F0FF01FDE80445A0EB6D
:10030000010070474FEAC40420F0030050F8082BA6
:1003100021F0030151F8083B0CFA04F462EA0402EC
:1003200063EA0403C9E710F003041DD0A1EB040144
:1003300020F00300E40750F8042B06D012D28B788B
:100340005FFAA2F4E41A06D12BB1CB785FFAB2F4CB
:10035000E41A00D133B920465DF8104B7047A2EB88
:100360000300704701F1040150F8042BCC0721F081
:10037000030151F8043B48D824D222F07F4482FA8A
:100380004CF594EA1325A5FA8CF50AD165B951F814
:10039000043B84EA0204B4EB036F0ED150F8042B43
:1003A000EBE74FEA132355E035F07F454DD1087850
:1003B000FDE80445C0F1000070474FEA126203F007
:1003C000FF0347E002EA1C4482FA4CF594EA134525
:1003D000A5FA8CF50AD165B951F8043B84EA020408
:1003E000B4EB034F0CD150F8042BEBE74FEA134367
:1003F00030E015EA1C4528D10B884FEA124229E06B
:100400004FEA124203EA1C4324E002F0FF0482FA9E
:100410004CF594EA1365A5FA8CF50AD165B951F843
:10042000043B84EA0204B4EB032F09D150F8042BF7
:10043000EBE74FEA13630DE015F0FF0F05D10B68F2
:100440004FEA122223F07F4304E04FF00000FDE862
:100450000445704712BA1BBA82FA4CF482EA0304CC
:10046000A4FA8CF5B5FA85F402FA04F203FA04F35F
:100470004FEA1260FDE80445A0EB1360704700BF2F
:1004800053B94AB9002908BF00281CBF4FF0FF31FB
:100490004FF0FF3000F0E2B8ADF1080C6DE904CE8A
:1004A00003F076F8DDF804E0DDE9022304B07047DC
:1004B00000F1340191E838009C46A6464CF8045DF2
:1004C00090E8FF0FE54600BD90EC210B704700BFA0
:1004D00080EC210B704700BF90EC200B704700BFF1
:1004E00080EC200B704700BFD0EC200B704700BFA2
:1004F000C0EC200B704700BFF0EC0201F0EC0211E1
:10050000F0EC0221F0EC0231F0EC0241F0EC02518F
:10051000F0EC0261F0EC0271F0EC0281F0EC02917F
:10052000F0EC02A1F0EC02B1F0EC02C1F0EC02D16F
:10053000F0EC02E1F0EC02F1704700BFE0EC0201E8
:10054000E0EC0211E0EC0221E0EC0231E0EC0241CF
:10055000E0EC0251E0EC0261E0EC0271E0EC0281BF
:10056000E0EC0291E0EC02A1E0EC02B1E0EC02C1AF
:10057000E0EC02D1E0EC02E1E0EC02F1704700BFF8
:10058000B0FC0181B0FC0191B0FC01A1B0FC01B153
:10059000704700BFA0FC0181A0FC0191A0FC01A15B
:1005A000A0FC01B1704700BFEC4600B52DE900503A
:1005B0002DE9FF1F4FF000032DE90C0001A903F006
:1005C00083FADDF840E012B0704700BFEC4600B59A
:1005D0002DE900502DE9FF1F4FF000032DE90C001D
:1005E00001A903F0ACFADDF840E012B0704700BF9B
:1005F000EC4600B52DE900502DE9FF1F4FF0000338
:100600002DE90C0001A903F0BAFADDF840E012B0C0
:10061000704700BFEC4600B52DE900502DE9FF1FE3
:100620004FF000032DE90C0001AB03F07EFADDF87A
:1006300040E012B0704700BFEC4600B52DE9005015
:100640002DE9FF1F4FF000032DE90C0001AA03F074
:1006500005FBDDF840E012B0704700BF704700BFF7
:10066000844641EA000313F003036DD1403A41D3BD
:1006700051F8043B40F8043B51F8043B40F8043B7C
:1006800051F8043B40F8043B51F8043B40F8043B6C
:1006900051F8043B40F8043B51F8043B40F8043B5C
:1006A00051F8043B40F8043B51F8043B40F8043B4C
:1006B00051F8043B40F8043B51F8043B40F8043B3C
:1006C00051F8043B40F8043B51F8043B40F8043B2C
:1006D00051F8043B40F8043B51F8043B40F8043B1C
:1006E00051F8043B40F8043B51F8043B40F8043B0C
:1006F000403ABDD2303211D351F8043B40F8043BAC
:1007000051F8043B40F8043B51F8043B40F8043BEB
:1007100051F8043B40F8043B103AEDD20C3205D3BB
:1007200051F8043B40F8043B043AF9D2043208D0B3
:10073000D2071CBF11F8013B00F8013B01D30B8825
:1007400003806046704700BF082A13D38B078DD003
:1007500010F003038AD0C3F10403D21ADB071CBFD5
:1007600011F8013B00F8013B80D331F8023B20F83F
:10077000023B7BE7043AD9D3013A11F8013B00F878
:10078000013BF9D20B7803704B7843708B78837000
:100790006046704710B5054C237833B9044B13B14C
:1007A0000448AFF300800123237010BD4C050020E6
:1007B000000000000C45000808B5034B1BB10349BD
:1007C0000348AFF3008008BD000000005005002082
:1007D0000C4500080A4B0B4919600B4A1A600022AD
:1007E0001A710A4898600A4818600A4B19600A4949
:1007F00019601A71094A9A60094A1A60704700BF65
:100800007C050020E8450008F4450008A406002007
:1008100000460008700500200C4600082406002051
:1008200018460008012303717047012303717047C4
:100830002DE9F0418AB005AD002405940694079493
:100840000894099401942D4B1A6B42F004021A6328
:100850001A6B02F004020192019A02941A6B42F0A0
:1008600080021A631A6B02F080020292029A0394C9
:100870001A6B42F001021A631A6B02F00102039232
:10088000039A04941A6B42F002021A631B6B03F082
:1008900002030493049B1A4E22461A21304600F0AC
:1008A000F5FE184F224640F20141384600F0EEFEB8
:1008B0001A2305934FF00108CDF818800794089487
:1008C0002946304600F0FEFD40F201430593CDF885
:1008D0001880079408942946384600F0F3FD4FF439
:1008E000807305930223069307940894099429467C
:1008F000304600F0E7FD0AB0BDE8F0810038024064
:10090000000002400004024000B583B000210191C4
:10091000094B1A6B42F400121A631B6B03F40013A9
:100920000193019B0A460F2000F0DAFB0F2000F034
:10093000E7FB03B05DF804FB0038024008B5034B49
:10094000186803681B68984708BD00BF6805002049
:1009500008B5034B586803681B68984708BD00BF7B
:1009600068050020014B43F82010704768050020FF
:1009700072B6FEE708B50A480A4B03600A4B4360AB
:1009800000238360C3604FF480420261436183614E
:10099000C361036200F080FE00B908BDFFF7E8FF05
:1009A000EC06002000540040A086010008B50B486A
:1009B0000B4B03604FF400734360102383600523E7
:1009C000C36000230361074A42618361C36103621C
:1009D00000F040FF00B908BDFFF7CAFFA4060020E1
:1009E000003800400077010008B50D480D4B03604A
:1009F0004FF48273436000238360C36003614361EB
:100A00004FF400728261C3610362436283620A230E
:100A1000C36202F0F8F800B908BDFFF7A9FF00BFF4
:100A2000CC0500200030014008B50B480B4B03609B
:100A30004FF4E133436000238360C36003610C2201
:100A400042614FF440728261C36102F0C3F900B9A0
:100A500008BDFFF78DFF00BF880500200010014092
:100A600010B590B000240B940C940D940E940F9438
:100A70000A9428222146684602F030FB2B482C4B72
:100A8000036044607F238360FF23C3604FF400133F
:100A900003614FF4801343614FF48023836101F0BD
:100AA000D6FE002839D100238DF82C308DF82D305A
:100AB0008DF82E300E930F9301220BA91B4801F0E5
:100AC00019FF60BB01228DF828208DF829208DF8B0
:100AD0002A2000238DF82B300AA9144801F06AFF60
:100AE000F8B900238DF800308DF8013010228DF810
:100AF00002200193039304930E4A059206930793F1
:100B000001228DF820204FF480730993694607482D
:100B100001F09EFF38B910B010BDFFF729FFFFF7B5
:100B200027FFFFF725FFFFF723FF00BF2406002064
:100B3000002800400080808010B594B008AC3022BE
:100B40000021204602F0CAFA002303930493059380
:100B5000069307930193254A116C41F0805111646B
:100B6000126C02F080520192019A0293204A13689B
:100B700023F4404343F400431360136803F44043F9
:100B80000293029B0B2308934FF4803309930123B4
:100B90000B9310220C920D9302230E934FF48002BC
:100BA0000F9219221092A8221192129304231393E8
:100BB000204601F067F9A0B90F23039302210491A5
:100BC000002305934FF480520692079303A801F087
:100BD000F7FB40B900221146104601F04FFB14B05C
:100BE00010BDFFF7C5FEFFF7C3FE00BF003802408F
:100BF0000070004008B500F0F3F9FFF79DFFFFF724
:100C000017FEFFF781FEFFF7B5FEFFF7CFFEFFF7F8
:100C1000EBFEFFF709FFFFF723FF06490020FFF770
:100C2000A1FE05490120FFF79DFE044800F026F8CB
:100C3000FEE700BF7C050020700500202406002090
:100C400008B5FFF7C7FD08BD08B5094A136843F0AA
:100C5000040313600268D368DBB263F49063D3606B
:100C600000F0EAF90121084601F0F0F808BD00BFE4
:100C70000070004008B500F0E6F908BD10B5044664
:100C80002046FFF7E1FFFFF7F5FFF9E782B000210B
:100C900000910B4B5A6C42F480425A645A6C02F435
:100CA00080420092009A01911A6C42F080521A64BC
:100CB0001B6C03F080530193019B02B0704700BF8F
:100CC0000038024030B589B00023039304930593A4
:100CD000069307930268144B9A4201D009B030BDC5
:100CE00000250195114C236B43F002032363236B12
:100CF00003F002030193019BC02303931223049387
:100D0000032306930423079303A9094800F0DAFBA1
:100D10000295236C43F400132364236C03F4001343
:100D20000293029BDAE700BF005400400038024003
:100D30000004024030B58DB0002307930893099357
:100D40000A930B930293039304930593069302680B
:100D5000294B9A4201D00DB030BD044601230293C5
:100D6000C02303930423049302A801F0FFFB00288F
:100D70003CD100250095214B1A6C42F480421A6444
:100D80001A6C02F480420092009A01951A6B42F0AC
:100D900002021A631B6B03F002030193019B4FF4E1
:100DA000304307930223089309950A9505230B9373
:100DB00007A9134800F086FB1248134B03604560F7
:100DC00040238360C5604FF4806303614FF4006388
:100DD00043614FF400538361C5610562456200F0D1
:100DE0001DFA30B9074BA3639C63B4E7FFF7C0FD5E
:100DF000BFE7FFF7BDFDF5E70038004000380240CF
:100E000000040240440600207060024000B587B034
:100E100000230193029303930493059302680F4BFD
:100E20009A4202D007B05DF804FB022301934FF40D
:100E30000073049301A801F099FB60B9084B0122EB
:100E4000C3F83C2E00221146292000F049F9292040
:100E500000F056F9E6E7FFF78BFDEFE700280040CA
:100E60000000474200B589B0002303930493059323
:100E7000069307930268154B9A4202D009B05DF8B9
:100E800004FB0021019103F584335A6C42F4805233
:100E90005A645A6C02F480520192019A02911A6BC0
:100EA00042F001021A631B6B03F001030293029BE1
:100EB000E02303930223049303230693052307935C
:100EC00003A9034800F0FEFAD8E700BF0030014054
:100ED0000000024000B589B00023039304930593FA
:100EE00006930793026803F1804303F588339A421F
:100EF00002D009B05DF804FB0021019103F59433A1
:100F00005A6C42F010025A645A6C02F010020192BC
:100F1000019A02911A6B42F001021A631B6B03F0F3
:100F200001030293029B4FF4F053039302230493B3
:100F3000032306930723079303A9024800F0C2FA8C
:100F4000D7E700BF00000240FEE7FEE7FEE7FEE74E
:100F5000FEE770477047704708B500F05BF808BDC2
:100F600008B5024800F0C0F908BD00BF44060020E3
:100F700008B5024801F0EAFB08BD00BF24060020C6
:100F8000034AD2F8883043F47003C2F888307047BF
:100F900000ED00E010B504460E4B1A784FF47A735A
:100FA000B3FBF2F30C4A1068B0FBF3F000F0B6F8B4
:100FB00068B90F2C01D901200AE0002221464FF028
:100FC000FF3000F08DF8054B1C60002000E0012090
:100FD00010BD00BF04000020000000200800002019
:100FE00008B50B4B1A6842F400721A601A6842F492
:100FF00080621A601A6842F480721A60032000F05E
:101000005DF80F20FFF7C6FFFFF740FE002008BD88
:10101000003C0240034A1168034B1B780B441360E9
:10102000704700BF4007002004000020014B1868F3
:10103000704700BF400700204FF0E022136923F003
:101040000203136170474FF0E022136943F002037B
:1010500013617047002808DB0901C9B200F1604044
:1010600000F5614080F80013704700F00F0009019F
:10107000C9B2014B1954704714ED00E000B500F0FF
:101080000700C0F1070CBCF1040F28BF4FF0040C9F
:10109000031D062B0FD9C31E4FF0FF3E0EFA0CF0B6
:1010A00021EA000199400EFA03FE22EA0E0241EA0B
:1010B00002005DF804FB0023EEE70000074AD36856
:1010C00023F4E0631B041B0C000200F4E060034304
:1010D00043F0BF6343F40033D360704700ED00E09A
:1010E00010B50446054BD868C0F30220FFF7C6FFD1
:1010F00001462046FFF7AEFF10BD00BF00ED00E047
:10110000002807DB00F01F02400901239340024A38
:1011100042F82030704700BF00E100E00138B0F134
:10112000807F0BD24FF0E0235861054AF02182F80E
:1011300023100020986107221A6170470120704730
:1011400000ED00E010B40368D9B210390A4AA2FBDE
:1011500001421209094CA25CC2655F2907D96FF3ED
:10116000090304338365806D5DF8044B70476FF3AA
:1011700009038365F7E700BFABAAAAAA34460008B3
:10118000836A826992B9012B0AD0022B02D00BB17B
:1011900000207047C36A13F0807F2FD10020704772
:1011A000C36AB3F1C07F2BD000207047B2F5005F57
:1011B00009D0022B2CD9032B2CD1C36A13F0807FCA
:1011C0002AD100207047032B0AD801A252F823F03D
:1011D00005120008E511000805120008F1110008C9
:1011E00000207047C36A13F0807F0DD10020704744
:1011F000C36AB3F1C07F09D0002070470120704757
:10120000012070470120704701207047012070477E
:1012100001207047002070470120704770B50446D8
:10122000FFF704FF002C5BD00546022384F835301D
:10123000002384F834302268136823F0010313601C
:1012400023681A6812F0010F0AD0FFF7EFFE431B64
:10125000052BF5D920236365032084F8350070BD84
:101260001A68204911406268A0680243E06802439E
:101270002069024360690243A0690243E0690243B6
:10128000206A02430A43616A04291ED01A60266854
:10129000756925F00705636A1D43042B07D1A36A0E
:1012A0001D43E36A1BB12046FFF76AFF90B97561E1
:1012B0002046FFF747FFE26D3F2393408360002005
:1012C0006065012384F83530C9E7E16A206B01438A
:1012D0000A43DBE740236365012084F83500BEE75D
:1012E0000120BCE73F8010F0F0B583B00446002336
:1012F0000193724B1D68724BA3FB0535AD0A876DD8
:101300003E68C26D08239340334210D003681A68C8
:1013100012F0040F0BD01A6822F004021A60C26D9A
:1013200008239340BB60436D43F001034365E26DC6
:1013300001239340334209D02268526912F0800F92
:1013400004D0BB60636D43F002036365E26D042368
:101350009340334209D02268126812F0020F04D081
:10136000BB60636D43F004036365E26D102393403B
:10137000334224D02268126812F0080F1FD0BB60DD
:1013800023681A6812F4802F0DD01B6813F4002F05
:1013900004D1236C9BB12046984710E0A36C73B135
:1013A000204698470BE01A6812F4807F03D11A6830
:1013B00022F008021A60236C0BB120469847E26DB8
:1013C00020239340334254D02268126812F0100F49
:1013D0004FD0BB6094F83530052B0ED023681A68C7
:1013E00012F4802F33D01B6813F4002F2AD1636CC2
:1013F000002B3ED0204698473BE02268136823F03C
:10140000160313602268536923F080035361236C31
:10141000A3B12268136823F008031360E26D3F2331
:101420009340BB60012384F83530002384F83430C6
:10143000236D002B3FD0204698473CE0A36C002B47
:10144000E7D1EBE7E36BA3B12046984711E01A68B8
:1014500012F4807F09D11A6822F010021A60012369
:1014600084F83530002384F83430E36B0BB1204628
:101470009847636DFBB1636D13F0010F17D005231F
:1014800084F835302268136823F001031360019B50
:1014900001330193AB4204D823681B6813F0010F9A
:1014A000F5D1012384F83530002384F83430E36C1F
:1014B0000BB12046984703B0F0BD00BF00000020EC
:1014C000B5814E1B00230F2B00F2D78070B582B080
:1014D00065E085684FEA430E032404FA0EF425EA1A
:1014E0000405CC6804FA0EF42C438460446824EAB2
:1014F00002044A68C2F300129A40224342605CE050
:10150000DC08083450F8242003F00705AD004FF044
:101510000F0E0EFA05FE22EA0E0E0A69AA4042EAF2
:101520000E0240F824205CE0042200E0002202FACF
:101530000EF22A430234514D45F82420504A946853
:101540006FEA0C0224EA0C054E6816F4801F01D0E5
:101550004CEA04054A4CA560E46802EA04054E68BA
:1015600016F4001F01D04CEA0405454CE5606468A0
:1015700002EA04054E6816F4003F01D04CEA040567
:101580003F4C6560246822404D6815F4803F01D0CF
:101590004CEA04023A4C226001330F2B6BD8012233
:1015A0009A400C6804EA020C32EA0404F4D14C6854
:1015B00004F00304013C012C8BD94A6802F00302B9
:1015C000032A09D0C4685D000322AA4024EA020469
:1015D0008A68AA402243C2604A6802F00302022AD3
:1015E0008ED004684FEA430E032202FA0EF224EA78
:1015F00002044A6802F0030202FA0EF22243026079
:101600004A6812F4403FC7D0002201921D4A546C30
:1016100044F480445464526C02F480420192019A72
:101620009C08A51C154A52F8255003F0030E4FEAFA
:101630008E0E0F2202FA0EF225EA0205124A90429D
:101640003FF474AF02F5806290420ED002F58062E2
:1016500090420CD002F5806290420AD002F580627E
:1016600090423FF461AF072261E701225FE7022267
:101670005DE703225BE702B070BD704700380140B0
:10168000003C014000380240000002400AB1816184
:101690007047090481617047002800F0CC8070B564
:1016A000044690F83D30002B77D0242384F83D3059
:1016B0002268136823F0010313602268136843F45F
:1016C000004313602268136823F40043136000F0A2
:1016D0002DFF62685A4B9A4264D85A4B98428CBF8D
:1016E00000230123002B40F0A8805749A1FB0031C3
:1016F0008B0C25686A6822F03F0242EA91426A60D8
:1017000021680A6A22F03F0266684D4DAE424FD80A
:10171000013313430B622168CA6922F44F4222F05D
:10172000FF026568464B9D424CD8431E6D00B3FBDB
:10173000F5F3013340F6FC70034278D0C3F30B039A
:101740001A43CA6121680B6823F0C003E269206A6A
:10175000024313430B6021688B6823F4034323F097
:10176000FF032269E068024313438B602168CB6862
:1017700023F0FF036269A06902431343CB60226830
:10178000136843F00103136000202064202384F8D1
:101790003D30206384F83E0070BD80F83C30FFF798
:1017A00091FA82E7294B98428CBF0023012399E7E5
:1017B0004FF4967505FB03F3254DA5FB03539B09D9
:1017C0000133A6E7A668BEB9431E05EB450CB3FB83
:1017D000FCF30133C3F30B03B3FA83F35B0943BB9D
:1017E000C6B9431E05EB4505B3FBF5F30133C3F35F
:1017F0000B0343F40043A3E7431E05EB850C0CEBFE
:101800008C0CB3FBFCF30133C3F30B03B3FA83F388
:101810005B09E4E7431E05EB850505EB8505B3FB96
:10182000F5F30133C3F30B0343F4404388E7042388
:1018300086E7012384E7012070470120ACE700BF61
:10184000A08601007F841E0083DE1B43FF083D004D
:10185000D34D6210002800F0BE8038B5044690F8E1
:101860004130002B51D0022284F841202168CB69FD
:1018700023F47B6323F00F03CB6123681A6263694F
:10188000934269D0E368002B46D11025A368202B32
:1018900000D86D00012000F01FFF2369B3F5007F21
:1018A0003CD0B0FBF5F000EB800043006269B3FB75
:1018B000F2F30533494AA2FB0323C3F3C002C2EB90
:1018C000D3035B0811029A1EFD2A3FD822690A43FE
:1018D00021681A430A622168CB6923F47B6323F0F1
:1018E0000F036268A0680243E0680243A0690243F4
:1018F000134343F40063CB61236A012B2ED00020F5
:101900006064012384F8413038BD80F84030344BA6
:101910004363FFF70FFAA6E72025B7E7E36853B163
:10192000AD00B0FBF5F000EB800043006269B3FB53
:10193000F2F30533BEE7ED00B0FBF5F000EB8000FD
:1019400043006269B3FBF2F30533B3E7636C43F022
:10195000100363640120D7E70021B7E7214B6363DD
:101960002268214B9A421FD04FF04022D36923F4C2
:101970007B6323F00F03D36122681B4B9A4215D07F
:101980004FF04022022313622268174B9A420FD075
:101990004FF04025EB699BB26268B2F5007F09D039
:1019A000BAB94FF4807007E0104ADFE70F4AE9E761
:1019B0000E4DEFE74FF48070B4F808C0A189228B78
:1019C00040EA0C0001430A43134343F40063EB6114
:1019D00095E70020F0E70120704700BFCDCCCCCCCC
:1019E000651A0008751C00080038004000340040EB
:1019F00008B5426A03681288DA60436A02334362B8
:101A0000438D9BB2013B9BB24385438D9BB203B197
:101A100008BD0268536823F0A0035360012380F8D7
:101A20004130FEF78BFFF3E7704708B50368DA68CB
:101A3000C36A1A80C36A0233C362438E9BB2013BFE
:101A40009BB24386438E9BB203B108BD02685368C4
:101A500023F060035360012380F84130FFF7E4FF77
:101A6000F3E7704710B584B0044603689A680392A0
:101A700090F84120042A05D094F84130032B2CD053
:101A800004B010BD039A12F0010F03D05B6813F08D
:101A9000400F1FD1039B13F0400FEDD023685A680D
:101AA00012F0200FE8D05A6822F060025A6000233A
:101AB00001932368DA6801929B680193019B0123DB
:101AC00084F84130636C43F0020363642046FFF7FF
:101AD000C8FFD1E7FFF7A9FFDCE7039B13F0020F74
:101AE00004D023685B6813F0800F1DD1039B13F0B3
:101AF000080FC5D023685A6812F0200FC0D05A686A
:101B000022F0A0025A600023029323689B6802938C
:101B1000029B012384F84130636C43F00403636447
:101B20002046FFF79EFFABE72046FFF761FFDDE7AA
:101B3000704708B5436A9A1C426202681B88D360EA
:101B4000438D9BB2013B9BB24385438D9BB23BB916
:101B50000268536823F0A0035360438E9BB203B125
:101B600008BD012380F84130FFF7E2FFF8E70000ED
:101B700008B50268154B9A421CD04FF04023DA6832
:101B8000C36A991CC1621A80438E9BB2013B9BB20F
:101B90004386438E9BB263B902680C4B9A420CD0C9
:101BA0004FF04022536823F060035360438D9BB293
:101BB0002BB108BDA3F58063E1E7054AF2E70123F5
:101BC00080F84130FFF7B4FFF3E700BF0038004072
:101BD0000034004008B5436A9A1C42621A880168C2
:101BE000134B994218D04FF04023DA60438D9BB2DB
:101BF000013B9BB24385438D9BB263B902680C4B9A
:101C00009A420CD04FF04022536823F0A003536057
:101C1000438E9BB22BB108BDA3F58063E5E7054A6F
:101C2000F2E7012380F84130FFF782FFF3E700BFBE
:101C3000003800400034004008B50368DA68C36A21
:101C4000991CC1621A80438E9BB2013B9BB24386B2
:101C5000438E9BB23BB90268536823F06003536024
:101C6000438D9BB203B108BD012380F84130FFF7DB
:101C70005FFFF8E710B586B0044603689A680592DE
:101C8000704A93426FD04FF04022916804915B6894
:101C90000393536802936368B3F5007F01D0002B70
:101CA00070D1059B13F0020F03D0039B13F0800F3C
:101CB0005CD1049B13F0010F03D0029B13F0400F83
:101CC00058D1049B13F0400F24D0029B13F0200F37
:101CD00020D022685B4B9A4250D04FF0402253688C
:101CE00023F0600353602268536823F0A00353601D
:101CF000002300932368DA6800929B680093009B9E
:101D0000012384F84130636C43F00203636420468E
:101D1000FFF7A7FE059B13F0080F22D0039B13F0DB
:101D2000200F1ED02268536823F0A003536022685E
:101D3000444B9A4224D04FF04022536823F0600372
:101D400053600023019323689B680193019B012347
:101D500084F84130636C43F0040363642046FFF76A
:101D600080FE06B010BDA2F580628EE72046FFF728
:101D7000E0FE9EE72046FFF7FBFEA2E7324AAEE711
:101D8000314ADAE7049B13F0020F03D0029B13F0F1
:101D9000800F4AD1059B13F0010F03D0039B13F072
:101DA000400F46D1059B13F0400F1CD0039B13F04E
:101DB000200F18D02268536823F060035360226814
:101DC000204B9A4239D04FF04022536823F0A003B1
:101DD0005360012384F84130636C43F00203636471
:101DE0002046FFF73EFE049B13F0080FB9D0029B7C
:101DF00013F0200FB5D02268124B9A421FD04FF03B
:101E00004022536823F0A00353602268536823F0F4
:101E100060035360012384F84130636C43F0040392
:101E200063642046FFF71DFE9BE72046FFF7D2FEC6
:101E3000B0E72046FFF700FFB4E7034AC5E7024AD0
:101E4000DFE700BF00380040003400400B4A136851
:101E500023F0030303431360094A136943F00403A7
:101E60001361012908D040BF20BF20BF044A136975
:101E700023F004031361704730BFF7E700700040A0
:101E800000ED00E0002800F0E08170B582B004466B
:101E9000036813F0010F3BD09F4B9B6803F00C03CA
:101EA000042B2CD09C4B9B6803F00C03082B21D0F7
:101EB0006368B3F5803F4FD0B3F5A02F52D0964B57
:101EC0001A6822F480321A601A6822F480221A609A
:101ED0006368002B50D0FFF7A9F805468E4B1B68AE
:101EE00013F4003F14D1FFF7A1F8401B6428F5D983
:101EF0000320B1E1884B5B6813F4800FD8D0864B88
:101F00001B6813F4003F03D06368002B00F09F812F
:101F1000236813F0020F54D07F4B9B6813F00C0F13
:101F20003ED07D4B9B6803F00C03082B33D0E36855
:101F3000002B68D0794B01221A60FFF777F805462D
:101F4000754B1B6813F0020F54D1FFF76FF8401B5D
:101F50000228F5D903207FE16F4A136843F48033E8
:101F60001360B5E76C4B1A6842F480221A601A6855
:101F700042F480321A60ABE7FFF758F80546664B2B
:101F80001B6813F4003FC3D0FFF750F8401B6428D0
:101F9000F5D9032060E1604B5B6813F4800FC6D174
:101FA0005D4B1B6813F0020F03D0E368012B40F078
:101FB0005081594A136823F0F803216943EAC103A9
:101FC0001360236813F0080F42D063696BB3534B5F
:101FD0000122C3F8802EFFF729F805464E4B5B6FB0
:101FE00013F0020F34D1FFF721F8401B0228F5D976
:101FF000032031E1484A136823F0F803216943EADA
:10200000C1031360DDE7454B00221A60FFF70EF8AD
:102010000546414B1B6813F0020FD2D0FFF706F8BC
:10202000401B0228F5D9032016E13C4B0022C3F8DF
:10203000802EFEF7FBFF0546374B5B6F13F0020F58
:1020400006D0FEF7F3FF401B0228F5D9032003E179
:10205000236813F0040F77D02F4B1B6C13F0805FB5
:1020600033D1002301932C4B1A6C42F080521A6436
:102070001B6C03F080530193019B0125284B1B68C7
:1020800013F4807F23D0A368012B34D0052B38D0E4
:10209000214B1A6F22F001021A671A6F22F0040214
:1020A0001A67A368002B3DD0FEF7C0FF06461A4B07
:1020B0001B6F13F0020F46D1FEF7B8FF801B41F2F1
:1020C00088339842F3D90320C6E00025D6E7144AA6
:1020D000136843F480731360FEF7A8FF0646104BA5
:1020E0001B6813F4807FCED1FEF7A0FF801B02286F
:1020F000F5D90320B0E0084A136F43F001031367DA
:10210000CFE7054B1A6F42F004021A671A6F42F0CC
:1021100001021A67C5E700BF0038024000004742CD
:1021200000700040FEF782FF0646524B1B6F13F013
:10213000020F08D0FEF77AFF801B41F288339842E5
:10214000F3D9032088E0EDB9A369002B00F0838068
:10215000484A926802F00C02082A51D0022B17D08C
:10216000454B00221A66FEF761FF0446414B1B688F
:1021700013F0007F42D0FEF759FF001B0228F5D96B
:10218000032069E03B4A136C23F080531364DBE7C0
:10219000394B00221A66FEF749FF0546354B1B688E
:1021A00013F0007F06D0FEF741FF401B0228F5D94F
:1021B000032051E0E369226A1343626A43EA82130F
:1021C000A26A5208013A43EA0243E26A43EA02631E
:1021D000284A5360284B01221A66FEF727FF04465F
:1021E000244B1B6813F0007F06D1FEF71FFF001B76
:1021F0000228F5D903202FE000202DE000202BE05D
:10220000012B2BD01B4B5B6803F48001E2699142E8
:1022100026D103F03F02216A8A4223D1616A47F640
:10222000C0721A40B2EB811F1ED103F44031A26A82
:102230005208013AB1EB024F18D103F07063E26A21
:10224000B3EB026F14D1002006E00120704701209B
:1022500002E0012000E0002002B070BD0120FBE799
:102260000120F9E70120F7E70120F5E70120F3E776
:102270000120F1E7003802400000474270B588B005
:102280000C46154600BB00230193204E326B42F0F2
:1022900001023263326B02F001020192019A4FF4A3
:1022A00080720392022204920322069205930793FE
:1022B00003A91748FFF706F9B36823F0EC63254339
:1022C0001D43B56008B070BD002302930F4E326B02
:1022D00042F004023263326B02F004020292029A6C
:1022E0004FF4007203920222049203220692059395
:1022F000079303A90748FFF7E5F8B36823F078438D
:1023000044EAC5041C43B460DCE700BF0038024067
:10231000000002400008024008B5264B9B6803F00D
:102320000C03042B41D0082B41D1224B5A6802F0F8
:102330003F025B6813F4800F12D01E4B5968C1F343
:1023400088111D480023A1FB0001FEF799F8194BE5
:102350005B68C3F3014301335B00B0FBF3F008BDDE
:10236000144B5868C0F388104FEA401CBCEB000CBB
:102370006EEB0E0E4FEA8E1343EA9C634FEA8C110C
:10238000B1EB0C0163EB0E03DB0043EA5173C900B0
:1023900011EB000C43F10003990200234FEA8C205B
:1023A00041EA9C51FEF76CF8D1E70348D7E70348B0
:1023B000D5E700BF0038024040787D010024F400DA
:1023C000002800F09B8070B50D4604464F4B1B68FB
:1023D00003F007038B4208D2CBB24C4A1370136848
:1023E00003F007038B4240F08B80236813F0020F49
:1023F00017D013F0040F04D0454A936843F4E05318
:102400009360236813F0080F04D0414A936843F4A3
:10241000604393603E4A936823F0F003A1680B4346
:102420009360236813F0010F32D06368012B21D031
:102430009A1E012A25D9364A126812F0020F61D07D
:1024400033498A6822F0030213438B60FEF7EEFDE6
:1024500006462F4B9B6803F00C036268B3EB820FB8
:1024600016D0FEF7E3FD801B41F288339842F0D985
:10247000032042E0264A126812F4003FE0D1012016
:102480003BE0234A126812F0007FD9D1012034E0EA
:102490001E4B1B6803F00703AB4207D9EAB21B4B84
:1024A0001A701B6803F00703AB422DD1236813F0A9
:1024B000040F06D0164A936823F4E053E1680B43F7
:1024C0009360236813F0080F07D0114A936823F430
:1024D0006043216943EAC1039360FFF71DFF0C4B82
:1024E0009B68C3F303130B4AD35CD8400A4B1860B4
:1024F0000A4B1868FEF74EFD002070BD01207047A2
:102500000120FAE70120F8E70120F6E7003C02404D
:102510000038024024460008000000200800002087
:10252000014B1868704700BF0000002008B5FFF796
:10253000F7FF044B9B68C3F38223034AD35CD84064
:1025400008BD00BF003802401C46000808B5FFF770
:10255000E7FF044B9B68C3F34233034AD35CD84084
:1025600008BD00BF003802401C46000830B583B0EB
:102570000446036813F0050F0ED1236813F0020F11
:1025800036D1236813F0080F00F09B80227C4E4B5D
:10259000C3F8E021002095E04C4B00229A66FEF73C
:1025A00045FD05464A4B1B6813F0006F06D0FEF749
:1025B0003DFD431B022BF5D9032083E06268A3682D
:1025C0001B0743EA8213424AC2F884303F4B012280
:1025D0009A66FEF72BFD05463D4B1B6813F0006F16
:1025E000CBD1FEF723FD401B0228F5D9032069E07B
:1025F00000230193364B1A6C42F080521A641B6C14
:1026000003F080530193019B324A136843F48073B3
:102610001360FEF70BFD05462E4B1B6813F4807FFD
:1026200006D1FEF703FD431B022BF5D9032049E039
:10263000274B1B6F13F4407314D0E26802F440720E
:102640009A420FD0224B1A6F22F440721F49012088
:10265000C1F8400E0020C1F8400E1A671B6F13F03E
:10266000010F12D1E36803F44072B2F5407F1DD030
:10267000174A936823F4F813936015490B6FE268C7
:10268000C2F30B0213430B677BE7FEF7CFFC054653
:102690000F4B1B6F13F0020FE4D1FEF7C7FC401B7A
:1026A00041F288339842F3D903200BE008498A6845
:1026B00022F4F81223F0704323F4407313438B6029
:1026C000DBE7002003B030BD001047420000474266
:1026D0000038024000700040012801D000207047FF
:1026E000164B9B6813F4000303D0012B23D114482D
:1026F0007047124B5B6813F4800F14D00F4B5A686D
:1027000002F03F020F4BB3FBF2F30C4AD2F8840005
:10271000C0F3881003FB00F0D2F88430C3F30273D7
:10272000B0FBF3F07047054B5A6802F03F02064BCE
:10273000B3FBF2F3E9E70020704700BF0038024026
:102740000080BB0040787D010024F40010B50446F1
:1027500003689A6812F4805F03D0DB6813F4807F0B
:102760000FD123689A6812F4005F03D0DB6813F47A
:10277000007F0FD10C4B4FF400325A610123637775
:1027800010BDFEF7E5F82268D368DBB263F4C073CE
:10279000D360E6E7204600F035FA2268D368DBB262
:1027A00063F42073D360E5E7003C014038B504468C
:1027B0000268D36823F0A003D360FEF737FC054618
:1027C0002368DB6813F0200F07D1FEF72FFC401BB6
:1027D000B0F57A7FF4D9032000E0002038BD70B551
:1027E0000368DA6812F0400F02D00025284670BD59
:1027F0000446DA6842F08002DA60FEF717FC06460B
:1028000000252368DB6813F0400FEFD1002DEDD1D8
:10281000FEF70CFC831BB3F57A7FF2D904236377B0
:102820000125EEE70268D36823F08003D3600368D4
:102830009B6813F0200F01D00020704710B50446AC
:10284000FFF7B4FF10B104236377012010BD002807
:1028500042D010B50446437F7BB1022363772368DF
:10286000CA225A62236853225A622046FFF7B7FFF2
:1028700038B12368FF225A6210BD0377FEF7C6FA0B
:10288000EBE72268936823F4E00323F040039360AE
:1028900021688A68636820690343606903431343BE
:1028A0008B602368E2681A6122681369A16843EAB1
:1028B000014313612046FFF7B5FF0028D9D12268F4
:1028C000136C23F4802313642268136CA1690B43F7
:1028D000136401236377CCE701207047002303E0F2
:1028E0000133DBB20A38C0B20928F9D81B01DBB2C8
:1028F00018437047037F012B5AD070B504460E462B
:10290000012303770223437732BB03689B6813F0EC
:10291000400F01D10023CB703078FFF7DFFF0504B3
:102920007078FFF7DBFF45EA0025B078FFF7D6FFA8
:102930000543F37845EA83552368CA225A6223681F
:1029400053225A622046FFF74AFFB8B12368FF229C
:102950005A620023237770BD03689B6813F0400F11
:1029600001D10023CB70337875782D0245EA0345F9
:10297000B3781D43F37845EA8355DDE7236805F016
:102980007F3525F0FE451D602268936823F480237F
:10299000936021688B68F2683069024313438B604F
:1029A0002046FFF73FFF0028D0D101236377CDE712
:1029B00002207047037F012B48D070B504460E46B5
:1029C0000123037702234377CAB1CB784D782D02D8
:1029D00045EA03458B781D430B7845EA4335236868
:1029E000CA225A62236853225A622046FFF7F7FE32
:1029F000F0B12368FF225A620023237770BD4B7821
:102A000013F0100F03D003F0EF030A334B70F0788C
:102A1000FFF764FF05047078FFF760FF45EA0025C3
:102A2000B078FFF75BFF0543337845EA4335D6E7D7
:102A3000236825F07F4525F0C0055D602046FFF73F
:102A4000F1FE0028D5D101236377D2E70220704739
:102A500070B582B00D46684B1B686849A1FB031333
:102A6000DB0A4FF47A7101FB03F30193037F012B1F
:102A700000F0C08004460123037702234377002A35
:102A80006CD103689B6813F0400F01D10023EB70F9
:102A90002878FFF723FF06046878FFF71FFF46EA50
:102AA0000026A878FFF71AFF0643EB7846EA83561C
:102AB00095F82000FFF712FF46EA0062EB691A431F
:102AC0006B691A436868AB6918432368CA21596265
:102AD0002368532159626B6AB3F5807F58D021680F
:102AE0008B6823F400738B602168CB68DBB263F4DE
:102AF0002073CB60404B1B684049A1FB0313DB0AEA
:102B00004FF47A7101FB03F30193019B591E01916C
:102B1000002B67D02368D96811F0020FF5D01A6234
:102B2000236898642268936843F400739360226872
:102B3000936843F400539360314B1A6842F40032B7
:102B40001A609A6842F400329A602368FF225A623F
:102B5000012363770020207702B070BD03689B6873
:102B600013F0400F01D10023EB702B786A7812022A
:102B700042EA0342AB781A43EB7842EA835295F873
:102B8000203042EA0362EB691A436B691A4399E702
:102B900021688B6823F480738B602168CB68DBB27B
:102BA00063F4C073CB60019B591E019193B12368FC
:102BB000D96811F0010FF6D0DA61236858642268F1
:102BC000936843F4807393602268936843F480535E
:102BD0009360B1E72368FF225A62032060770023E5
:102BE0002377B9E72368FF225A6203206077002326
:102BF0002377B1E70220AFE700000020D34D621039
:102C0000003C0140704700285AD010B50446436A82
:102C100033B94368B3F5827F05D00023C36102E076
:102C20000023036143610023A36294F85130002B19
:102C300040D0022384F851302268136823F0400307
:102C40001360636803F48273A26802F404421343BE
:102C5000E26802F400621343226902F002021343A5
:102C6000626902F001021343A26902F40072134385
:102C7000E26902F038021343226A02F08002134331
:102C8000A26A02F40052216813430B60638B03F0C5
:102C90000403626A02F01002216813434B60226849
:102CA000D36923F40063D36100206065012384F8B5
:102CB000513010BD84F850302046FEF7D3F8B8E705
:102CC0000120704710B504460268136923F440538D
:102CD000C1680B431361836802691A4343691A434D
:102CE000C3691A430168CB6823F4164323F00C032D
:102CF0001343CB600268536923F4407381690B432B
:102D000053610368314A934206D002F580629342D0
:102D100002D0FFF70BFC01E0FFF718FCE369B3F505
:102D2000004F29D00021031849411B1841F100012F
:102D3000C90041EA5371DB00181863684FEA830247
:102D40004FEA937341F10001FDF79AFB204AA2FB81
:102D500000314909642303FB11031B013233A2FB39
:102D600003235B0903F0F00202EB011203F00F03EF
:102D7000216813448B6010BD0023021843EB03014C
:102D8000121841F10001C90041EA5271D200101835
:102D900041F10001626892185B41FDF771FB0C4A3A
:102DA000A2FB00314909642303FB1103DB0032332A
:102DB000A2FB03235B095A0002F4F87202EB011232
:102DC00003F00703216813448B60D4E7001001402F
:102DD0001F85EB5158B310B5044690F83D300BB346
:102DE000242384F83D302268D36823F40053D36051
:102DF0002046FFF767FF2268136923F490431361AD
:102E00002268536923F02A0353612268D36843F48C
:102E10000053D36000202064202384F83D3084F8E0
:102E20003E3010BD80F83C30FEF754F8D8E7012062
:102E300070470000DFF834D00D480E490E4A0023D9
:102E400002E0D458C4500433C4188C42F9D30B4A5E
:102E50000B4C002301E013600432A242FBD3FEF7C7
:102E60008FF800F09FF9FDF7C5FE704700000120C4
:102E7000000000204C050020D04800084C05002030
:102E80004C0A0020FEE77FB500241023CDE9023470
:102E9000036815469E6912686B46CDE90044B04749
:102EA0009DF8043003F00603062B03BF009B2B6044
:102EB0000120204604B070BD009890420CBF06204F
:102EC0000120704710B5034B0360044600F0D1F8B1
:102ED000204610BD7446000810B50446FFF7F2FF07
:102EE0002046082100F042F8204610BD2DE9F041AF
:102EF0001F46DDE90834DDF818809845064615467A
:102F000007D1079900F0B8F818B165710020BDE845
:102F1000F0813946304600F0AFF80028F6D00123A2
:102F2000C4F800802571A371F0E738B515461C463A
:102F300000F0A2F820B10823E36006232560237186
:102F400038BD2DE9F04105460C4616461F4600F0F7
:102F500093F848B9032F07D82368324629462046FC
:102F60005B69BDE8F0411847BDE8F08100F09AB810
:102F700010B5034B03600446FFF7A4FF204610BDC5
:102F8000D446000810B50446FFF7F2FF20460C2196
:102F9000FFF7ECFF204610BD2DE9F041DDF8188069
:102FA000904506460F4615461C460BD0B068036890
:102FB000CDF818801E6A2A4623463946B446BDE835
:102FC000F0416047194600F057F80028EED006207F
:102FD000BDE8F0812DE9F14F0D461946DDE90A4BB8
:102FE000DDE90CA681461746984600F045F890B1F9
:102FF000002D3460377109DB2C44A24514BF012435
:103000000624B471002001B0BDE8F08F0235F9D17B
:103010000123B371F6E7544506D15946484600F0FE
:103020002BF808B17771EDE7D9F808000368CDE90E
:103030000CA6CDE90A4BDC693A4643462946A4462C
:1030400001B0BDE8F04F60472DE9F04107460C465E
:1030500015461E46FFF769FF48B9B86803689F69BF
:103060002A4633462146BC46BDE8F0416047BDE8EC
:10307000F081704700207047814208B50ED040684B
:1030800003782A2B0CD049680B782A2B08BF013112
:10309000FDF786F8B0FA80F0400908BD0120FCE792
:1030A0000020FAE700F006B8002301461A46184649
:1030B00000F0C6B8024B0146186800F067B900BFBF
:1030C00020040020014800F0A9B800BFAC0800208F
:1030D000014800F0A5B800BFAC080020830730B558
:1030E00047D0541E002A3ED0CAB2034601E0013C3C
:1030F00039D303F8012B9D07F9D1032C2CD9CDB27C
:1031000005EB05250F2C05EB054535D9A4F110027B
:1031100022F00F0C03F1100EE6444FEA121C1A467F
:10312000C2E90055C2E9025510327245F8D10CF1DE
:10313000010214F00C0F03EB021204F00F0C13D079
:10314000ACF1040323F003030433134442F8045B9B
:103150009342FBD10CF003042CB1C9B21C4403F818
:10316000011BA342FBD130BD64461346002CF4D1B1
:10317000F9E703461446C0E71A46A446E0E700BF55
:1031800038B5074D0022044608462A6001F0AEF922
:10319000431C00D038BD2B68002BFBD0236038BD0A
:1031A000A808002070B50F4B0F4DAB42A3EB0506EE
:1031B00007D0B610002455F8043B01349847A642C6
:1031C000F9D801F0A3F9094D094B5E1BAB424FEA58
:1031D000A60606D0002455F8043B01349847A642C1
:1031E000F9D870BDC0480008C0480008C0480008B1
:1031F000CC48000838B5074D074C2C1BA41005D04F
:10320000013C55F8043D9847002CF9D1BDE8384001
:1032100001F082B9D0480008CC480008704700BFD0
:10322000704700BF082802D14FF48050704708B59E
:1032300000F0A8F9162303604FF0FF3008BD00BF6F
:103240002DE9F8431B4D0646286898460F469146DF
:10325000FFF7E4FF184B1C681CB3286865681F2D36
:1032600022DC4EB96B1C0235636044F82570FFF711
:10327000D7FF0020BDE8F88304EB85010123C1F8E6
:103280008890D4F88821AB401A43022EC4F88821D4
:10329000C1F80881E6D1D4F88C211A43C4F88C21F6
:1032A000E0E7064C1C60D8E7FFF7BAFF4FF0FF30AD
:1032B000E0E700BF48050020440A0020B4080020D1
:1032C000024B13B10248FFF7EFBE70470000000049
:1032D000F53100082DE9F843064608208946FFF736
:1032E000A1FFDFF8A48005463046FFF7EBFED8F8D3
:1032F00008305F6827F00307A7F11104A4EB090465
:103300002C44B4FBF5F4013C05FB04F4A54208DCB5
:1033100000213046FFF734FFD8F808303B4498428C
:1033200005D03046FFF7D4FE0020BDE8F8836142A7
:103330003046FFF725FF01300FD0114AD8F808308A
:103340003F1B47F001075F60136830461B1B13608B
:10335000FFF7BEFE0120BDE8F88300213046FFF7ED
:103360000FFFD8F80820831A0F2BDADD43F0010392
:103370005360044B02491B68C01A0860D1E700BFC4
:10338000440700200C0000201800002000297CD0F9
:103390002DE9F0410C468046FFF794FE54F8043CBA
:1033A000754FA4F1080523F001016818BE68426852
:1033B000864222F0030200F08380DE07426000EBC9
:1033C000020C33D454F8084CDCF804302D1B214493
:1033D000AC6807F1080C644503F0010364D0D5F82C
:1033E0000CE0C4F80CE0CEF80840002B00F081801F
:1033F00041F001036B600160B1F5007F22D2786873
:10340000CB080122490901338A40024357F833109F
:103410007A6007EBC302083AC5E9021247F8335055
:10342000CD604046BDE8F041FFF752BEDCF8043005
:10343000DB072BD541F00103B1F5007F44F8043CD4
:103440000160DCD3B1F5206F4FEA512353D28B09D1
:1034500003F1390003F13802C300F818FB580838AB
:10346000984203D161E09B68984204D05A6822F0E8
:1034700003028A42F7D8D868C5E902308560DD606A
:103480004046BDE8F041FFF723BE7047114407F105
:10349000080C836863453FD0C268DA60936041F0EE
:1034A00001036B606950A7E7002B5FD10A44D0E9A4
:1034B0000213CB60996042F001036B60AA50B0E741
:1034C000DB070A4407D454F8083CED1A1A44D5E93E
:1034D0000213CB60996042F001036B60274BBD6023
:1034E0001B6893429DD8264B40461968FFF7F2FEB1
:1034F00097E71144CDE7142B08D9542B1DD80B0B9B
:1035000003F16F0003F16E02C300A6E703F15C0054
:1035100003F15B02C300A0E741F00103C7E90455D2
:10352000C5E902CC6B6069507BE779689210012491
:1035300004FA02F20A437A609EE7B3F5AA7F06D83E
:10354000CB0B03F1780003F17702C30085E740F26B
:103550005452934206D88B0C03F17D0003F17C0298
:10356000C3007AE74FF47E737E2276E741F00103D1
:103570006B60016055E700BF1800002010000020BC
:103580006C070020014B1868704700BF2004002022
:103590002DE9F0478C468E46089E1546044619468E
:1035A000002B40F0D080724547D9B2FA82F74FB174
:1035B000C7F120030EFA07FC20FA03F3BD4043EAEB
:1035C0000C0CBC404FEA154EA8B2BCFBFEF8230C15
:1035D0000EFB18CC08FB00F943EA0C43994528D9A7
:1035E000EB1808F1FF3204D2994502D9A8F1020282
:1035F0002B44A3EB0903A4B2B3FBFEFC0EFB1C336C
:103600000CFB00F044EA0344A04214D92C190CF13D
:10361000FF3304D2A04202D9ACF102032C44241A95
:1036200043EA02401EB1FC40002334607360BDE8F1
:10363000F0874246DDE76346F1E7002A79D0B2FA27
:1036400082F3002B3FD01946C1F1200302FA01F5A5
:103650002EFA03F20EFA01FE20FA03F343EA0E03F8
:103660004FEA154E00FA01F4B2FBFEFCAFB20EFBBE
:103670001C201A0C0CFB07F842EA004290455AD96C
:10368000AA180CF1FF3004D2904502D9ACF1020027
:103690002A44A2EB08029BB2B2FBFEFC0EFB1C22EA
:1036A0000CFB07F743EA02439F4246D9EB180CF1A3
:1036B000FF3204D29F4202D9ACF102022B44DB1B41
:1036C00042EA004202E0AEEB020301224FEA154E4D
:1036D000AFB2B3FBFEFC200C0EFB1C330CFB07F857
:1036E00040EA034398452AD9EB180CF1FF3004D285
:1036F000984502D9ACF102002B44A3EB0803A4B215
:10370000B3FBFEFC0EFB1C330CFB07F744EA03443F
:10371000A74216D92C190CF1FF3304D2A74202D9C3
:10372000ACF102032C44E41B43EA00400F4611466F
:1037300078E71F2188E76046ABE76246BFE760464F
:10374000DBE76346EFE7734506D916B90021084663
:103750006DE7C6E9000EF9E7B3FA83F787B9734559
:1037600001D3824207D8841A6EEB030301209C46E2
:103770001EB900215BE73846FAE7C6E9004CF8E7D6
:10378000C7F1200CBB4022FA0CF51D4320FA0CF1C6
:103790002EFA0CF30EFA07FE41EA0E014FEA154924
:1037A00000FA07F4B3FBF9F81FFA85FE09FB18309D
:1037B0000B0C08FB0EFA43EA00439A4502FA07F2A3
:1037C00040D9EB1808F1FF3004D29A4502D9A8F18C
:1037D00002002B44A3EB0A0389B2B3FBF9F809FBFF
:1037E000183308FB0EFE41EA03418E452CD96918B7
:1037F00008F1FF3304D28E4502D9A8F1020329440F
:1038000043EA0040A0FB0298A1EB0E014145CE46E1
:10381000434602D306D14C4504D2B9EB020E68EB05
:1038200005030138002EA4D0B4EB0E0261EB0301B6
:1038300001FA0CFC22FA07F34CEA0303F940C6E94B
:10384000003196E74046C5E74346D9E703685A008A
:103850004CBF43F0004323F00043184470472DE968
:10386000F0470546164621B34F1EB8464FF00009F3
:1038700009EB080404EBD474641005EBC40108469A
:10388000FFF7E4FFA7424FEAC40A15D0B04204D9BB
:10389000A1450DD004F1FF38EAE70AF108002844F9
:1038A000FFF7D4FF0138B04203D204F10109DFE78A
:1038B00000210846BDE8F087B042E9D8F9E70000EA
:1038C000012806D0022806D00028044818BF00208E
:1038D0007047034870470348704700BF1D3F00080A
:1038E000233F0008293F00081F4B37B504468D1EB3
:1038F0004BB101A92846AFF3008048B90023092045
:10390000236103B030BD1948194B1B1ADB1001931A
:1039100001992A46FFF7A3FF01460028EED0FFF7E2
:1039200095FF4B68A064012B1BD0002B01F1040014
:103930000EDA0123C4E913030368002B0CDAC3F386
:103940000360FFF7BDFF031E0CBF09200020D7E76F
:10395000FFF77CFF0023EDE7FFF778FF0346002029
:10396000CEE700230520CBE70000000088470008D1
:10397000C0480008036810B50446D80706D413F001
:10398000020F04F1500018D0FCF7A6FD2368590778
:1039900003D404F1D800FCF7A7FD23681A0703D469
:1039A00004F5AC70FCF7A8FD2368DB0608D404F529
:1039B000EC70BDE81040FCF7E3BDFCF785FDE5E7E2
:1039C00010BD0346006800B118447047704770B5D9
:1039D00005460C46216C2846FFF786FF064608B1CF
:1039E00000F028FD236C6B6122462B6929460120DB
:1039F00098470828EED00728F2D13046216CFFF70F
:103A0000E5FF201DFCF754FD2DE9F04F0C1DD0F80B
:103A10000C90D0F818A0074616460FCCADF5777D70
:103A200003AD0FC50FCC0FC50FCC0FC594E80F0029
:103A30000DF1080885E80F000025C8F800500DF5C5
:103A4000F87BD8F840103846FFF74EFF0936F6B23B
:103A5000044670BBD8F840307B614FF4F4724146A5
:103A60005846FCF7FDFD3B695A46394630469847B3
:103A7000DBF838300546C8F848303A46CDE9008AC8
:103A80003B4631460120C847C0B9C4B94FF4F4726F
:103A900059464046FCF7E4FD082D2646D1D0072DB7
:103AA0000CD12046D8F84010FFF790FF03A8FCF790
:103AB000FFFCD8F8383046F01006DCE70924204631
:103AC0000DF5777DBDE8F08F2DE9F041CB6BFAB0B5
:103AD0000D1D0B6406460F460FCD01AC0FC40FCD74
:103AE0000FC40FCD0FC495E80F0084E80F004FF00E
:103AF000FF33E8460093D8F840103046FFF7F4FE55
:103B000078B9336942463146984708280446F2D0CE
:103B10004046FFF72FFF062C03D139463046FFF70A
:103B200056FF09207AB0BDE8F08110B48261DA6BEB
:103B3000C16010BC1A6419460022FFF765BF70B55A
:103B4000C66843690B6404460D4626B10122FFF79F
:103B50005BFF00F06FFC03690A46014602209847AC
:103B6000072805D00828F4D129462046FFF72FFF63
:103B70003046296CFFF72AFF281DFCF799FCC26824
:103B800008B532B1CA6B0A64BDE808400022FFF7ED
:103B90003BBFFFF799FF092008BD000030B5039C2B
:103BA00005291CD801A555F821F000BFC93B000824
:103BB000C53B0008DF3B0008C53B0008C53B0008CB
:103BC000DB3B0008012030BD4BB90F2A07D800EBC2
:103BD0008200436823600020F5E7436CFAE7022087
:103BE000F1E700BF1FB503AB009300230A46194657
:103BF000FFF7D4FF039805B05DF804FB30B5039CD4
:103C000005291DD801A555F821F000BF293C000861
:103C1000253C0008413C0008253C0008253C0008E4
:103C20003B3C0008012030BD53B90F2A08D800EBF7
:103C30008200236843600020F5E723684364FAE7C5
:103C40000220F0E71FB503AB0093002303920A465E
:103C50001946FFF7D3FF05B05DF804FB2DE9F041ED
:103C6000D36BADF5107D141D1364074688460FCC49
:103C700017AD0FC50FCC0FC50FCC0FC594E80F00C3
:103C800016AE85E80F004FF0FF3333606C46316CA1
:103C90002046FFF729FE90B90C2130462246FFF757
:103CA000D1FF41463046B84748B9236932462146DC
:103CB000082098470528054602D00928E7D109259C
:103CC0003046FFF757FE28460DF5107DBDE8F08120
:103CD0002DE9F04FCD6C87B0174655F8042B0495AD
:103CE0000C4600F003099A4653BB12028DF81530BA
:103CF000039203238DF81430236DB9F1020F08BF2E
:103D0000A56B13F0010840F0008100F00803009358
:103D10002B68FBB903A9384600F04AFA002840F0A6
:103D2000F780B8F1000F00F0F5800F213846FFF75B
:103D300059FF0E2102463846FFF784FF764A4AE0D3
:103D4000130C8DF815301204DBB205EB83050392DA
:103D50000223CFE7BAF1020F0CBFD5F804B0B5F8D3
:103D600002B0A26C18BF2B8801930CBF05F10806A6
:103D70002E1D0F212BF0010538461544FFF732FFA9
:103D80008542019B29D823F001022A44824294BF34
:103D9000002201224FEA4B0000F0020003F0010371
:103DA00040EA0305012D1AD0022D60D0002D40F00D
:103DB000AF80351DB9F1000FAAD0002AA8D0304637
:103DC000FFF744FDA56306462046AFF300800028B8
:103DD00000F09E8032460F213FE00022DAE7B9F181
:103DE000000F26D1002A3FD073683268991C4FEA31
:103DF000D27200F08D8004F158010133029109D094
:103E0000301DFFF7DEFD02AB01462046AFF3008018
:103E1000054648B30D213846FFF7E4FE022D029B0C
:103E2000206202D1E36204F12C03C4E909360620C2
:103E300017E00D213846FFF7D5FE256A854213D1DC
:103E4000A36A9E4210D13046FFF700FD0F210246C3
:103E50003846FFF7F7FE224600213846FFF7F2FE0C
:103E6000072007B0BDE8F08F06F1080550E7356878
:103E700025F00045B9F1000F2AD19AB1009BCBB1D2
:103E800085B9CB4618E00BF1010B019B029306EBC1
:103E90008B00FFF796FD0022014602AB2046AFF3F0
:103EA000008060B13368002B00DA0436013506EB80
:103EB00085052DE7DDF800B004F158030193AB450B
:103EC000E1D10D213846FFF78DFE029B2062ACE761
:103ED0000D213846FFF786FED4F820B08345E1D1A6
:103EE000A36A9E42DED14FF000080423C4E90B838D
:103EF000F318A56263633368434503DA681C06EB75
:103F00008000A1E74FF00108D0E74FF0000801E77B
:103F10000920A6E70820A4E7000000000023FFF71F
:103F2000D7BE0123FFF7D4BE0223FFF7D1BE0000A6
:103F30002DE9F0410446C2B015461E46052935D884
:103F400001A353F821F000BF613F00089B3F000828
:103F5000AD3F000861400008B74000088F3F0008EF
:103F600026BB836B92B20121043001FA06F7174297
:103F70001CBF53F8047B40F826700136102EF4D194
:103F8000A90400D4A363002042B0BDE8F081836B94
:103F900062B953F8042B4264F4E7012E4FEA124849
:103FA00095B205D108EB0503102B19D90220EBE7D8
:103FB000052EFBD108EB0507202FF7D8B8F10F0F1E
:103FC00040F2A08075B32F462368580740F1A580C2
:103FD000204623F0040340F8D83BFCF789FA9CE024
:103FE000B8F1100FE2D0002790E0052E04F1500048
:103FF00007D123F0010343F002032360FCF770FABA
:1040000088E023F003032360FCF762FA82E0B8F152
:104010000F0F02D820A8FCF763FA1FB16846FCF71F
:1040200067FA83E0002783E020AA02EBC802690058
:10403000A3EB020C013902EB0C0002D203EBC50525
:104040007BE0006842F8040BF4E751F8040B43F8F6
:10405000040F7FE00435A56320A8FCF735FA92E74A
:10406000032EA3D197B207EB1245102D4FEA12464B
:104070009CD80368190706D523F00803036000F5F0
:10408000AC70FCF75BFA20AD2846FCF757FAA26B40
:1040900005EBC6037900D61A013903EB060006D2F8
:1040A00002EBC702A2632846FCF726FA6BE700681A
:1040B00043F8040BF0E7002E7FF478AF102A3FF6A8
:1040C00075AF0368DA0606D523F01003036000F528
:1040D000EC70FCF75FFA20AE3046FCF75BFAA36B9E
:1040E0000022012101FA02F028421CBF53F8040B00
:1040F00046F822000132042AF4D1A3633046FCF7CB
:104100003FFA40E7102F7FF66EAF103F2368DA07C3
:104110003FF56BAF002F7FF457AF012E7FF477AFE1
:1041200020A8FCF7D5F9002F3FF47CAFC8F11005AB
:10413000002DA36B3FF778AF1D4687B14346102B88
:1041400042A938BF102301EBC3033AB25200A3F5D2
:10415000C6732946013ABFF478AF05EBC705012EB7
:104160003FF478AFB8F10F0FA56302D820A8FCF791
:10417000B3F9002F3FF407AF6846FCF7B5F902E743
:10418000027A03467AB9427A82B1013A42724268AF
:10419000111D12680260416003221A721A68100E23
:1041A00012021A607047013AD2B2F6E7B0207047A7
:1041B0002DE9F043054685B00E4600273046FFF74F
:1041C000DFFFB028044613D177B902AC3B460E227C
:1041D000394600942846FFF7E1FC00943B460F2245
:1041E00039462846FFF70AFD002005B0BDE8F083F8
:1041F00001061FD400230DF108094FEA80080D22A3
:104200001946CDF800902846FFF7C8FC5FFA88F8F9
:10421000029BCDF8009008F1040862064CBFA3EBA6
:1042200008034344029300230D2219462846FFF752
:10423000E5FCC3E700F0F003802B16D10402304602
:10424000FFF79EFF0443B4F5004F01D10920CCE7EE
:1042500024010023A2B219462846FFF769FE002870
:10426000F4D1C4F3C0342743A8E7902B11D100F058
:104270000D030D2BEAD00DF10808002300F00F020A
:10428000CDF8008019462846FFF788FCCDF800805D
:10429000C9E7A02B0ED1C34303F007034FF47F629D
:1042A0001A41030702F47F6201D542F480420023E1
:1042B000194650E0B02B6AD1A0F1B103042B5AD8B3
:1042C00001A252F823F000BFDD420008EF420008CF
:1042D0003943000851430008654300083046FFF7A2
:1042E0004FFF431EDBB20E2B0246E0D9AEE70023A0
:1042F00002AC0D22194600942846FFF74FFC3046C9
:10430000FFF73EFF4FF0020810F08003029A07D13A
:1043100000FA08F002F5017202440292009483E769
:1043200000F07F0000FA08F010440290304608F1D7
:104330000708FFF725FFE7E73046FFF721FF0203F5
:1043400000F00F0002F47022013001230243AFE7B6
:1043500000231A4605212846FFF7EAFD00283FF40E
:104360002DAF73E703AB009300230D2219462846B7
:10437000FFF714FC22E700F0FC03B42B3FF466AF18
:1043800000F007020132012342F4002290E7C02B23
:1043900044D1C6280AD13046FFF7F2FE020300F0EE
:1043A0000F0002F4702201300323CFE7C7280BD19E
:1043B0003046FFF7E5FE431EDBB20E2B02463FF60A
:1043C00045AF00230421C6E700F0F803C02B06D157
:1043D00000F00F020132032342F4202268E7C828CC
:1043E0000DD13046FFF7CCFE00F0F00200F00F00D8
:1043F00010320130052340EA02320121ABE7C9281F
:104400007FF424AF3046FFF7BBFE020300F00F003D
:1044100002F47022013005230243EEE700F0F803B6
:10442000D02B7FF413AF00F007020132052342F4D2
:104430000022E2E708B5062000F004F8012000F0B1
:1044400063F800BF38B5144B1F281D681ED8D5F877
:104450001821044662B152F820304BB1012B05D02F
:10446000591C0FD0002142F820109847002038BD79
:10447000284600F029F8224601462846BDE8384083
:1044800000F00CB816232B60012038BD16232B60DA
:104490004FF0FF3038BD00BF2004002070B50C463F
:1044A000084D03460026204611461C462E6000F0AB
:1044B00015F8431C00D070BD2B68002BFBD0236087
:1044C00070BD00BFA808002000F000B8024B5822C1
:1044D0001A604FF0FF307047A8080020024B5822A6
:1044E0001A604FF0FF307047A8080020044A0549C1
:1044F0001368002B08BF0B4618441060184670471D
:10450000480A0020500A0020FEE700BFF8B500BFAF
:10451000F8BC08BC9E467047F8B500BFF8BC08BCA4
:044520009E467047FC
:104524003136496E7465727275707448616E646C6C
:104534006572000074460008244500083135496E50
:10454400746572727570744F626A65637449313947
:104554005F5F4932535F48616E646C65547970657E
:104564004465664500000000D44600084045000844
:1045740038450008396932734F626A656374000014
:10458400D4460008784500086C4500083135496E6A
:10459400746572727570744F626A656374493137F9
:1045A4005254435F48616E646C6554797065446528
:1045B40066450000D44600089045000838450008C8
:1045C4003131616C61726D4F626A65637400000021
:1045D400D4460008C4450008B8450008000000009F
:1045E4003845000800000000000000006C45000889
:1045F4002B08000800000000844500082B08000870
:1046040000000000B845000825080008000000006C
:10461400D445000825080008000000000102030436
:10462400000000000000000001020304060708095E
:1046340000061016000610164E31305F5F6378785E
:10464400616269763131375F5F636C6173735F7484
:104654007970655F696E666F45000000D446000896
:104664003C460008084700080000000060460008B7
:10467400C52E0008D92E00087530000875300008D2
:10468400432F0008872E00082B2F0008ED2E00086A
:10469400B92E00084E31305F5F63787861626976C5
:1046A4003132305F5F73695F636C6173735F747918
:1046B40070655F696E666F4500000000D4460008AF
:1046C400984600086046000800000000C046000844
:1046D400712F0008852F0008753000087530000818
:1046E400432F0008872E000849300008D52F000802
:1046F400992F0008537439747970655F696E666F19
:0C4704000000000074460008F8460008A1
:1047100008B10181B0B000840000000008B101813F
:10472000B0B000840000000008B10181B0B0008486
:104730000000000008B10181B0B00084000000005A
:1047400008B10181B0B000840000000008B101810F
:10475000B0B000840000000008B10181B0B0008456
:104760000000000008B10181B0B00084000000002A
:1047700008B10181B0B000840000000008B10181DF
:08478000B0B00084000000004D
:1047880018BAFF7F01000000A0C0FF7FB0AC09800D
:1047980070C1FF7F008402809CC1FF7F6CFFFF7F98
:1047A800A8C1FF7F70FFFF7FB4C1FF7F0100000039
:1047B800BCC1FF7F6CFFFF7FECC1FF7F70FFFF7FF5
:1047C80020C2FF7F74FFFF7F58C2FF7F78FFFF7F03
:1047D80088C2FF7FB0A80F8058C3FF7FB0A813809E
:1047E8000CC4FF7F6CFFFF7F50C4FF7F01000000F7
:1047F80050C4FF7F68FFFF7F74C4FF7F6CFFFF7F9B
:1048080074C4FF7FB0B0A8807CC4FF7F01000000A3
:104818006EE6FF7FB0AA038098E6FF7F01000000E4
:1048280020E8FF7FB0B0AC8042E8FF7F01000000C5
:10483800B0F0FF7FB0A9028034F1FF7FB0B0A8804C
:104848007AF1FF7F010000007EF1FF7FB0B0AA80FF
:10485800B0F1FF7FAF76B28068F2FF7FAC3F39805E
:10486800C2F2FF7F01000000CEF2FF7FB0B0AA8045
:1048780006F3FF7F00FFFF7F1CF3FF7F01000000AE
:10488800D4F3FF7FAC0FB28040F4FF7FB0AF068057
:1048980084F6FF7F0100000090F6FF7FAC3F0180A7
:1048A800D8F8FF7F0100000000F9FF7FB0AD048059
:0848B8007CFBFF7F0100000002
:0C48C000C1320008B9070008410C0008D4
:0448CC009507000844
:1048D0000024F4000100000010000000FFFFFFFFB3
:1048E00000000200000000000000000000000000C6
:1048F00018000020180000202000002020000020C8
:104900002800002028000020300000203000002077
:104910003800002038000020400000204000002027
:1049200048000020480000205000002050000020D7
:104930005800002058000020600000206000002087
:104940006800002068000020700000207000002037
:1049500078000020780000208000002080000020E7
:104960008800002088000020900000209000002097
:104970009800002098000020A0000020A000002047
:10498000A8000020A8000020B0000020B0000020F7
:10499000B8000020B8000020C0000020C0000020A7
:1049A000C8000020C8000020D0000020D000002057
:1049B000D8000020D8000020E0000020E000002007
:1049C000E8000020E8000020F0000020F0000020B7
:1049D000F8000020F8000020000100200001002065
:1049E0000801002008010020100100201001002013
:1049F00018010020180100202001002020010020C3
:104A00002801002028010020300100203001002072
:104A10003801002038010020400100204001002022
:104A200048010020480100205001002050010020D2
:104A30005801002058010020600100206001002082
:104A40006801002068010020700100207001002032
:104A500078010020780100208001002080010020E2
:104A60008801002088010020900100209001002092
:104A70009801002098010020A0010020A001002042
:104A8000A8010020A8010020B0010020B0010020F2
:104A9000B8010020B8010020C0010020C0010020A2
:104AA000C8010020C8010020D0010020D001002052
:104AB000D8010020D8010020E0010020E001002002
:104AC000E8010020E8010020F0010020F0010020B2
:104AD000F8010020F8010020000200200002002060
:104AE000080200200802002010020020100200200E
:104AF00018020020180200202002002020020020BE
:104B0000280200202802002030020020300200206D
:104B1000380200203802002040020020400200201D
:104B200048020020480200205002002050020020CD
:104B3000580200205802002060020020600200207D
:104B4000680200206802002070020020700200202D
:104B500078020020780200208002002080020020DD
:104B6000880200208802002090020020900200208D
:104B70009802002098020020A0020020A00200203D
:104B8000A8020020A8020020B0020020B0020020ED
:104B9000B8020020B8020020C0020020C00200209D
:104BA000C8020020C8020020D0020020D00200204D
:104BB000D8020020D8020020E0020020E0020020FD
:104BC000E8020020E8020020F0020020F0020020AD
:104BD000F8020020F802002000030020000300205B
:104BE0000803002008030020100300201003002009
:104BF00018030020180300202003002020030020B9
:104C00002803002028030020300300203003002068
:104C10003803002038030020400300204003002018
:104C200048030020480300205003002050030020C8
:104C30005803002058030020600300206003002078
:104C40006803002068030020700300207003002028
:104C500078030020780300208003002080030020D8
:104C60008803002088030020900300209003002088
:104C70009803002098030020A0030020A003002038
:104C8000A8030020A8030020B0030020B0030020E8
:104C9000B8030020B8030020C0030020C003002098
:104CA000C8030020C8030020D0030020D003002048
:104CB000D8030020D8030020E0030020E0030020F8
:104CC000E8030020E8030020F0030020F0030020A8
:104CD000F8030020F8030020000400200004002056
:104CE0000804002008040020100400201004002004
:104CF00028040020000000000000000070070020D1
:104D0000D80700204008002000000000000000003C
:104D10000000000000000000000000000000000093
:104D20000000000000000000000000000000000083
:104D30000000000000000000000000000000000073
:104D40000000000000000000000000000000000063
:104D50000000000000000000000000000000000053
:104D60000000000000000000000000000000000043
:104D70000000000000000000000000000000000033
:104D80000000000000000000000000000000000023
:104D900001000000000000000E33CDAB34126DE6C0
:104DA000ECDE05000B000000000000000000000029
:104DB00000000000000000000000000000000000F3
:104DC00000000000000000000000000000000000E3
:104DD00000000000000000000000000000000000D3
:104DE00000000000000000000000000000000000C3
:104DF00000000000000000000000000000000000B3
:104E000000000000000000000000000000000000A2
:0C4E10000000000000000000B0080020BE
:0400000508002E358C
:00000001FF
